{
	"contracts/Store.sol": {
		"Store": {
			"abi": [
				{
					"inputs": [],
					"stateMutability": "nonpayable",
					"type": "constructor"
				},
				{
					"inputs": [
						{
							"internalType": "uint256",
							"name": "available",
							"type": "uint256"
						},
						{
							"internalType": "uint256",
							"name": "required",
							"type": "uint256"
						}
					],
					"name": "InsufficientQuantity",
					"type": "error"
				},
				{
					"inputs": [
						{
							"internalType": "uint256",
							"name": "",
							"type": "uint256"
						}
					],
					"name": "availableProducts",
					"outputs": [
						{
							"internalType": "string",
							"name": "",
							"type": "string"
						}
					],
					"stateMutability": "view",
					"type": "function"
				},
				{
					"inputs": [
						{
							"internalType": "uint256",
							"name": "id",
							"type": "uint256"
						}
					],
					"name": "cancelOrder",
					"outputs": [],
					"stateMutability": "nonpayable",
					"type": "function"
				},
				{
					"inputs": [
						{
							"internalType": "address",
							"name": "",
							"type": "address"
						},
						{
							"internalType": "enum Store.Product",
							"name": "",
							"type": "uint8"
						}
					],
					"name": "carts",
					"outputs": [
						{
							"internalType": "uint256",
							"name": "",
							"type": "uint256"
						}
					],
					"stateMutability": "view",
					"type": "function"
				},
				{
					"inputs": [
						{
							"internalType": "uint256",
							"name": "id",
							"type": "uint256"
						}
					],
					"name": "confirmDelivered",
					"outputs": [],
					"stateMutability": "nonpayable",
					"type": "function"
				},
				{
					"inputs": [],
					"name": "owner",
					"outputs": [
						{
							"internalType": "address",
							"name": "",
							"type": "address"
						}
					],
					"stateMutability": "view",
					"type": "function"
				},
				{
					"inputs": [
						{
							"internalType": "enum Store.Product",
							"name": "",
							"type": "uint8"
						}
					],
					"name": "priceList",
					"outputs": [
						{
							"internalType": "uint256",
							"name": "",
							"type": "uint256"
						}
					],
					"stateMutability": "view",
					"type": "function"
				},
				{
					"inputs": [],
					"name": "purchase",
					"outputs": [
						{
							"internalType": "uint256",
							"name": "",
							"type": "uint256"
						}
					],
					"stateMutability": "payable",
					"type": "function"
				},
				{
					"inputs": [
						{
							"internalType": "enum Store.Product",
							"name": "_product",
							"type": "uint8"
						},
						{
							"internalType": "uint256",
							"name": "_quantity",
							"type": "uint256"
						}
					],
					"name": "putProductIntoCart",
					"outputs": [],
					"stateMutability": "nonpayable",
					"type": "function"
				},
				{
					"inputs": [
						{
							"internalType": "enum Store.Product",
							"name": "",
							"type": "uint8"
						}
					],
					"name": "warehouse",
					"outputs": [
						{
							"internalType": "uint256",
							"name": "",
							"type": "uint256"
						}
					],
					"stateMutability": "view",
					"type": "function"
				}
			],
			"devdoc": {
				"kind": "dev",
				"methods": {},
				"version": 1
			},
			"evm": {
				"assembly": "    /* \"contracts/Store.sol\":119:4721  contract Store {... */\n  mstore(0x40, 0x80)\n    /* \"contracts/Store.sol\":488:489  0 */\n  0x00\n    /* \"contracts/Store.sol\":467:489  uint latestOrderId = 0 */\n  0x01\n  sstore\n    /* \"contracts/Store.sol\":930:1324  constructor(){... */\n  callvalue\n  dup1\n  iszero\n  tag_1\n  jumpi\n  0x00\n  dup1\n  revert\ntag_1:\n  pop\n    /* \"contracts/Store.sol\":953:988  availableProducts[0] = \"Greenfield\" */\n  mload(0x40)\n  dup1\n  0x40\n  add\n  0x40\n  mstore\n  dup1\n  0x0a\n  dup2\n  mstore\n  0x20\n  add\n  0x477265656e6669656c6400000000000000000000000000000000000000000000\n  dup2\n  mstore\n  pop\n    /* \"contracts/Store.sol\":953:970  availableProducts */\n  0x02\n    /* \"contracts/Store.sol\":971:972  0 */\n  0x00\n    /* \"contracts/Store.sol\":953:973  availableProducts[0] */\n  0x03\n  dup2\n  lt\n  tag_4\n  jumpi\n  tag_5\n  tag_6\n  jump\t// in\ntag_5:\ntag_4:\n  add\n    /* \"contracts/Store.sol\":953:988  availableProducts[0] = \"Greenfield\" */\n  swap1\n  dup2\n  tag_8\n  swap2\n  swap1\n  tag_9\n  jump\t// in\ntag_8:\n  pop\n    /* \"contracts/Store.sol\":998:1029  availableProducts[1] = \"Lipton\" */\n  mload(0x40)\n  dup1\n  0x40\n  add\n  0x40\n  mstore\n  dup1\n  0x06\n  dup2\n  mstore\n  0x20\n  add\n  0x4c6970746f6e0000000000000000000000000000000000000000000000000000\n  dup2\n  mstore\n  pop\n    /* \"contracts/Store.sol\":998:1015  availableProducts */\n  0x02\n    /* \"contracts/Store.sol\":1016:1017  1 */\n  0x01\n    /* \"contracts/Store.sol\":998:1018  availableProducts[1] */\n  0x03\n  dup2\n  lt\n  tag_10\n  jumpi\n  tag_11\n  tag_6\n  jump\t// in\ntag_11:\ntag_10:\n  add\n    /* \"contracts/Store.sol\":998:1029  availableProducts[1] = \"Lipton\" */\n  swap1\n  dup2\n  tag_13\n  swap2\n  swap1\n  tag_9\n  jump\t// in\ntag_13:\n  pop\n    /* \"contracts/Store.sol\":1039:1068  availableProducts[2] = \"Java\" */\n  mload(0x40)\n  dup1\n  0x40\n  add\n  0x40\n  mstore\n  dup1\n  0x04\n  dup2\n  mstore\n  0x20\n  add\n  0x4a61766100000000000000000000000000000000000000000000000000000000\n  dup2\n  mstore\n  pop\n    /* \"contracts/Store.sol\":1039:1056  availableProducts */\n  0x02\n    /* \"contracts/Store.sol\":1057:1058  2 */\n  dup1\n    /* \"contracts/Store.sol\":1039:1059  availableProducts[2] */\n  0x03\n  dup2\n  lt\n  tag_14\n  jumpi\n  tag_15\n  tag_6\n  jump\t// in\ntag_15:\ntag_14:\n  add\n    /* \"contracts/Store.sol\":1039:1068  availableProducts[2] = \"Java\" */\n  swap1\n  dup2\n  tag_17\n  swap2\n  swap1\n  tag_9\n  jump\t// in\ntag_17:\n  pop\n    /* \"contracts/Store.sol\":1111:1114  100 */\n  0x64\n    /* \"contracts/Store.sol\":1079:1088  priceList */\n  0x05\n    /* \"contracts/Store.sol\":1079:1108  priceList[Product.Greenfield] */\n  0x00\n    /* \"contracts/Store.sol\":1089:1107  Product.Greenfield */\n  dup1\n    /* \"contracts/Store.sol\":1079:1108  priceList[Product.Greenfield] */\n  0x02\n  dup2\n  gt\n  iszero\n  tag_18\n  jumpi\n  tag_19\n  tag_20\n  jump\t// in\ntag_19:\ntag_18:\n  0x02\n  dup2\n  gt\n  iszero\n  tag_21\n  jumpi\n  tag_22\n  tag_20\n  jump\t// in\ntag_22:\ntag_21:\n  dup2\n  mstore\n  0x20\n  add\n  swap1\n  dup2\n  mstore\n  0x20\n  add\n  0x00\n  keccak256\n    /* \"contracts/Store.sol\":1079:1114  priceList[Product.Greenfield] = 100 */\n  dup2\n  swap1\n  sstore\n  pop\n    /* \"contracts/Store.sol\":1152:1154  70 */\n  0x46\n    /* \"contracts/Store.sol\":1124:1133  priceList */\n  0x05\n    /* \"contracts/Store.sol\":1124:1149  priceList[Product.Lipton] */\n  0x00\n    /* \"contracts/Store.sol\":1134:1148  Product.Lipton */\n  0x01\n    /* \"contracts/Store.sol\":1124:1149  priceList[Product.Lipton] */\n  0x02\n  dup2\n  gt\n  iszero\n  tag_23\n  jumpi\n  tag_24\n  tag_20\n  jump\t// in\ntag_24:\ntag_23:\n  0x02\n  dup2\n  gt\n  iszero\n  tag_25\n  jumpi\n  tag_26\n  tag_20\n  jump\t// in\ntag_26:\ntag_25:\n  dup2\n  mstore\n  0x20\n  add\n  swap1\n  dup2\n  mstore\n  0x20\n  add\n  0x00\n  keccak256\n    /* \"contracts/Store.sol\":1124:1154  priceList[Product.Lipton] = 70 */\n  dup2\n  swap1\n  sstore\n  pop\n    /* \"contracts/Store.sol\":1190:1192  90 */\n  0x5a\n    /* \"contracts/Store.sol\":1164:1173  priceList */\n  0x05\n    /* \"contracts/Store.sol\":1164:1187  priceList[Product.Java] */\n  0x00\n    /* \"contracts/Store.sol\":1174:1186  Product.Java */\n  0x02\n    /* \"contracts/Store.sol\":1164:1187  priceList[Product.Java] */\n  dup1\n  dup2\n  gt\n  iszero\n  tag_27\n  jumpi\n  tag_28\n  tag_20\n  jump\t// in\ntag_28:\ntag_27:\n  0x02\n  dup2\n  gt\n  iszero\n  tag_29\n  jumpi\n  tag_30\n  tag_20\n  jump\t// in\ntag_30:\ntag_29:\n  dup2\n  mstore\n  0x20\n  add\n  swap1\n  dup2\n  mstore\n  0x20\n  add\n  0x00\n  keccak256\n    /* \"contracts/Store.sol\":1164:1192  priceList[Product.Java] = 90 */\n  dup2\n  swap1\n  sstore\n  pop\n    /* \"contracts/Store.sol\":1235:1238  100 */\n  0x64\n    /* \"contracts/Store.sol\":1203:1212  warehouse */\n  0x06\n    /* \"contracts/Store.sol\":1203:1232  warehouse[Product.Greenfield] */\n  0x00\n    /* \"contracts/Store.sol\":1213:1231  Product.Greenfield */\n  dup1\n    /* \"contracts/Store.sol\":1203:1232  warehouse[Product.Greenfield] */\n  0x02\n  dup2\n  gt\n  iszero\n  tag_31\n  jumpi\n  tag_32\n  tag_20\n  jump\t// in\ntag_32:\ntag_31:\n  0x02\n  dup2\n  gt\n  iszero\n  tag_33\n  jumpi\n  tag_34\n  tag_20\n  jump\t// in\ntag_34:\ntag_33:\n  dup2\n  mstore\n  0x20\n  add\n  swap1\n  dup2\n  mstore\n  0x20\n  add\n  0x00\n  keccak256\n    /* \"contracts/Store.sol\":1203:1238  warehouse[Product.Greenfield] = 100 */\n  dup2\n  swap1\n  sstore\n  pop\n    /* \"contracts/Store.sol\":1276:1278  50 */\n  0x32\n    /* \"contracts/Store.sol\":1248:1257  warehouse */\n  0x06\n    /* \"contracts/Store.sol\":1248:1273  warehouse[Product.Lipton] */\n  0x00\n    /* \"contracts/Store.sol\":1258:1272  Product.Lipton */\n  0x01\n    /* \"contracts/Store.sol\":1248:1273  warehouse[Product.Lipton] */\n  0x02\n  dup2\n  gt\n  iszero\n  tag_35\n  jumpi\n  tag_36\n  tag_20\n  jump\t// in\ntag_36:\ntag_35:\n  0x02\n  dup2\n  gt\n  iszero\n  tag_37\n  jumpi\n  tag_38\n  tag_20\n  jump\t// in\ntag_38:\ntag_37:\n  dup2\n  mstore\n  0x20\n  add\n  swap1\n  dup2\n  mstore\n  0x20\n  add\n  0x00\n  keccak256\n    /* \"contracts/Store.sol\":1248:1278  warehouse[Product.Lipton] = 50 */\n  dup2\n  swap1\n  sstore\n  pop\n    /* \"contracts/Store.sol\":1314:1317  500 */\n  0x01f4\n    /* \"contracts/Store.sol\":1288:1297  warehouse */\n  0x06\n    /* \"contracts/Store.sol\":1288:1311  warehouse[Product.Java] */\n  0x00\n    /* \"contracts/Store.sol\":1298:1310  Product.Java */\n  0x02\n    /* \"contracts/Store.sol\":1288:1311  warehouse[Product.Java] */\n  dup1\n  dup2\n  gt\n  iszero\n  tag_39\n  jumpi\n  tag_40\n  tag_20\n  jump\t// in\ntag_40:\ntag_39:\n  0x02\n  dup2\n  gt\n  iszero\n  tag_41\n  jumpi\n  tag_42\n  tag_20\n  jump\t// in\ntag_42:\ntag_41:\n  dup2\n  mstore\n  0x20\n  add\n  swap1\n  dup2\n  mstore\n  0x20\n  add\n  0x00\n  keccak256\n    /* \"contracts/Store.sol\":1288:1317  warehouse[Product.Java] = 500 */\n  dup2\n  swap1\n  sstore\n  pop\n    /* \"contracts/Store.sol\":119:4721  contract Store {... */\n  jump(tag_43)\n    /* \"#utility.yul\":7:187   */\ntag_6:\n    /* \"#utility.yul\":55:132   */\n  0x4e487b7100000000000000000000000000000000000000000000000000000000\n    /* \"#utility.yul\":52:53   */\n  0x00\n    /* \"#utility.yul\":45:133   */\n  mstore\n    /* \"#utility.yul\":152:156   */\n  0x32\n    /* \"#utility.yul\":149:150   */\n  0x04\n    /* \"#utility.yul\":142:157   */\n  mstore\n    /* \"#utility.yul\":176:180   */\n  0x24\n    /* \"#utility.yul\":173:174   */\n  0x00\n    /* \"#utility.yul\":166:181   */\n  revert\n    /* \"#utility.yul\":193:292   */\ntag_44:\n    /* \"#utility.yul\":245:251   */\n  0x00\n    /* \"#utility.yul\":279:284   */\n  dup2\n    /* \"#utility.yul\":273:285   */\n  mload\n    /* \"#utility.yul\":263:285   */\n  swap1\n  pop\n    /* \"#utility.yul\":193:292   */\n  swap2\n  swap1\n  pop\n  jump\t// out\n    /* \"#utility.yul\":298:478   */\ntag_45:\n    /* \"#utility.yul\":346:423   */\n  0x4e487b7100000000000000000000000000000000000000000000000000000000\n    /* \"#utility.yul\":343:344   */\n  0x00\n    /* \"#utility.yul\":336:424   */\n  mstore\n    /* \"#utility.yul\":443:447   */\n  0x41\n    /* \"#utility.yul\":440:441   */\n  0x04\n    /* \"#utility.yul\":433:448   */\n  mstore\n    /* \"#utility.yul\":467:471   */\n  0x24\n    /* \"#utility.yul\":464:465   */\n  0x00\n    /* \"#utility.yul\":457:472   */\n  revert\n    /* \"#utility.yul\":484:664   */\ntag_46:\n    /* \"#utility.yul\":532:609   */\n  0x4e487b7100000000000000000000000000000000000000000000000000000000\n    /* \"#utility.yul\":529:530   */\n  0x00\n    /* \"#utility.yul\":522:610   */\n  mstore\n    /* \"#utility.yul\":629:633   */\n  0x22\n    /* \"#utility.yul\":626:627   */\n  0x04\n    /* \"#utility.yul\":619:634   */\n  mstore\n    /* \"#utility.yul\":653:657   */\n  0x24\n    /* \"#utility.yul\":650:651   */\n  0x00\n    /* \"#utility.yul\":643:658   */\n  revert\n    /* \"#utility.yul\":670:990   */\ntag_47:\n    /* \"#utility.yul\":714:720   */\n  0x00\n    /* \"#utility.yul\":751:752   */\n  0x02\n    /* \"#utility.yul\":745:749   */\n  dup3\n    /* \"#utility.yul\":741:753   */\n  div\n    /* \"#utility.yul\":731:753   */\n  swap1\n  pop\n    /* \"#utility.yul\":798:799   */\n  0x01\n    /* \"#utility.yul\":792:796   */\n  dup3\n    /* \"#utility.yul\":788:800   */\n  and\n    /* \"#utility.yul\":819:837   */\n  dup1\n    /* \"#utility.yul\":809:890   */\n  tag_70\n  jumpi\n    /* \"#utility.yul\":875:879   */\n  0x7f\n    /* \"#utility.yul\":867:873   */\n  dup3\n    /* \"#utility.yul\":863:880   */\n  and\n    /* \"#utility.yul\":853:880   */\n  swap2\n  pop\n    /* \"#utility.yul\":809:890   */\ntag_70:\n    /* \"#utility.yul\":937:939   */\n  0x20\n    /* \"#utility.yul\":929:935   */\n  dup3\n    /* \"#utility.yul\":926:940   */\n  lt\n    /* \"#utility.yul\":906:924   */\n  dup2\n    /* \"#utility.yul\":903:941   */\n  sub\n    /* \"#utility.yul\":900:984   */\n  tag_71\n  jumpi\n    /* \"#utility.yul\":956:974   */\n  tag_72\n  tag_46\n  jump\t// in\ntag_72:\n    /* \"#utility.yul\":900:984   */\ntag_71:\n    /* \"#utility.yul\":721:990   */\n  pop\n    /* \"#utility.yul\":670:990   */\n  swap2\n  swap1\n  pop\n  jump\t// out\n    /* \"#utility.yul\":996:1137   */\ntag_48:\n    /* \"#utility.yul\":1045:1049   */\n  0x00\n    /* \"#utility.yul\":1068:1071   */\n  dup2\n    /* \"#utility.yul\":1060:1071   */\n  swap1\n  pop\n    /* \"#utility.yul\":1091:1094   */\n  dup2\n    /* \"#utility.yul\":1088:1089   */\n  0x00\n    /* \"#utility.yul\":1081:1095   */\n  mstore\n    /* \"#utility.yul\":1125:1129   */\n  0x20\n    /* \"#utility.yul\":1122:1123   */\n  0x00\n    /* \"#utility.yul\":1112:1130   */\n  keccak256\n    /* \"#utility.yul\":1104:1130   */\n  swap1\n  pop\n    /* \"#utility.yul\":996:1137   */\n  swap2\n  swap1\n  pop\n  jump\t// out\n    /* \"#utility.yul\":1143:1236   */\ntag_49:\n    /* \"#utility.yul\":1180:1186   */\n  0x00\n    /* \"#utility.yul\":1227:1229   */\n  0x20\n    /* \"#utility.yul\":1222:1224   */\n  0x1f\n    /* \"#utility.yul\":1215:1220   */\n  dup4\n    /* \"#utility.yul\":1211:1225   */\n  add\n    /* \"#utility.yul\":1207:1230   */\n  div\n    /* \"#utility.yul\":1197:1230   */\n  swap1\n  pop\n    /* \"#utility.yul\":1143:1236   */\n  swap2\n  swap1\n  pop\n  jump\t// out\n    /* \"#utility.yul\":1242:1349   */\ntag_50:\n    /* \"#utility.yul\":1286:1294   */\n  0x00\n    /* \"#utility.yul\":1336:1341   */\n  dup3\n    /* \"#utility.yul\":1330:1334   */\n  dup3\n    /* \"#utility.yul\":1326:1342   */\n  shl\n    /* \"#utility.yul\":1305:1342   */\n  swap1\n  pop\n    /* \"#utility.yul\":1242:1349   */\n  swap3\n  swap2\n  pop\n  pop\n  jump\t// out\n    /* \"#utility.yul\":1355:1748   */\ntag_51:\n    /* \"#utility.yul\":1424:1430   */\n  0x00\n    /* \"#utility.yul\":1474:1475   */\n  0x08\n    /* \"#utility.yul\":1462:1472   */\n  dup4\n    /* \"#utility.yul\":1458:1476   */\n  mul\n    /* \"#utility.yul\":1497:1594   */\n  tag_77\n    /* \"#utility.yul\":1527:1593   */\n  0xffffffffffffffffffffffffffffffffffffffffffffffffffffffffffffffff\n    /* \"#utility.yul\":1516:1525   */\n  dup3\n    /* \"#utility.yul\":1497:1594   */\n  tag_50\n  jump\t// in\ntag_77:\n    /* \"#utility.yul\":1615:1654   */\n  tag_78\n    /* \"#utility.yul\":1645:1653   */\n  dup7\n    /* \"#utility.yul\":1634:1643   */\n  dup4\n    /* \"#utility.yul\":1615:1654   */\n  tag_50\n  jump\t// in\ntag_78:\n    /* \"#utility.yul\":1603:1654   */\n  swap6\n  pop\n    /* \"#utility.yul\":1687:1691   */\n  dup1\n    /* \"#utility.yul\":1683:1692   */\n  not\n    /* \"#utility.yul\":1676:1681   */\n  dup5\n    /* \"#utility.yul\":1672:1693   */\n  and\n    /* \"#utility.yul\":1663:1693   */\n  swap4\n  pop\n    /* \"#utility.yul\":1736:1740   */\n  dup1\n    /* \"#utility.yul\":1726:1734   */\n  dup7\n    /* \"#utility.yul\":1722:1741   */\n  and\n    /* \"#utility.yul\":1715:1720   */\n  dup5\n    /* \"#utility.yul\":1712:1742   */\n  or\n    /* \"#utility.yul\":1702:1742   */\n  swap3\n  pop\n    /* \"#utility.yul\":1431:1748   */\n  pop\n  pop\n    /* \"#utility.yul\":1355:1748   */\n  swap4\n  swap3\n  pop\n  pop\n  pop\n  jump\t// out\n    /* \"#utility.yul\":1754:1831   */\ntag_52:\n    /* \"#utility.yul\":1791:1798   */\n  0x00\n    /* \"#utility.yul\":1820:1825   */\n  dup2\n    /* \"#utility.yul\":1809:1825   */\n  swap1\n  pop\n    /* \"#utility.yul\":1754:1831   */\n  swap2\n  swap1\n  pop\n  jump\t// out\n    /* \"#utility.yul\":1837:1897   */\ntag_53:\n    /* \"#utility.yul\":1865:1868   */\n  0x00\n    /* \"#utility.yul\":1886:1891   */\n  dup2\n    /* \"#utility.yul\":1879:1891   */\n  swap1\n  pop\n    /* \"#utility.yul\":1837:1897   */\n  swap2\n  swap1\n  pop\n  jump\t// out\n    /* \"#utility.yul\":1903:2045   */\ntag_54:\n    /* \"#utility.yul\":1953:1962   */\n  0x00\n    /* \"#utility.yul\":1986:2039   */\n  tag_82\n    /* \"#utility.yul\":2004:2038   */\n  tag_83\n    /* \"#utility.yul\":2013:2037   */\n  tag_84\n    /* \"#utility.yul\":2031:2036   */\n  dup5\n    /* \"#utility.yul\":2013:2037   */\n  tag_52\n  jump\t// in\ntag_84:\n    /* \"#utility.yul\":2004:2038   */\n  tag_53\n  jump\t// in\ntag_83:\n    /* \"#utility.yul\":1986:2039   */\n  tag_52\n  jump\t// in\ntag_82:\n    /* \"#utility.yul\":1973:2039   */\n  swap1\n  pop\n    /* \"#utility.yul\":1903:2045   */\n  swap2\n  swap1\n  pop\n  jump\t// out\n    /* \"#utility.yul\":2051:2126   */\ntag_55:\n    /* \"#utility.yul\":2094:2097   */\n  0x00\n    /* \"#utility.yul\":2115:2120   */\n  dup2\n    /* \"#utility.yul\":2108:2120   */\n  swap1\n  pop\n    /* \"#utility.yul\":2051:2126   */\n  swap2\n  swap1\n  pop\n  jump\t// out\n    /* \"#utility.yul\":2132:2401   */\ntag_56:\n    /* \"#utility.yul\":2242:2281   */\n  tag_87\n    /* \"#utility.yul\":2273:2280   */\n  dup4\n    /* \"#utility.yul\":2242:2281   */\n  tag_54\n  jump\t// in\ntag_87:\n    /* \"#utility.yul\":2303:2394   */\n  tag_88\n    /* \"#utility.yul\":2352:2393   */\n  tag_89\n    /* \"#utility.yul\":2376:2392   */\n  dup3\n    /* \"#utility.yul\":2352:2393   */\n  tag_55\n  jump\t// in\ntag_89:\n    /* \"#utility.yul\":2344:2350   */\n  dup5\n    /* \"#utility.yul\":2337:2341   */\n  dup5\n    /* \"#utility.yul\":2331:2342   */\n  sload\n    /* \"#utility.yul\":2303:2394   */\n  tag_51\n  jump\t// in\ntag_88:\n    /* \"#utility.yul\":2297:2301   */\n  dup3\n    /* \"#utility.yul\":2290:2395   */\n  sstore\n    /* \"#utility.yul\":2208:2401   */\n  pop\n    /* \"#utility.yul\":2132:2401   */\n  pop\n  pop\n  pop\n  jump\t// out\n    /* \"#utility.yul\":2407:2480   */\ntag_57:\n    /* \"#utility.yul\":2452:2455   */\n  0x00\n    /* \"#utility.yul\":2407:2480   */\n  swap1\n  jump\t// out\n    /* \"#utility.yul\":2486:2675   */\ntag_58:\n    /* \"#utility.yul\":2563:2595   */\n  tag_92\n  tag_57\n  jump\t// in\ntag_92:\n    /* \"#utility.yul\":2604:2669   */\n  tag_93\n    /* \"#utility.yul\":2662:2668   */\n  dup2\n    /* \"#utility.yul\":2654:2660   */\n  dup5\n    /* \"#utility.yul\":2648:2652   */\n  dup5\n    /* \"#utility.yul\":2604:2669   */\n  tag_56\n  jump\t// in\ntag_93:\n    /* \"#utility.yul\":2539:2675   */\n  pop\n    /* \"#utility.yul\":2486:2675   */\n  pop\n  pop\n  jump\t// out\n    /* \"#utility.yul\":2681:2867   */\ntag_59:\n    /* \"#utility.yul\":2741:2861   */\ntag_95:\n    /* \"#utility.yul\":2758:2761   */\n  dup2\n    /* \"#utility.yul\":2751:2756   */\n  dup2\n    /* \"#utility.yul\":2748:2762   */\n  lt\n    /* \"#utility.yul\":2741:2861   */\n  iszero\n  tag_97\n  jumpi\n    /* \"#utility.yul\":2812:2851   */\n  tag_98\n    /* \"#utility.yul\":2849:2850   */\n  0x00\n    /* \"#utility.yul\":2842:2847   */\n  dup3\n    /* \"#utility.yul\":2812:2851   */\n  tag_58\n  jump\t// in\ntag_98:\n    /* \"#utility.yul\":2785:2786   */\n  0x01\n    /* \"#utility.yul\":2778:2783   */\n  dup2\n    /* \"#utility.yul\":2774:2787   */\n  add\n    /* \"#utility.yul\":2765:2787   */\n  swap1\n  pop\n    /* \"#utility.yul\":2741:2861   */\n  jump(tag_95)\ntag_97:\n    /* \"#utility.yul\":2681:2867   */\n  pop\n  pop\n  jump\t// out\n    /* \"#utility.yul\":2873:3416   */\ntag_60:\n    /* \"#utility.yul\":2974:2976   */\n  0x1f\n    /* \"#utility.yul\":2969:2972   */\n  dup3\n    /* \"#utility.yul\":2966:2977   */\n  gt\n    /* \"#utility.yul\":2963:3409   */\n  iszero\n  tag_100\n  jumpi\n    /* \"#utility.yul\":3008:3046   */\n  tag_101\n    /* \"#utility.yul\":3040:3045   */\n  dup2\n    /* \"#utility.yul\":3008:3046   */\n  tag_48\n  jump\t// in\ntag_101:\n    /* \"#utility.yul\":3092:3121   */\n  tag_102\n    /* \"#utility.yul\":3110:3120   */\n  dup5\n    /* \"#utility.yul\":3092:3121   */\n  tag_49\n  jump\t// in\ntag_102:\n    /* \"#utility.yul\":3082:3090   */\n  dup2\n    /* \"#utility.yul\":3078:3122   */\n  add\n    /* \"#utility.yul\":3275:3277   */\n  0x20\n    /* \"#utility.yul\":3263:3273   */\n  dup6\n    /* \"#utility.yul\":3260:3278   */\n  lt\n    /* \"#utility.yul\":3257:3306   */\n  iszero\n  tag_103\n  jumpi\n    /* \"#utility.yul\":3296:3304   */\n  dup2\n    /* \"#utility.yul\":3281:3304   */\n  swap1\n  pop\n    /* \"#utility.yul\":3257:3306   */\ntag_103:\n    /* \"#utility.yul\":3319:3399   */\n  tag_104\n    /* \"#utility.yul\":3375:3397   */\n  tag_105\n    /* \"#utility.yul\":3393:3396   */\n  dup6\n    /* \"#utility.yul\":3375:3397   */\n  tag_49\n  jump\t// in\ntag_105:\n    /* \"#utility.yul\":3365:3373   */\n  dup4\n    /* \"#utility.yul\":3361:3398   */\n  add\n    /* \"#utility.yul\":3348:3359   */\n  dup3\n    /* \"#utility.yul\":3319:3399   */\n  tag_59\n  jump\t// in\ntag_104:\n    /* \"#utility.yul\":2978:3409   */\n  pop\n  pop\n    /* \"#utility.yul\":2963:3409   */\ntag_100:\n    /* \"#utility.yul\":2873:3416   */\n  pop\n  pop\n  pop\n  jump\t// out\n    /* \"#utility.yul\":3422:3539   */\ntag_61:\n    /* \"#utility.yul\":3476:3484   */\n  0x00\n    /* \"#utility.yul\":3526:3531   */\n  dup3\n    /* \"#utility.yul\":3520:3524   */\n  dup3\n    /* \"#utility.yul\":3516:3532   */\n  shr\n    /* \"#utility.yul\":3495:3532   */\n  swap1\n  pop\n    /* \"#utility.yul\":3422:3539   */\n  swap3\n  swap2\n  pop\n  pop\n  jump\t// out\n    /* \"#utility.yul\":3545:3714   */\ntag_62:\n    /* \"#utility.yul\":3589:3595   */\n  0x00\n    /* \"#utility.yul\":3622:3673   */\n  tag_108\n    /* \"#utility.yul\":3670:3671   */\n  0x00\n    /* \"#utility.yul\":3666:3672   */\n  not\n    /* \"#utility.yul\":3658:3663   */\n  dup5\n    /* \"#utility.yul\":3655:3656   */\n  0x08\n    /* \"#utility.yul\":3651:3664   */\n  mul\n    /* \"#utility.yul\":3622:3673   */\n  tag_61\n  jump\t// in\ntag_108:\n    /* \"#utility.yul\":3618:3674   */\n  not\n    /* \"#utility.yul\":3703:3707   */\n  dup1\n    /* \"#utility.yul\":3697:3701   */\n  dup4\n    /* \"#utility.yul\":3693:3708   */\n  and\n    /* \"#utility.yul\":3683:3708   */\n  swap2\n  pop\n    /* \"#utility.yul\":3596:3714   */\n  pop\n    /* \"#utility.yul\":3545:3714   */\n  swap3\n  swap2\n  pop\n  pop\n  jump\t// out\n    /* \"#utility.yul\":3719:4014   */\ntag_63:\n    /* \"#utility.yul\":3795:3799   */\n  0x00\n    /* \"#utility.yul\":3941:3970   */\n  tag_110\n    /* \"#utility.yul\":3966:3969   */\n  dup4\n    /* \"#utility.yul\":3960:3964   */\n  dup4\n    /* \"#utility.yul\":3941:3970   */\n  tag_62\n  jump\t// in\ntag_110:\n    /* \"#utility.yul\":3933:3970   */\n  swap2\n  pop\n    /* \"#utility.yul\":4003:4006   */\n  dup3\n    /* \"#utility.yul\":4000:4001   */\n  0x02\n    /* \"#utility.yul\":3996:4007   */\n  mul\n    /* \"#utility.yul\":3990:3994   */\n  dup3\n    /* \"#utility.yul\":3987:4008   */\n  or\n    /* \"#utility.yul\":3979:4008   */\n  swap1\n  pop\n    /* \"#utility.yul\":3719:4014   */\n  swap3\n  swap2\n  pop\n  pop\n  jump\t// out\n    /* \"#utility.yul\":4019:5414   */\ntag_9:\n    /* \"#utility.yul\":4136:4173   */\n  tag_112\n    /* \"#utility.yul\":4169:4172   */\n  dup3\n    /* \"#utility.yul\":4136:4173   */\n  tag_44\n  jump\t// in\ntag_112:\n    /* \"#utility.yul\":4238:4256   */\n  0xffffffffffffffff\n    /* \"#utility.yul\":4230:4236   */\n  dup2\n    /* \"#utility.yul\":4227:4257   */\n  gt\n    /* \"#utility.yul\":4224:4280   */\n  iszero\n  tag_113\n  jumpi\n    /* \"#utility.yul\":4260:4278   */\n  tag_114\n  tag_45\n  jump\t// in\ntag_114:\n    /* \"#utility.yul\":4224:4280   */\ntag_113:\n    /* \"#utility.yul\":4304:4342   */\n  tag_115\n    /* \"#utility.yul\":4336:4340   */\n  dup3\n    /* \"#utility.yul\":4330:4341   */\n  sload\n    /* \"#utility.yul\":4304:4342   */\n  tag_47\n  jump\t// in\ntag_115:\n    /* \"#utility.yul\":4389:4456   */\n  tag_116\n    /* \"#utility.yul\":4449:4455   */\n  dup3\n    /* \"#utility.yul\":4441:4447   */\n  dup3\n    /* \"#utility.yul\":4435:4439   */\n  dup6\n    /* \"#utility.yul\":4389:4456   */\n  tag_60\n  jump\t// in\ntag_116:\n    /* \"#utility.yul\":4483:4484   */\n  0x00\n    /* \"#utility.yul\":4507:4511   */\n  0x20\n    /* \"#utility.yul\":4494:4511   */\n  swap1\n  pop\n    /* \"#utility.yul\":4539:4541   */\n  0x1f\n    /* \"#utility.yul\":4531:4537   */\n  dup4\n    /* \"#utility.yul\":4528:4542   */\n  gt\n    /* \"#utility.yul\":4556:4557   */\n  0x01\n    /* \"#utility.yul\":4551:5169   */\n  dup2\n  eq\n  tag_118\n  jumpi\n    /* \"#utility.yul\":5213:5214   */\n  0x00\n    /* \"#utility.yul\":5230:5236   */\n  dup5\n    /* \"#utility.yul\":5227:5304   */\n  iszero\n  tag_119\n  jumpi\n    /* \"#utility.yul\":5279:5288   */\n  dup3\n    /* \"#utility.yul\":5274:5277   */\n  dup8\n    /* \"#utility.yul\":5270:5289   */\n  add\n    /* \"#utility.yul\":5264:5290   */\n  mload\n    /* \"#utility.yul\":5255:5290   */\n  swap1\n  pop\n    /* \"#utility.yul\":5227:5304   */\ntag_119:\n    /* \"#utility.yul\":5330:5397   */\n  tag_120\n    /* \"#utility.yul\":5390:5396   */\n  dup6\n    /* \"#utility.yul\":5383:5388   */\n  dup3\n    /* \"#utility.yul\":5330:5397   */\n  tag_63\n  jump\t// in\ntag_120:\n    /* \"#utility.yul\":5324:5328   */\n  dup7\n    /* \"#utility.yul\":5317:5398   */\n  sstore\n    /* \"#utility.yul\":5186:5408   */\n  pop\n    /* \"#utility.yul\":4521:5408   */\n  jump(tag_117)\n    /* \"#utility.yul\":4551:5169   */\ntag_118:\n    /* \"#utility.yul\":4603:4607   */\n  0x1f\n    /* \"#utility.yul\":4599:4608   */\n  not\n    /* \"#utility.yul\":4591:4597   */\n  dup5\n    /* \"#utility.yul\":4587:4609   */\n  and\n    /* \"#utility.yul\":4637:4674   */\n  tag_121\n    /* \"#utility.yul\":4669:4673   */\n  dup7\n    /* \"#utility.yul\":4637:4674   */\n  tag_48\n  jump\t// in\ntag_121:\n    /* \"#utility.yul\":4696:4697   */\n  0x00\n    /* \"#utility.yul\":4710:4918   */\ntag_122:\n    /* \"#utility.yul\":4724:4731   */\n  dup3\n    /* \"#utility.yul\":4721:4722   */\n  dup2\n    /* \"#utility.yul\":4718:4732   */\n  lt\n    /* \"#utility.yul\":4710:4918   */\n  iszero\n  tag_124\n  jumpi\n    /* \"#utility.yul\":4803:4812   */\n  dup5\n    /* \"#utility.yul\":4798:4801   */\n  dup10\n    /* \"#utility.yul\":4794:4813   */\n  add\n    /* \"#utility.yul\":4788:4814   */\n  mload\n    /* \"#utility.yul\":4780:4786   */\n  dup3\n    /* \"#utility.yul\":4773:4815   */\n  sstore\n    /* \"#utility.yul\":4854:4855   */\n  0x01\n    /* \"#utility.yul\":4846:4852   */\n  dup3\n    /* \"#utility.yul\":4842:4856   */\n  add\n    /* \"#utility.yul\":4832:4856   */\n  swap2\n  pop\n    /* \"#utility.yul\":4901:4903   */\n  0x20\n    /* \"#utility.yul\":4890:4899   */\n  dup6\n    /* \"#utility.yul\":4886:4904   */\n  add\n    /* \"#utility.yul\":4873:4904   */\n  swap5\n  pop\n    /* \"#utility.yul\":4747:4751   */\n  0x20\n    /* \"#utility.yul\":4744:4745   */\n  dup2\n    /* \"#utility.yul\":4740:4752   */\n  add\n    /* \"#utility.yul\":4735:4752   */\n  swap1\n  pop\n    /* \"#utility.yul\":4710:4918   */\n  jump(tag_122)\ntag_124:\n    /* \"#utility.yul\":4946:4952   */\n  dup7\n    /* \"#utility.yul\":4937:4944   */\n  dup4\n    /* \"#utility.yul\":4934:4953   */\n  lt\n    /* \"#utility.yul\":4931:5110   */\n  iszero\n  tag_125\n  jumpi\n    /* \"#utility.yul\":5004:5013   */\n  dup5\n    /* \"#utility.yul\":4999:5002   */\n  dup10\n    /* \"#utility.yul\":4995:5014   */\n  add\n    /* \"#utility.yul\":4989:5015   */\n  mload\n    /* \"#utility.yul\":5047:5095   */\n  tag_126\n    /* \"#utility.yul\":5089:5093   */\n  0x1f\n    /* \"#utility.yul\":5081:5087   */\n  dup10\n    /* \"#utility.yul\":5077:5094   */\n  and\n    /* \"#utility.yul\":5066:5075   */\n  dup3\n    /* \"#utility.yul\":5047:5095   */\n  tag_62\n  jump\t// in\ntag_126:\n    /* \"#utility.yul\":5039:5045   */\n  dup4\n    /* \"#utility.yul\":5032:5096   */\n  sstore\n    /* \"#utility.yul\":4954:5110   */\n  pop\n    /* \"#utility.yul\":4931:5110   */\ntag_125:\n    /* \"#utility.yul\":5156:5157   */\n  0x01\n    /* \"#utility.yul\":5152:5153   */\n  0x02\n    /* \"#utility.yul\":5144:5150   */\n  dup9\n    /* \"#utility.yul\":5140:5154   */\n  mul\n    /* \"#utility.yul\":5136:5158   */\n  add\n    /* \"#utility.yul\":5130:5134   */\n  dup9\n    /* \"#utility.yul\":5123:5159   */\n  sstore\n    /* \"#utility.yul\":4558:5169   */\n  pop\n  pop\n  pop\n    /* \"#utility.yul\":4521:5408   */\ntag_117:\n  pop\n    /* \"#utility.yul\":4111:5414   */\n  pop\n  pop\n  pop\n    /* \"#utility.yul\":4019:5414   */\n  pop\n  pop\n  jump\t// out\n    /* \"#utility.yul\":5420:5600   */\ntag_20:\n    /* \"#utility.yul\":5468:5545   */\n  0x4e487b7100000000000000000000000000000000000000000000000000000000\n    /* \"#utility.yul\":5465:5466   */\n  0x00\n    /* \"#utility.yul\":5458:5546   */\n  mstore\n    /* \"#utility.yul\":5565:5569   */\n  0x21\n    /* \"#utility.yul\":5562:5563   */\n  0x04\n    /* \"#utility.yul\":5555:5570   */\n  mstore\n    /* \"#utility.yul\":5589:5593   */\n  0x24\n    /* \"#utility.yul\":5586:5587   */\n  0x00\n    /* \"#utility.yul\":5579:5594   */\n  revert\n    /* \"contracts/Store.sol\":119:4721  contract Store {... */\ntag_43:\n  dataSize(sub_0)\n  dup1\n  dataOffset(sub_0)\n  0x00\n  codecopy\n  0x00\n  return\nstop\n\nsub_0: assembly {\n        /* \"contracts/Store.sol\":119:4721  contract Store {... */\n      mstore(0x40, 0x80)\n      jumpi(tag_1, lt(calldatasize, 0x04))\n      shr(0xe0, calldataload(0x00))\n      dup1\n      0x74ac0446\n      gt\n      tag_11\n      jumpi\n      dup1\n      0x74ac0446\n      eq\n      tag_6\n      jumpi\n      dup1\n      0x8da5cb5b\n      eq\n      tag_7\n      jumpi\n      dup1\n      0xde5355be\n      eq\n      tag_8\n      jumpi\n      dup1\n      0xe4bcc7d4\n      eq\n      tag_9\n      jumpi\n      dup1\n      0xfaf08906\n      eq\n      tag_10\n      jumpi\n      jump(tag_1)\n    tag_11:\n      dup1\n      0x08162e9c\n      eq\n      tag_2\n      jumpi\n      dup1\n      0x514fcac7\n      eq\n      tag_3\n      jumpi\n      dup1\n      0x62f65000\n      eq\n      tag_4\n      jumpi\n      dup1\n      0x64edfbf0\n      eq\n      tag_5\n      jumpi\n    tag_1:\n      0x00\n      dup1\n      revert\n        /* \"contracts/Store.sol\":1821:2291  function putProductIntoCart(Product _product, uint _quantity) external {... */\n    tag_2:\n      callvalue\n      dup1\n      iszero\n      tag_12\n      jumpi\n      0x00\n      dup1\n      revert\n    tag_12:\n      pop\n      tag_13\n      0x04\n      dup1\n      calldatasize\n      sub\n      dup2\n      add\n      swap1\n      tag_14\n      swap2\n      swap1\n      tag_15\n      jump\t// in\n    tag_14:\n      tag_16\n      jump\t// in\n    tag_13:\n      stop\n        /* \"contracts/Store.sol\":3943:4365  function cancelOrder(uint id) external correctOrderId(id) {... */\n    tag_3:\n      callvalue\n      dup1\n      iszero\n      tag_17\n      jumpi\n      0x00\n      dup1\n      revert\n    tag_17:\n      pop\n      tag_18\n      0x04\n      dup1\n      calldatasize\n      sub\n      dup2\n      add\n      swap1\n      tag_19\n      swap2\n      swap1\n      tag_20\n      jump\t// in\n    tag_19:\n      tag_21\n      jump\t// in\n    tag_18:\n      stop\n        /* \"contracts/Store.sol\":612:653  mapping(Product => uint) public warehouse */\n    tag_4:\n      callvalue\n      dup1\n      iszero\n      tag_22\n      jumpi\n      0x00\n      dup1\n      revert\n    tag_22:\n      pop\n      tag_23\n      0x04\n      dup1\n      calldatasize\n      sub\n      dup2\n      add\n      swap1\n      tag_24\n      swap2\n      swap1\n      tag_25\n      jump\t// in\n    tag_24:\n      tag_26\n      jump\t// in\n    tag_23:\n      mload(0x40)\n      tag_27\n      swap2\n      swap1\n      tag_28\n      jump\t// in\n    tag_27:\n      mload(0x40)\n      dup1\n      swap2\n      sub\n      swap1\n      return\n        /* \"contracts/Store.sol\":3096:3937  function purchase() external payable returns(uint) {... */\n    tag_5:\n      tag_29\n      tag_30\n      jump\t// in\n    tag_29:\n      mload(0x40)\n      tag_31\n      swap2\n      swap1\n      tag_28\n      jump\t// in\n    tag_31:\n      mload(0x40)\n      dup1\n      swap2\n      sub\n      swap1\n      return\n        /* \"contracts/Store.sol\":536:577  mapping(Product => uint) public priceList */\n    tag_6:\n      callvalue\n      dup1\n      iszero\n      tag_32\n      jumpi\n      0x00\n      dup1\n      revert\n    tag_32:\n      pop\n      tag_33\n      0x04\n      dup1\n      calldatasize\n      sub\n      dup2\n      add\n      swap1\n      tag_34\n      swap2\n      swap1\n      tag_25\n      jump\t// in\n    tag_34:\n      tag_35\n      jump\t// in\n    tag_33:\n      mload(0x40)\n      tag_36\n      swap2\n      swap1\n      tag_28\n      jump\t// in\n    tag_36:\n      mload(0x40)\n      dup1\n      swap2\n      sub\n      swap1\n      return\n        /* \"contracts/Store.sol\":140:160  address public owner */\n    tag_7:\n      callvalue\n      dup1\n      iszero\n      tag_37\n      jumpi\n      0x00\n      dup1\n      revert\n    tag_37:\n      pop\n      tag_38\n      tag_39\n      jump\t// in\n    tag_38:\n      mload(0x40)\n      tag_40\n      swap2\n      swap1\n      tag_41\n      jump\t// in\n    tag_40:\n      mload(0x40)\n      dup1\n      swap2\n      sub\n      swap1\n      return\n        /* \"contracts/Store.sol\":791:848  mapping(address => mapping(Product => uint)) public carts */\n    tag_8:\n      callvalue\n      dup1\n      iszero\n      tag_42\n      jumpi\n      0x00\n      dup1\n      revert\n    tag_42:\n      pop\n      tag_43\n      0x04\n      dup1\n      calldatasize\n      sub\n      dup2\n      add\n      swap1\n      tag_44\n      swap2\n      swap1\n      tag_45\n      jump\t// in\n    tag_44:\n      tag_46\n      jump\t// in\n    tag_43:\n      mload(0x40)\n      tag_47\n      swap2\n      swap1\n      tag_28\n      jump\t// in\n    tag_47:\n      mload(0x40)\n      dup1\n      swap2\n      sub\n      swap1\n      return\n        /* \"contracts/Store.sol\":496:530  string[3] public availableProducts */\n    tag_9:\n      callvalue\n      dup1\n      iszero\n      tag_48\n      jumpi\n      0x00\n      dup1\n      revert\n    tag_48:\n      pop\n      tag_49\n      0x04\n      dup1\n      calldatasize\n      sub\n      dup2\n      add\n      swap1\n      tag_50\n      swap2\n      swap1\n      tag_20\n      jump\t// in\n    tag_50:\n      tag_51\n      jump\t// in\n    tag_49:\n      mload(0x40)\n      tag_52\n      swap2\n      swap1\n      tag_53\n      jump\t// in\n    tag_52:\n      mload(0x40)\n      dup1\n      swap2\n      sub\n      swap1\n      return\n        /* \"contracts/Store.sol\":4371:4719  function confirmDelivered(uint id) external correctOrderId(id) {... */\n    tag_10:\n      callvalue\n      dup1\n      iszero\n      tag_54\n      jumpi\n      0x00\n      dup1\n      revert\n    tag_54:\n      pop\n      tag_55\n      0x04\n      dup1\n      calldatasize\n      sub\n      dup2\n      add\n      swap1\n      tag_56\n      swap2\n      swap1\n      tag_20\n      jump\t// in\n    tag_56:\n      tag_57\n      jump\t// in\n    tag_55:\n      stop\n        /* \"contracts/Store.sol\":1821:2291  function putProductIntoCart(Product _product, uint _quantity) external {... */\n    tag_16:\n        /* \"contracts/Store.sol\":1933:1942  _quantity */\n      dup1\n        /* \"contracts/Store.sol\":1902:1907  carts */\n      0x08\n        /* \"contracts/Store.sol\":1902:1919  carts[msg.sender] */\n      0x00\n        /* \"contracts/Store.sol\":1908:1918  msg.sender */\n      caller\n        /* \"contracts/Store.sol\":1902:1919  carts[msg.sender] */\n      0xffffffffffffffffffffffffffffffffffffffff\n      and\n      0xffffffffffffffffffffffffffffffffffffffff\n      and\n      dup2\n      mstore\n      0x20\n      add\n      swap1\n      dup2\n      mstore\n      0x20\n      add\n      0x00\n      keccak256\n        /* \"contracts/Store.sol\":1902:1929  carts[msg.sender][_product] */\n      0x00\n        /* \"contracts/Store.sol\":1920:1928  _product */\n      dup5\n        /* \"contracts/Store.sol\":1902:1929  carts[msg.sender][_product] */\n      0x02\n      dup2\n      gt\n      iszero\n      tag_59\n      jumpi\n      tag_60\n      tag_61\n      jump\t// in\n    tag_60:\n    tag_59:\n      0x02\n      dup2\n      gt\n      iszero\n      tag_62\n      jumpi\n      tag_63\n      tag_61\n      jump\t// in\n    tag_63:\n    tag_62:\n      dup2\n      mstore\n      0x20\n      add\n      swap1\n      dup2\n      mstore\n      0x20\n      add\n      0x00\n      keccak256\n      0x00\n        /* \"contracts/Store.sol\":1902:1942  carts[msg.sender][_product] += _quantity */\n      dup3\n      dup3\n      sload\n      tag_64\n      swap2\n      swap1\n      tag_65\n      jump\t// in\n    tag_64:\n      swap3\n      pop\n      pop\n      dup2\n      swap1\n      sstore\n      pop\n        /* \"contracts/Store.sol\":2094:2103  warehouse */\n      0x06\n        /* \"contracts/Store.sol\":2094:2113  warehouse[_product] */\n      0x00\n        /* \"contracts/Store.sol\":2104:2112  _product */\n      dup4\n        /* \"contracts/Store.sol\":2094:2113  warehouse[_product] */\n      0x02\n      dup2\n      gt\n      iszero\n      tag_66\n      jumpi\n      tag_67\n      tag_61\n      jump\t// in\n    tag_67:\n    tag_66:\n      0x02\n      dup2\n      gt\n      iszero\n      tag_68\n      jumpi\n      tag_69\n      tag_61\n      jump\t// in\n    tag_69:\n    tag_68:\n      dup2\n      mstore\n      0x20\n      add\n      swap1\n      dup2\n      mstore\n      0x20\n      add\n      0x00\n      keccak256\n      sload\n        /* \"contracts/Store.sol\":2064:2069  carts */\n      0x08\n        /* \"contracts/Store.sol\":2064:2081  carts[msg.sender] */\n      0x00\n        /* \"contracts/Store.sol\":2070:2080  msg.sender */\n      caller\n        /* \"contracts/Store.sol\":2064:2081  carts[msg.sender] */\n      0xffffffffffffffffffffffffffffffffffffffff\n      and\n      0xffffffffffffffffffffffffffffffffffffffff\n      and\n      dup2\n      mstore\n      0x20\n      add\n      swap1\n      dup2\n      mstore\n      0x20\n      add\n      0x00\n      keccak256\n        /* \"contracts/Store.sol\":2064:2091  carts[msg.sender][_product] */\n      0x00\n        /* \"contracts/Store.sol\":2082:2090  _product */\n      dup5\n        /* \"contracts/Store.sol\":2064:2091  carts[msg.sender][_product] */\n      0x02\n      dup2\n      gt\n      iszero\n      tag_70\n      jumpi\n      tag_71\n      tag_61\n      jump\t// in\n    tag_71:\n    tag_70:\n      0x02\n      dup2\n      gt\n      iszero\n      tag_72\n      jumpi\n      tag_73\n      tag_61\n      jump\t// in\n    tag_73:\n    tag_72:\n      dup2\n      mstore\n      0x20\n      add\n      swap1\n      dup2\n      mstore\n      0x20\n      add\n      0x00\n      keccak256\n      sload\n        /* \"contracts/Store.sol\":2064:2113  carts[msg.sender][_product] > warehouse[_product] */\n      gt\n        /* \"contracts/Store.sol\":2061:2285  if(carts[msg.sender][_product] > warehouse[_product]){... */\n      iszero\n      tag_74\n      jumpi\n        /* \"contracts/Store.sol\":2185:2194  warehouse */\n      0x06\n        /* \"contracts/Store.sol\":2185:2204  warehouse[_product] */\n      0x00\n        /* \"contracts/Store.sol\":2195:2203  _product */\n      dup4\n        /* \"contracts/Store.sol\":2185:2204  warehouse[_product] */\n      0x02\n      dup2\n      gt\n      iszero\n      tag_75\n      jumpi\n      tag_76\n      tag_61\n      jump\t// in\n    tag_76:\n    tag_75:\n      0x02\n      dup2\n      gt\n      iszero\n      tag_77\n      jumpi\n      tag_78\n      tag_61\n      jump\t// in\n    tag_78:\n    tag_77:\n      dup2\n      mstore\n      0x20\n      add\n      swap1\n      dup2\n      mstore\n      0x20\n      add\n      0x00\n      keccak256\n      sload\n        /* \"contracts/Store.sol\":2232:2237  carts */\n      0x08\n        /* \"contracts/Store.sol\":2232:2249  carts[msg.sender] */\n      0x00\n        /* \"contracts/Store.sol\":2238:2248  msg.sender */\n      caller\n        /* \"contracts/Store.sol\":2232:2249  carts[msg.sender] */\n      0xffffffffffffffffffffffffffffffffffffffff\n      and\n      0xffffffffffffffffffffffffffffffffffffffff\n      and\n      dup2\n      mstore\n      0x20\n      add\n      swap1\n      dup2\n      mstore\n      0x20\n      add\n      0x00\n      keccak256\n        /* \"contracts/Store.sol\":2232:2259  carts[msg.sender][_product] */\n      0x00\n        /* \"contracts/Store.sol\":2250:2258  _product */\n      dup5\n        /* \"contracts/Store.sol\":2232:2259  carts[msg.sender][_product] */\n      0x02\n      dup2\n      gt\n      iszero\n      tag_79\n      jumpi\n      tag_80\n      tag_61\n      jump\t// in\n    tag_80:\n    tag_79:\n      0x02\n      dup2\n      gt\n      iszero\n      tag_81\n      jumpi\n      tag_82\n      tag_61\n      jump\t// in\n    tag_82:\n    tag_81:\n      dup2\n      mstore\n      0x20\n      add\n      swap1\n      dup2\n      mstore\n      0x20\n      add\n      0x00\n      keccak256\n      sload\n        /* \"contracts/Store.sol\":2135:2274  InsufficientQuantity({... */\n      mload(0x40)\n      0x3d346c4700000000000000000000000000000000000000000000000000000000\n      dup2\n      mstore\n      0x04\n      add\n      tag_83\n      swap3\n      swap2\n      swap1\n      tag_84\n      jump\t// in\n    tag_83:\n      mload(0x40)\n      dup1\n      swap2\n      sub\n      swap1\n      revert\n        /* \"contracts/Store.sol\":2061:2285  if(carts[msg.sender][_product] > warehouse[_product]){... */\n    tag_74:\n        /* \"contracts/Store.sol\":1821:2291  function putProductIntoCart(Product _product, uint _quantity) external {... */\n      pop\n      pop\n      jump\t// out\n        /* \"contracts/Store.sol\":3943:4365  function cancelOrder(uint id) external correctOrderId(id) {... */\n    tag_21:\n        /* \"contracts/Store.sol\":3997:3999  id */\n      dup1\n        /* \"contracts/Store.sol\":1386:1399  latestOrderId */\n      sload(0x01)\n        /* \"contracts/Store.sol\":1380:1382  id */\n      dup2\n        /* \"contracts/Store.sol\":1380:1399  id <= latestOrderId */\n      gt\n      iszero\n        /* \"contracts/Store.sol\":1372:1441  require(id <= latestOrderId, \"Order with this ID is not created yet\") */\n      tag_86\n      jumpi\n      mload(0x40)\n      0x08c379a000000000000000000000000000000000000000000000000000000000\n      dup2\n      mstore\n      0x04\n      add\n      tag_87\n      swap1\n      tag_88\n      jump\t// in\n    tag_87:\n      mload(0x40)\n      dup1\n      swap2\n      sub\n      swap1\n      revert\n    tag_86:\n        /* \"contracts/Store.sol\":4011:4040  order storage cancellingOrder */\n      0x00\n        /* \"contracts/Store.sol\":4043:4049  orders */\n      0x07\n        /* \"contracts/Store.sol\":4043:4053  orders[id] */\n      0x00\n        /* \"contracts/Store.sol\":4050:4052  id */\n      dup5\n        /* \"contracts/Store.sol\":4043:4053  orders[id] */\n      dup2\n      mstore\n      0x20\n      add\n      swap1\n      dup2\n      mstore\n      0x20\n      add\n      0x00\n      keccak256\n        /* \"contracts/Store.sol\":4011:4053  order storage cancellingOrder = orders[id] */\n      swap1\n      pop\n        /* \"contracts/Store.sol\":4097:4119  OrderStatus.Delivering */\n      0x00\n        /* \"contracts/Store.sol\":4071:4119  cancellingOrder.status == OrderStatus.Delivering */\n      0x02\n      dup2\n      gt\n      iszero\n      tag_90\n      jumpi\n      tag_91\n      tag_61\n      jump\t// in\n    tag_91:\n    tag_90:\n        /* \"contracts/Store.sol\":4071:4086  cancellingOrder */\n      dup2\n        /* \"contracts/Store.sol\":4071:4093  cancellingOrder.status */\n      0x03\n      add\n      0x00\n      swap1\n      sload\n      swap1\n      0x0100\n      exp\n      swap1\n      div\n      0xff\n      and\n        /* \"contracts/Store.sol\":4071:4119  cancellingOrder.status == OrderStatus.Delivering */\n      0x02\n      dup2\n      gt\n      iszero\n      tag_92\n      jumpi\n      tag_93\n      tag_61\n      jump\t// in\n    tag_93:\n    tag_92:\n      eq\n        /* \"contracts/Store.sol\":4063:4170  require(cancellingOrder.status == OrderStatus.Delivering, \"Order is either already cancelled or delivered\") */\n      tag_94\n      jumpi\n      mload(0x40)\n      0x08c379a000000000000000000000000000000000000000000000000000000000\n      dup2\n      mstore\n      0x04\n      add\n      tag_95\n      swap1\n      tag_96\n      jump\t// in\n    tag_95:\n      mload(0x40)\n      dup1\n      swap2\n      sub\n      swap1\n      revert\n    tag_94:\n        /* \"contracts/Store.sol\":4181:4212  returnProducts(cancellingOrder) */\n      tag_97\n        /* \"contracts/Store.sol\":4196:4211  cancellingOrder */\n      dup2\n        /* \"contracts/Store.sol\":4181:4195  returnProducts */\n      tag_98\n        /* \"contracts/Store.sol\":4181:4212  returnProducts(cancellingOrder) */\n      jump\t// in\n    tag_97:\n        /* \"contracts/Store.sol\":4230:4245  cancellingOrder */\n      dup1\n        /* \"contracts/Store.sol\":4230:4254  cancellingOrder.customer */\n      0x01\n      add\n      0x00\n      swap1\n      sload\n      swap1\n      0x0100\n      exp\n      swap1\n      div\n      0xffffffffffffffffffffffffffffffffffffffff\n      and\n        /* \"contracts/Store.sol\":4222:4264  payable(cancellingOrder.customer).transfer */\n      0xffffffffffffffffffffffffffffffffffffffff\n      and\n        /* \"contracts/Store.sol\":4222:4287  payable(cancellingOrder.customer).transfer(cancellingOrder.price) */\n      0x08fc\n        /* \"contracts/Store.sol\":4265:4280  cancellingOrder */\n      dup3\n        /* \"contracts/Store.sol\":4265:4286  cancellingOrder.price */\n      0x00\n      add\n      sload\n        /* \"contracts/Store.sol\":4222:4287  payable(cancellingOrder.customer).transfer(cancellingOrder.price) */\n      swap1\n      dup2\n      iszero\n      mul\n      swap1\n      mload(0x40)\n      0x00\n      mload(0x40)\n      dup1\n      dup4\n      sub\n      dup2\n      dup6\n      dup9\n      dup9\n      call\n      swap4\n      pop\n      pop\n      pop\n      pop\n      iszero\n      dup1\n      iszero\n      tag_100\n      jumpi\n      returndatasize\n      0x00\n      dup1\n      returndatacopy\n      revert(0x00, returndatasize)\n    tag_100:\n      pop\n        /* \"contracts/Store.sol\":4338:4358  OrderStatus.Canceled */\n      0x02\n        /* \"contracts/Store.sol\":4313:4328  cancellingOrder */\n      dup2\n        /* \"contracts/Store.sol\":4313:4335  cancellingOrder.status */\n      0x03\n      add\n      0x00\n        /* \"contracts/Store.sol\":4313:4358  cancellingOrder.status = OrderStatus.Canceled */\n      0x0100\n      exp\n      dup2\n      sload\n      dup2\n      0xff\n      mul\n      not\n      and\n      swap1\n      dup4\n      0x02\n      dup2\n      gt\n      iszero\n      tag_101\n      jumpi\n      tag_102\n      tag_61\n      jump\t// in\n    tag_102:\n    tag_101:\n      mul\n      or\n      swap1\n      sstore\n      pop\n        /* \"contracts/Store.sol\":4001:4365  {... */\n      pop\n        /* \"contracts/Store.sol\":3943:4365  function cancelOrder(uint id) external correctOrderId(id) {... */\n      pop\n      pop\n      jump\t// out\n        /* \"contracts/Store.sol\":612:653  mapping(Product => uint) public warehouse */\n    tag_26:\n      mstore(0x20, 0x06)\n      dup1\n      0x00\n      mstore\n      keccak256(0x00, 0x40)\n      0x00\n      swap2\n      pop\n      swap1\n      pop\n      sload\n      dup2\n      jump\t// out\n        /* \"contracts/Store.sol\":3096:3937  function purchase() external payable returns(uint) {... */\n    tag_30:\n        /* \"contracts/Store.sol\":3141:3145  uint */\n      0x00\n        /* \"contracts/Store.sol\":3157:3173  address customer */\n      dup1\n        /* \"contracts/Store.sol\":3176:3186  msg.sender */\n      caller\n        /* \"contracts/Store.sol\":3157:3186  address customer = msg.sender */\n      swap1\n      pop\n        /* \"contracts/Store.sol\":3196:3233  mapping(Product => uint) storage cart */\n      0x00\n        /* \"contracts/Store.sol\":3236:3241  carts */\n      0x08\n        /* \"contracts/Store.sol\":3236:3251  carts[customer] */\n      0x00\n        /* \"contracts/Store.sol\":3242:3250  customer */\n      dup4\n        /* \"contracts/Store.sol\":3236:3251  carts[customer] */\n      0xffffffffffffffffffffffffffffffffffffffff\n      and\n      0xffffffffffffffffffffffffffffffffffffffff\n      and\n      dup2\n      mstore\n      0x20\n      add\n      swap1\n      dup2\n      mstore\n      0x20\n      add\n      0x00\n      keccak256\n        /* \"contracts/Store.sol\":3196:3251  mapping(Product => uint) storage cart = carts[customer] */\n      swap1\n      pop\n        /* \"contracts/Store.sol\":3261:3275  uint cartPrice */\n      0x00\n        /* \"contracts/Store.sol\":3278:3302  calculateCartPrice(cart) */\n      tag_104\n        /* \"contracts/Store.sol\":3297:3301  cart */\n      dup3\n        /* \"contracts/Store.sol\":3278:3296  calculateCartPrice */\n      tag_105\n        /* \"contracts/Store.sol\":3278:3302  calculateCartPrice(cart) */\n      jump\t// in\n    tag_104:\n        /* \"contracts/Store.sol\":3261:3302  uint cartPrice = calculateCartPrice(cart) */\n      swap1\n      pop\n        /* \"contracts/Store.sol\":3313:3326  latestOrderId */\n      0x01\n      0x00\n        /* \"contracts/Store.sol\":3313:3328  latestOrderId++ */\n      dup2\n      sload\n      dup1\n      swap3\n      swap2\n      swap1\n      tag_106\n      swap1\n      tag_107\n      jump\t// in\n    tag_106:\n      swap2\n      swap1\n      pop\n      sstore\n      pop\n        /* \"contracts/Store.sol\":3338:3360  order storage newOrder */\n      0x00\n        /* \"contracts/Store.sol\":3363:3369  orders */\n      0x07\n        /* \"contracts/Store.sol\":3363:3384  orders[latestOrderId] */\n      0x00\n        /* \"contracts/Store.sol\":3370:3383  latestOrderId */\n      sload(0x01)\n        /* \"contracts/Store.sol\":3363:3384  orders[latestOrderId] */\n      dup2\n      mstore\n      0x20\n      add\n      swap1\n      dup2\n      mstore\n      0x20\n      add\n      0x00\n      keccak256\n        /* \"contracts/Store.sol\":3338:3384  order storage newOrder = orders[latestOrderId] */\n      swap1\n      pop\n        /* \"contracts/Store.sol\":3411:3420  cartPrice */\n      dup2\n        /* \"contracts/Store.sol\":3394:3402  newOrder */\n      dup2\n        /* \"contracts/Store.sol\":3394:3408  newOrder.price */\n      0x00\n      add\n        /* \"contracts/Store.sol\":3394:3420  newOrder.price = cartPrice */\n      dup2\n      swap1\n      sstore\n      pop\n        /* \"contracts/Store.sol\":3450:3458  customer */\n      dup4\n        /* \"contracts/Store.sol\":3430:3438  newOrder */\n      dup2\n        /* \"contracts/Store.sol\":3430:3447  newOrder.customer */\n      0x01\n      add\n      0x00\n        /* \"contracts/Store.sol\":3430:3458  newOrder.customer = customer */\n      0x0100\n      exp\n      dup2\n      sload\n      dup2\n      0xffffffffffffffffffffffffffffffffffffffff\n      mul\n      not\n      and\n      swap1\n      dup4\n      0xffffffffffffffffffffffffffffffffffffffff\n      and\n      mul\n      or\n      swap1\n      sstore\n      pop\n        /* \"contracts/Store.sol\":3508:3512  cart */\n      dup3\n        /* \"contracts/Store.sol\":3508:3532  cart[Product.Greenfield] */\n      0x00\n        /* \"contracts/Store.sol\":3513:3531  Product.Greenfield */\n      dup1\n        /* \"contracts/Store.sol\":3508:3532  cart[Product.Greenfield] */\n      0x02\n      dup2\n      gt\n      iszero\n      tag_108\n      jumpi\n      tag_109\n      tag_61\n      jump\t// in\n    tag_109:\n    tag_108:\n      0x02\n      dup2\n      gt\n      iszero\n      tag_110\n      jumpi\n      tag_111\n      tag_61\n      jump\t// in\n    tag_111:\n    tag_110:\n      dup2\n      mstore\n      0x20\n      add\n      swap1\n      dup2\n      mstore\n      0x20\n      add\n      0x00\n      keccak256\n      sload\n        /* \"contracts/Store.sol\":3468:3476  newOrder */\n      dup2\n        /* \"contracts/Store.sol\":3468:3485  newOrder.contents */\n      0x02\n      add\n        /* \"contracts/Store.sol\":3468:3505  newOrder.contents[Product.Greenfield] */\n      0x00\n        /* \"contracts/Store.sol\":3486:3504  Product.Greenfield */\n      dup1\n        /* \"contracts/Store.sol\":3468:3505  newOrder.contents[Product.Greenfield] */\n      0x02\n      dup2\n      gt\n      iszero\n      tag_112\n      jumpi\n      tag_113\n      tag_61\n      jump\t// in\n    tag_113:\n    tag_112:\n      0x02\n      dup2\n      gt\n      iszero\n      tag_114\n      jumpi\n      tag_115\n      tag_61\n      jump\t// in\n    tag_115:\n    tag_114:\n      dup2\n      mstore\n      0x20\n      add\n      swap1\n      dup2\n      mstore\n      0x20\n      add\n      0x00\n      keccak256\n        /* \"contracts/Store.sol\":3468:3532  newOrder.contents[Product.Greenfield] = cart[Product.Greenfield] */\n      dup2\n      swap1\n      sstore\n      pop\n        /* \"contracts/Store.sol\":3578:3582  cart */\n      dup3\n        /* \"contracts/Store.sol\":3578:3598  cart[Product.Lipton] */\n      0x00\n        /* \"contracts/Store.sol\":3583:3597  Product.Lipton */\n      0x01\n        /* \"contracts/Store.sol\":3578:3598  cart[Product.Lipton] */\n      0x02\n      dup2\n      gt\n      iszero\n      tag_116\n      jumpi\n      tag_117\n      tag_61\n      jump\t// in\n    tag_117:\n    tag_116:\n      0x02\n      dup2\n      gt\n      iszero\n      tag_118\n      jumpi\n      tag_119\n      tag_61\n      jump\t// in\n    tag_119:\n    tag_118:\n      dup2\n      mstore\n      0x20\n      add\n      swap1\n      dup2\n      mstore\n      0x20\n      add\n      0x00\n      keccak256\n      sload\n        /* \"contracts/Store.sol\":3542:3550  newOrder */\n      dup2\n        /* \"contracts/Store.sol\":3542:3559  newOrder.contents */\n      0x02\n      add\n        /* \"contracts/Store.sol\":3542:3575  newOrder.contents[Product.Lipton] */\n      0x00\n        /* \"contracts/Store.sol\":3560:3574  Product.Lipton */\n      0x01\n        /* \"contracts/Store.sol\":3542:3575  newOrder.contents[Product.Lipton] */\n      0x02\n      dup2\n      gt\n      iszero\n      tag_120\n      jumpi\n      tag_121\n      tag_61\n      jump\t// in\n    tag_121:\n    tag_120:\n      0x02\n      dup2\n      gt\n      iszero\n      tag_122\n      jumpi\n      tag_123\n      tag_61\n      jump\t// in\n    tag_123:\n    tag_122:\n      dup2\n      mstore\n      0x20\n      add\n      swap1\n      dup2\n      mstore\n      0x20\n      add\n      0x00\n      keccak256\n        /* \"contracts/Store.sol\":3542:3598  newOrder.contents[Product.Lipton] = cart[Product.Lipton] */\n      dup2\n      swap1\n      sstore\n      pop\n        /* \"contracts/Store.sol\":3642:3646  cart */\n      dup3\n        /* \"contracts/Store.sol\":3642:3660  cart[Product.Java] */\n      0x00\n        /* \"contracts/Store.sol\":3647:3659  Product.Java */\n      0x02\n        /* \"contracts/Store.sol\":3642:3660  cart[Product.Java] */\n      dup1\n      dup2\n      gt\n      iszero\n      tag_124\n      jumpi\n      tag_125\n      tag_61\n      jump\t// in\n    tag_125:\n    tag_124:\n      0x02\n      dup2\n      gt\n      iszero\n      tag_126\n      jumpi\n      tag_127\n      tag_61\n      jump\t// in\n    tag_127:\n    tag_126:\n      dup2\n      mstore\n      0x20\n      add\n      swap1\n      dup2\n      mstore\n      0x20\n      add\n      0x00\n      keccak256\n      sload\n        /* \"contracts/Store.sol\":3608:3616  newOrder */\n      dup2\n        /* \"contracts/Store.sol\":3608:3625  newOrder.contents */\n      0x02\n      add\n        /* \"contracts/Store.sol\":3608:3639  newOrder.contents[Product.Java] */\n      0x00\n        /* \"contracts/Store.sol\":3626:3638  Product.Java */\n      0x02\n        /* \"contracts/Store.sol\":3608:3639  newOrder.contents[Product.Java] */\n      dup1\n      dup2\n      gt\n      iszero\n      tag_128\n      jumpi\n      tag_129\n      tag_61\n      jump\t// in\n    tag_129:\n    tag_128:\n      0x02\n      dup2\n      gt\n      iszero\n      tag_130\n      jumpi\n      tag_131\n      tag_61\n      jump\t// in\n    tag_131:\n    tag_130:\n      dup2\n      mstore\n      0x20\n      add\n      swap1\n      dup2\n      mstore\n      0x20\n      add\n      0x00\n      keccak256\n        /* \"contracts/Store.sol\":3608:3660  newOrder.contents[Product.Java] = cart[Product.Java] */\n      dup2\n      swap1\n      sstore\n      pop\n        /* \"contracts/Store.sol\":3688:3710  OrderStatus.Delivering */\n      0x00\n        /* \"contracts/Store.sol\":3670:3678  newOrder */\n      dup2\n        /* \"contracts/Store.sol\":3670:3685  newOrder.status */\n      0x03\n      add\n      0x00\n        /* \"contracts/Store.sol\":3670:3710  newOrder.status = OrderStatus.Delivering */\n      0x0100\n      exp\n      dup2\n      sload\n      dup2\n      0xff\n      mul\n      not\n      and\n      swap1\n      dup4\n      0x02\n      dup2\n      gt\n      iszero\n      tag_132\n      jumpi\n      tag_133\n      tag_61\n      jump\t// in\n    tag_133:\n    tag_132:\n      mul\n      or\n      swap1\n      sstore\n      pop\n        /* \"contracts/Store.sol\":3721:3736  clearCart(cart) */\n      tag_134\n        /* \"contracts/Store.sol\":3731:3735  cart */\n      dup4\n        /* \"contracts/Store.sol\":3721:3730  clearCart */\n      tag_135\n        /* \"contracts/Store.sol\":3721:3736  clearCart(cart) */\n      jump\t// in\n    tag_134:\n        /* \"contracts/Store.sol\":3746:3771  reserveProducts(newOrder) */\n      tag_136\n        /* \"contracts/Store.sol\":3762:3770  newOrder */\n      dup2\n        /* \"contracts/Store.sol\":3746:3761  reserveProducts */\n      tag_137\n        /* \"contracts/Store.sol\":3746:3771  reserveProducts(newOrder) */\n      jump\t// in\n    tag_136:\n        /* \"contracts/Store.sol\":3803:3812  cartPrice */\n      dup2\n        /* \"contracts/Store.sol\":3790:3799  msg.value */\n      callvalue\n        /* \"contracts/Store.sol\":3790:3812  msg.value >= cartPrice */\n      lt\n      iszero\n        /* \"contracts/Store.sol\":3782:3838  require(msg.value >= cartPrice, \"Not enough money sent\") */\n      tag_138\n      jumpi\n      mload(0x40)\n      0x08c379a000000000000000000000000000000000000000000000000000000000\n      dup2\n      mstore\n      0x04\n      add\n      tag_139\n      swap1\n      tag_140\n      jump\t// in\n    tag_139:\n      mload(0x40)\n      dup1\n      swap2\n      sub\n      swap1\n      revert\n    tag_138:\n        /* \"contracts/Store.sol\":3856:3866  msg.sender */\n      caller\n        /* \"contracts/Store.sol\":3848:3876  payable(msg.sender).transfer */\n      0xffffffffffffffffffffffffffffffffffffffff\n      and\n        /* \"contracts/Store.sol\":3848:3899  payable(msg.sender).transfer(msg.value - cartPrice) */\n      0x08fc\n        /* \"contracts/Store.sol\":3889:3898  cartPrice */\n      dup4\n        /* \"contracts/Store.sol\":3877:3886  msg.value */\n      callvalue\n        /* \"contracts/Store.sol\":3877:3898  msg.value - cartPrice */\n      tag_141\n      swap2\n      swap1\n      tag_142\n      jump\t// in\n    tag_141:\n        /* \"contracts/Store.sol\":3848:3899  payable(msg.sender).transfer(msg.value - cartPrice) */\n      swap1\n      dup2\n      iszero\n      mul\n      swap1\n      mload(0x40)\n      0x00\n      mload(0x40)\n      dup1\n      dup4\n      sub\n      dup2\n      dup6\n      dup9\n      dup9\n      call\n      swap4\n      pop\n      pop\n      pop\n      pop\n      iszero\n      dup1\n      iszero\n      tag_144\n      jumpi\n      returndatasize\n      0x00\n      dup1\n      returndatacopy\n      revert(0x00, returndatasize)\n    tag_144:\n      pop\n        /* \"contracts/Store.sol\":3917:3930  latestOrderId */\n      sload(0x01)\n        /* \"contracts/Store.sol\":3910:3930  return latestOrderId */\n      swap5\n      pop\n      pop\n      pop\n      pop\n      pop\n        /* \"contracts/Store.sol\":3096:3937  function purchase() external payable returns(uint) {... */\n      swap1\n      jump\t// out\n        /* \"contracts/Store.sol\":536:577  mapping(Product => uint) public priceList */\n    tag_35:\n      mstore(0x20, 0x05)\n      dup1\n      0x00\n      mstore\n      keccak256(0x00, 0x40)\n      0x00\n      swap2\n      pop\n      swap1\n      pop\n      sload\n      dup2\n      jump\t// out\n        /* \"contracts/Store.sol\":140:160  address public owner */\n    tag_39:\n      0x00\n      dup1\n      sload\n      swap1\n      0x0100\n      exp\n      swap1\n      div\n      0xffffffffffffffffffffffffffffffffffffffff\n      and\n      dup2\n      jump\t// out\n        /* \"contracts/Store.sol\":791:848  mapping(address => mapping(Product => uint)) public carts */\n    tag_46:\n      mstore(0x20, 0x08)\n      dup2\n      0x00\n      mstore\n      mstore(0x20, keccak256(0x00, 0x40))\n      dup1\n      0x00\n      mstore\n      keccak256(0x00, 0x40)\n      0x00\n      swap2\n      pop\n      swap2\n      pop\n      pop\n      sload\n      dup2\n      jump\t// out\n        /* \"contracts/Store.sol\":496:530  string[3] public availableProducts */\n    tag_51:\n      0x02\n      dup2\n      0x03\n      dup2\n      lt\n      tag_145\n      jumpi\n      0x00\n      dup1\n      revert\n    tag_145:\n      add\n      0x00\n      swap2\n      pop\n      swap1\n      pop\n      dup1\n      sload\n      tag_147\n      swap1\n      tag_148\n      jump\t// in\n    tag_147:\n      dup1\n      0x1f\n      add\n      0x20\n      dup1\n      swap2\n      div\n      mul\n      0x20\n      add\n      mload(0x40)\n      swap1\n      dup2\n      add\n      0x40\n      mstore\n      dup1\n      swap3\n      swap2\n      swap1\n      dup2\n      dup2\n      mstore\n      0x20\n      add\n      dup3\n      dup1\n      sload\n      tag_149\n      swap1\n      tag_148\n      jump\t// in\n    tag_149:\n      dup1\n      iszero\n      tag_150\n      jumpi\n      dup1\n      0x1f\n      lt\n      tag_151\n      jumpi\n      0x0100\n      dup1\n      dup4\n      sload\n      div\n      mul\n      dup4\n      mstore\n      swap2\n      0x20\n      add\n      swap2\n      jump(tag_150)\n    tag_151:\n      dup3\n      add\n      swap2\n      swap1\n      0x00\n      mstore\n      keccak256(0x00, 0x20)\n      swap1\n    tag_152:\n      dup2\n      sload\n      dup2\n      mstore\n      swap1\n      0x01\n      add\n      swap1\n      0x20\n      add\n      dup1\n      dup4\n      gt\n      tag_152\n      jumpi\n      dup3\n      swap1\n      sub\n      0x1f\n      and\n      dup3\n      add\n      swap2\n    tag_150:\n      pop\n      pop\n      pop\n      pop\n      pop\n      dup2\n      jump\t// out\n        /* \"contracts/Store.sol\":4371:4719  function confirmDelivered(uint id) external correctOrderId(id) {... */\n    tag_57:\n        /* \"contracts/Store.sol\":4430:4432  id */\n      dup1\n        /* \"contracts/Store.sol\":1386:1399  latestOrderId */\n      sload(0x01)\n        /* \"contracts/Store.sol\":1380:1382  id */\n      dup2\n        /* \"contracts/Store.sol\":1380:1399  id <= latestOrderId */\n      gt\n      iszero\n        /* \"contracts/Store.sol\":1372:1441  require(id <= latestOrderId, \"Order with this ID is not created yet\") */\n      tag_154\n      jumpi\n      mload(0x40)\n      0x08c379a000000000000000000000000000000000000000000000000000000000\n      dup2\n      mstore\n      0x04\n      add\n      tag_155\n      swap1\n      tag_88\n      jump\t// in\n    tag_155:\n      mload(0x40)\n      dup1\n      swap2\n      sub\n      swap1\n      revert\n    tag_154:\n        /* \"contracts/Store.sol\":4444:4472  order storage deliveredOrder */\n      0x00\n        /* \"contracts/Store.sol\":4475:4481  orders */\n      0x07\n        /* \"contracts/Store.sol\":4475:4485  orders[id] */\n      0x00\n        /* \"contracts/Store.sol\":4482:4484  id */\n      dup5\n        /* \"contracts/Store.sol\":4475:4485  orders[id] */\n      dup2\n      mstore\n      0x20\n      add\n      swap1\n      dup2\n      mstore\n      0x20\n      add\n      0x00\n      keccak256\n        /* \"contracts/Store.sol\":4444:4485  order storage deliveredOrder = orders[id] */\n      swap1\n      pop\n        /* \"contracts/Store.sol\":4528:4550  OrderStatus.Delivering */\n      0x00\n        /* \"contracts/Store.sol\":4503:4550  deliveredOrder.status == OrderStatus.Delivering */\n      0x02\n      dup2\n      gt\n      iszero\n      tag_157\n      jumpi\n      tag_158\n      tag_61\n      jump\t// in\n    tag_158:\n    tag_157:\n        /* \"contracts/Store.sol\":4503:4517  deliveredOrder */\n      dup2\n        /* \"contracts/Store.sol\":4503:4524  deliveredOrder.status */\n      0x03\n      add\n      0x00\n      swap1\n      sload\n      swap1\n      0x0100\n      exp\n      swap1\n      div\n      0xff\n      and\n        /* \"contracts/Store.sol\":4503:4550  deliveredOrder.status == OrderStatus.Delivering */\n      0x02\n      dup2\n      gt\n      iszero\n      tag_159\n      jumpi\n      tag_160\n      tag_61\n      jump\t// in\n    tag_160:\n    tag_159:\n      eq\n        /* \"contracts/Store.sol\":4495:4601  require(deliveredOrder.status == OrderStatus.Delivering, \"Order is either already cancelled or delivered\") */\n      tag_161\n      jumpi\n      mload(0x40)\n      0x08c379a000000000000000000000000000000000000000000000000000000000\n      dup2\n      mstore\n      0x04\n      add\n      tag_162\n      swap1\n      tag_96\n      jump\t// in\n    tag_162:\n      mload(0x40)\n      dup1\n      swap2\n      sub\n      swap1\n      revert\n    tag_161:\n        /* \"contracts/Store.sol\":4636:4657  OrderStatus.Delivered */\n      0x01\n        /* \"contracts/Store.sol\":4612:4626  deliveredOrder */\n      dup2\n        /* \"contracts/Store.sol\":4612:4633  deliveredOrder.status */\n      0x03\n      add\n      0x00\n        /* \"contracts/Store.sol\":4612:4657  deliveredOrder.status = OrderStatus.Delivered */\n      0x0100\n      exp\n      dup2\n      sload\n      dup2\n      0xff\n      mul\n      not\n      and\n      swap1\n      dup4\n      0x02\n      dup2\n      gt\n      iszero\n      tag_163\n      jumpi\n      tag_164\n      tag_61\n      jump\t// in\n    tag_164:\n    tag_163:\n      mul\n      or\n      swap1\n      sstore\n      pop\n        /* \"contracts/Store.sol\":4675:4680  owner */\n      0x00\n      dup1\n      sload\n      swap1\n      0x0100\n      exp\n      swap1\n      div\n      0xffffffffffffffffffffffffffffffffffffffff\n      and\n        /* \"contracts/Store.sol\":4667:4690  payable(owner).transfer */\n      0xffffffffffffffffffffffffffffffffffffffff\n      and\n        /* \"contracts/Store.sol\":4667:4712  payable(owner).transfer(deliveredOrder.price) */\n      0x08fc\n        /* \"contracts/Store.sol\":4691:4705  deliveredOrder */\n      dup3\n        /* \"contracts/Store.sol\":4691:4711  deliveredOrder.price */\n      0x00\n      add\n      sload\n        /* \"contracts/Store.sol\":4667:4712  payable(owner).transfer(deliveredOrder.price) */\n      swap1\n      dup2\n      iszero\n      mul\n      swap1\n      mload(0x40)\n      0x00\n      mload(0x40)\n      dup1\n      dup4\n      sub\n      dup2\n      dup6\n      dup9\n      dup9\n      call\n      swap4\n      pop\n      pop\n      pop\n      pop\n      iszero\n      dup1\n      iszero\n      tag_166\n      jumpi\n      returndatasize\n      0x00\n      dup1\n      returndatacopy\n      revert(0x00, returndatasize)\n    tag_166:\n      pop\n        /* \"contracts/Store.sol\":4434:4719  {... */\n      pop\n        /* \"contracts/Store.sol\":4371:4719  function confirmDelivered(uint id) external correctOrderId(id) {... */\n      pop\n      pop\n      jump\t// out\n        /* \"contracts/Store.sol\":2778:3064  function returnProducts(order storage _order) internal {... */\n    tag_98:\n        /* \"contracts/Store.sol\":2876:2882  _order */\n      dup1\n        /* \"contracts/Store.sol\":2876:2891  _order.contents */\n      0x02\n      add\n        /* \"contracts/Store.sol\":2876:2911  _order.contents[Product.Greenfield] */\n      0x00\n        /* \"contracts/Store.sol\":2892:2910  Product.Greenfield */\n      dup1\n        /* \"contracts/Store.sol\":2876:2911  _order.contents[Product.Greenfield] */\n      0x02\n      dup2\n      gt\n      iszero\n      tag_168\n      jumpi\n      tag_169\n      tag_61\n      jump\t// in\n    tag_169:\n    tag_168:\n      0x02\n      dup2\n      gt\n      iszero\n      tag_170\n      jumpi\n      tag_171\n      tag_61\n      jump\t// in\n    tag_171:\n    tag_170:\n      dup2\n      mstore\n      0x20\n      add\n      swap1\n      dup2\n      mstore\n      0x20\n      add\n      0x00\n      keccak256\n      sload\n        /* \"contracts/Store.sol\":2843:2852  warehouse */\n      0x06\n        /* \"contracts/Store.sol\":2843:2872  warehouse[Product.Greenfield] */\n      0x00\n        /* \"contracts/Store.sol\":2853:2871  Product.Greenfield */\n      dup1\n        /* \"contracts/Store.sol\":2843:2872  warehouse[Product.Greenfield] */\n      0x02\n      dup2\n      gt\n      iszero\n      tag_172\n      jumpi\n      tag_173\n      tag_61\n      jump\t// in\n    tag_173:\n    tag_172:\n      0x02\n      dup2\n      gt\n      iszero\n      tag_174\n      jumpi\n      tag_175\n      tag_61\n      jump\t// in\n    tag_175:\n    tag_174:\n      dup2\n      mstore\n      0x20\n      add\n      swap1\n      dup2\n      mstore\n      0x20\n      add\n      0x00\n      keccak256\n      0x00\n        /* \"contracts/Store.sol\":2843:2911  warehouse[Product.Greenfield] += _order.contents[Product.Greenfield] */\n      dup3\n      dup3\n      sload\n      tag_176\n      swap2\n      swap1\n      tag_65\n      jump\t// in\n    tag_176:\n      swap3\n      pop\n      pop\n      dup2\n      swap1\n      sstore\n      pop\n        /* \"contracts/Store.sol\":2950:2956  _order */\n      dup1\n        /* \"contracts/Store.sol\":2950:2965  _order.contents */\n      0x02\n      add\n        /* \"contracts/Store.sol\":2950:2985  _order.contents[Product.Greenfield] */\n      0x00\n        /* \"contracts/Store.sol\":2966:2984  Product.Greenfield */\n      dup1\n        /* \"contracts/Store.sol\":2950:2985  _order.contents[Product.Greenfield] */\n      0x02\n      dup2\n      gt\n      iszero\n      tag_177\n      jumpi\n      tag_178\n      tag_61\n      jump\t// in\n    tag_178:\n    tag_177:\n      0x02\n      dup2\n      gt\n      iszero\n      tag_179\n      jumpi\n      tag_180\n      tag_61\n      jump\t// in\n    tag_180:\n    tag_179:\n      dup2\n      mstore\n      0x20\n      add\n      swap1\n      dup2\n      mstore\n      0x20\n      add\n      0x00\n      keccak256\n      sload\n        /* \"contracts/Store.sol\":2921:2930  warehouse */\n      0x06\n        /* \"contracts/Store.sol\":2921:2946  warehouse[Product.Lipton] */\n      0x00\n        /* \"contracts/Store.sol\":2931:2945  Product.Lipton */\n      0x01\n        /* \"contracts/Store.sol\":2921:2946  warehouse[Product.Lipton] */\n      0x02\n      dup2\n      gt\n      iszero\n      tag_181\n      jumpi\n      tag_182\n      tag_61\n      jump\t// in\n    tag_182:\n    tag_181:\n      0x02\n      dup2\n      gt\n      iszero\n      tag_183\n      jumpi\n      tag_184\n      tag_61\n      jump\t// in\n    tag_184:\n    tag_183:\n      dup2\n      mstore\n      0x20\n      add\n      swap1\n      dup2\n      mstore\n      0x20\n      add\n      0x00\n      keccak256\n      0x00\n        /* \"contracts/Store.sol\":2921:2985  warehouse[Product.Lipton] += _order.contents[Product.Greenfield] */\n      dup3\n      dup3\n      sload\n      tag_185\n      swap2\n      swap1\n      tag_65\n      jump\t// in\n    tag_185:\n      swap3\n      pop\n      pop\n      dup2\n      swap1\n      sstore\n      pop\n        /* \"contracts/Store.sol\":3022:3028  _order */\n      dup1\n        /* \"contracts/Store.sol\":3022:3037  _order.contents */\n      0x02\n      add\n        /* \"contracts/Store.sol\":3022:3057  _order.contents[Product.Greenfield] */\n      0x00\n        /* \"contracts/Store.sol\":3038:3056  Product.Greenfield */\n      dup1\n        /* \"contracts/Store.sol\":3022:3057  _order.contents[Product.Greenfield] */\n      0x02\n      dup2\n      gt\n      iszero\n      tag_186\n      jumpi\n      tag_187\n      tag_61\n      jump\t// in\n    tag_187:\n    tag_186:\n      0x02\n      dup2\n      gt\n      iszero\n      tag_188\n      jumpi\n      tag_189\n      tag_61\n      jump\t// in\n    tag_189:\n    tag_188:\n      dup2\n      mstore\n      0x20\n      add\n      swap1\n      dup2\n      mstore\n      0x20\n      add\n      0x00\n      keccak256\n      sload\n        /* \"contracts/Store.sol\":2995:3004  warehouse */\n      0x06\n        /* \"contracts/Store.sol\":2995:3018  warehouse[Product.Java] */\n      0x00\n        /* \"contracts/Store.sol\":3005:3017  Product.Java */\n      0x02\n        /* \"contracts/Store.sol\":2995:3018  warehouse[Product.Java] */\n      dup1\n      dup2\n      gt\n      iszero\n      tag_190\n      jumpi\n      tag_191\n      tag_61\n      jump\t// in\n    tag_191:\n    tag_190:\n      0x02\n      dup2\n      gt\n      iszero\n      tag_192\n      jumpi\n      tag_193\n      tag_61\n      jump\t// in\n    tag_193:\n    tag_192:\n      dup2\n      mstore\n      0x20\n      add\n      swap1\n      dup2\n      mstore\n      0x20\n      add\n      0x00\n      keccak256\n      0x00\n        /* \"contracts/Store.sol\":2995:3057  warehouse[Product.Java] += _order.contents[Product.Greenfield] */\n      dup3\n      dup3\n      sload\n      tag_194\n      swap2\n      swap1\n      tag_65\n      jump\t// in\n    tag_194:\n      swap3\n      pop\n      pop\n      dup2\n      swap1\n      sstore\n      pop\n        /* \"contracts/Store.sol\":2778:3064  function returnProducts(order storage _order) internal {... */\n      pop\n      jump\t// out\n        /* \"contracts/Store.sol\":1469:1815  function calculateCartPrice(mapping(Product => uint) storage _cart) internal view returns(uint){... */\n    tag_105:\n        /* \"contracts/Store.sol\":1559:1563  uint */\n      0x00\n        /* \"contracts/Store.sol\":1574:1582  uint sum */\n      dup1\n        /* \"contracts/Store.sol\":1585:1586  0 */\n      0x00\n        /* \"contracts/Store.sol\":1574:1586  uint sum = 0 */\n      swap1\n      pop\n        /* \"contracts/Store.sol\":1635:1640  _cart */\n      dup3\n        /* \"contracts/Store.sol\":1635:1660  _cart[Product.Greenfield] */\n      0x00\n        /* \"contracts/Store.sol\":1641:1659  Product.Greenfield */\n      dup1\n        /* \"contracts/Store.sol\":1635:1660  _cart[Product.Greenfield] */\n      0x02\n      dup2\n      gt\n      iszero\n      tag_196\n      jumpi\n      tag_197\n      tag_61\n      jump\t// in\n    tag_197:\n    tag_196:\n      0x02\n      dup2\n      gt\n      iszero\n      tag_198\n      jumpi\n      tag_199\n      tag_61\n      jump\t// in\n    tag_199:\n    tag_198:\n      dup2\n      mstore\n      0x20\n      add\n      swap1\n      dup2\n      mstore\n      0x20\n      add\n      0x00\n      keccak256\n      sload\n        /* \"contracts/Store.sol\":1603:1612  priceList */\n      0x05\n        /* \"contracts/Store.sol\":1603:1632  priceList[Product.Greenfield] */\n      0x00\n        /* \"contracts/Store.sol\":1613:1631  Product.Greenfield */\n      dup1\n        /* \"contracts/Store.sol\":1603:1632  priceList[Product.Greenfield] */\n      0x02\n      dup2\n      gt\n      iszero\n      tag_200\n      jumpi\n      tag_201\n      tag_61\n      jump\t// in\n    tag_201:\n    tag_200:\n      0x02\n      dup2\n      gt\n      iszero\n      tag_202\n      jumpi\n      tag_203\n      tag_61\n      jump\t// in\n    tag_203:\n    tag_202:\n      dup2\n      mstore\n      0x20\n      add\n      swap1\n      dup2\n      mstore\n      0x20\n      add\n      0x00\n      keccak256\n      sload\n        /* \"contracts/Store.sol\":1603:1660  priceList[Product.Greenfield] * _cart[Product.Greenfield] */\n      tag_204\n      swap2\n      swap1\n      tag_205\n      jump\t// in\n    tag_204:\n        /* \"contracts/Store.sol\":1596:1660  sum += priceList[Product.Greenfield] * _cart[Product.Greenfield] */\n      dup2\n      tag_206\n      swap2\n      swap1\n      tag_65\n      jump\t// in\n    tag_206:\n      swap1\n      pop\n        /* \"contracts/Store.sol\":1705:1710  _cart */\n      dup3\n        /* \"contracts/Store.sol\":1705:1726  _cart[Product.Lipton] */\n      0x00\n        /* \"contracts/Store.sol\":1711:1725  Product.Lipton */\n      0x01\n        /* \"contracts/Store.sol\":1705:1726  _cart[Product.Lipton] */\n      0x02\n      dup2\n      gt\n      iszero\n      tag_207\n      jumpi\n      tag_208\n      tag_61\n      jump\t// in\n    tag_208:\n    tag_207:\n      0x02\n      dup2\n      gt\n      iszero\n      tag_209\n      jumpi\n      tag_210\n      tag_61\n      jump\t// in\n    tag_210:\n    tag_209:\n      dup2\n      mstore\n      0x20\n      add\n      swap1\n      dup2\n      mstore\n      0x20\n      add\n      0x00\n      keccak256\n      sload\n        /* \"contracts/Store.sol\":1677:1686  priceList */\n      0x05\n        /* \"contracts/Store.sol\":1677:1702  priceList[Product.Lipton] */\n      0x00\n        /* \"contracts/Store.sol\":1687:1701  Product.Lipton */\n      0x01\n        /* \"contracts/Store.sol\":1677:1702  priceList[Product.Lipton] */\n      0x02\n      dup2\n      gt\n      iszero\n      tag_211\n      jumpi\n      tag_212\n      tag_61\n      jump\t// in\n    tag_212:\n    tag_211:\n      0x02\n      dup2\n      gt\n      iszero\n      tag_213\n      jumpi\n      tag_214\n      tag_61\n      jump\t// in\n    tag_214:\n    tag_213:\n      dup2\n      mstore\n      0x20\n      add\n      swap1\n      dup2\n      mstore\n      0x20\n      add\n      0x00\n      keccak256\n      sload\n        /* \"contracts/Store.sol\":1677:1726  priceList[Product.Lipton] * _cart[Product.Lipton] */\n      tag_215\n      swap2\n      swap1\n      tag_205\n      jump\t// in\n    tag_215:\n        /* \"contracts/Store.sol\":1670:1726  sum += priceList[Product.Lipton] * _cart[Product.Lipton] */\n      dup2\n      tag_216\n      swap2\n      swap1\n      tag_65\n      jump\t// in\n    tag_216:\n      swap1\n      pop\n        /* \"contracts/Store.sol\":1769:1774  _cart */\n      dup3\n        /* \"contracts/Store.sol\":1769:1788  _cart[Product.Java] */\n      0x00\n        /* \"contracts/Store.sol\":1775:1787  Product.Java */\n      0x02\n        /* \"contracts/Store.sol\":1769:1788  _cart[Product.Java] */\n      dup1\n      dup2\n      gt\n      iszero\n      tag_217\n      jumpi\n      tag_218\n      tag_61\n      jump\t// in\n    tag_218:\n    tag_217:\n      0x02\n      dup2\n      gt\n      iszero\n      tag_219\n      jumpi\n      tag_220\n      tag_61\n      jump\t// in\n    tag_220:\n    tag_219:\n      dup2\n      mstore\n      0x20\n      add\n      swap1\n      dup2\n      mstore\n      0x20\n      add\n      0x00\n      keccak256\n      sload\n        /* \"contracts/Store.sol\":1743:1752  priceList */\n      0x05\n        /* \"contracts/Store.sol\":1743:1766  priceList[Product.Java] */\n      0x00\n        /* \"contracts/Store.sol\":1753:1765  Product.Java */\n      0x02\n        /* \"contracts/Store.sol\":1743:1766  priceList[Product.Java] */\n      dup1\n      dup2\n      gt\n      iszero\n      tag_221\n      jumpi\n      tag_222\n      tag_61\n      jump\t// in\n    tag_222:\n    tag_221:\n      0x02\n      dup2\n      gt\n      iszero\n      tag_223\n      jumpi\n      tag_224\n      tag_61\n      jump\t// in\n    tag_224:\n    tag_223:\n      dup2\n      mstore\n      0x20\n      add\n      swap1\n      dup2\n      mstore\n      0x20\n      add\n      0x00\n      keccak256\n      sload\n        /* \"contracts/Store.sol\":1743:1788  priceList[Product.Java] * _cart[Product.Java] */\n      tag_225\n      swap2\n      swap1\n      tag_205\n      jump\t// in\n    tag_225:\n        /* \"contracts/Store.sol\":1736:1788  sum += priceList[Product.Java] * _cart[Product.Java] */\n      dup2\n      tag_226\n      swap2\n      swap1\n      tag_65\n      jump\t// in\n    tag_226:\n      swap1\n      pop\n        /* \"contracts/Store.sol\":1805:1808  sum */\n      dup1\n        /* \"contracts/Store.sol\":1798:1808  return sum */\n      swap2\n      pop\n      pop\n        /* \"contracts/Store.sol\":1469:1815  function calculateCartPrice(mapping(Product => uint) storage _cart) internal view returns(uint){... */\n      swap2\n      swap1\n      pop\n      jump\t// out\n        /* \"contracts/Store.sol\":2297:2479  function clearCart(mapping(Product => uint) storage _cart) internal {... */\n    tag_135:\n        /* \"contracts/Store.sol\":2403:2404  0 */\n      0x00\n        /* \"contracts/Store.sol\":2375:2380  _cart */\n      dup2\n        /* \"contracts/Store.sol\":2375:2400  _cart[Product.Greenfield] */\n      0x00\n        /* \"contracts/Store.sol\":2381:2399  Product.Greenfield */\n      dup1\n        /* \"contracts/Store.sol\":2375:2400  _cart[Product.Greenfield] */\n      0x02\n      dup2\n      gt\n      iszero\n      tag_228\n      jumpi\n      tag_229\n      tag_61\n      jump\t// in\n    tag_229:\n    tag_228:\n      0x02\n      dup2\n      gt\n      iszero\n      tag_230\n      jumpi\n      tag_231\n      tag_61\n      jump\t// in\n    tag_231:\n    tag_230:\n      dup2\n      mstore\n      0x20\n      add\n      swap1\n      dup2\n      mstore\n      0x20\n      add\n      0x00\n      keccak256\n        /* \"contracts/Store.sol\":2375:2404  _cart[Product.Greenfield] = 0 */\n      dup2\n      swap1\n      sstore\n      pop\n        /* \"contracts/Store.sol\":2438:2439  0 */\n      0x00\n        /* \"contracts/Store.sol\":2414:2419  _cart */\n      dup2\n        /* \"contracts/Store.sol\":2414:2435  _cart[Product.Lipton] */\n      0x00\n        /* \"contracts/Store.sol\":2420:2434  Product.Lipton */\n      0x01\n        /* \"contracts/Store.sol\":2414:2435  _cart[Product.Lipton] */\n      0x02\n      dup2\n      gt\n      iszero\n      tag_232\n      jumpi\n      tag_233\n      tag_61\n      jump\t// in\n    tag_233:\n    tag_232:\n      0x02\n      dup2\n      gt\n      iszero\n      tag_234\n      jumpi\n      tag_235\n      tag_61\n      jump\t// in\n    tag_235:\n    tag_234:\n      dup2\n      mstore\n      0x20\n      add\n      swap1\n      dup2\n      mstore\n      0x20\n      add\n      0x00\n      keccak256\n        /* \"contracts/Store.sol\":2414:2439  _cart[Product.Lipton] = 0 */\n      dup2\n      swap1\n      sstore\n      pop\n        /* \"contracts/Store.sol\":2471:2472  0 */\n      0x00\n        /* \"contracts/Store.sol\":2449:2454  _cart */\n      dup2\n        /* \"contracts/Store.sol\":2449:2468  _cart[Product.Java] */\n      0x00\n        /* \"contracts/Store.sol\":2455:2467  Product.Java */\n      0x02\n        /* \"contracts/Store.sol\":2449:2468  _cart[Product.Java] */\n      dup1\n      dup2\n      gt\n      iszero\n      tag_236\n      jumpi\n      tag_237\n      tag_61\n      jump\t// in\n    tag_237:\n    tag_236:\n      0x02\n      dup2\n      gt\n      iszero\n      tag_238\n      jumpi\n      tag_239\n      tag_61\n      jump\t// in\n    tag_239:\n    tag_238:\n      dup2\n      mstore\n      0x20\n      add\n      swap1\n      dup2\n      mstore\n      0x20\n      add\n      0x00\n      keccak256\n        /* \"contracts/Store.sol\":2449:2472  _cart[Product.Java] = 0 */\n      dup2\n      swap1\n      sstore\n      pop\n        /* \"contracts/Store.sol\":2297:2479  function clearCart(mapping(Product => uint) storage _cart) internal {... */\n      pop\n      jump\t// out\n        /* \"contracts/Store.sol\":2485:2772  function reserveProducts(order storage _order) internal {... */\n    tag_137:\n        /* \"contracts/Store.sol\":2584:2590  _order */\n      dup1\n        /* \"contracts/Store.sol\":2584:2599  _order.contents */\n      0x02\n      add\n        /* \"contracts/Store.sol\":2584:2619  _order.contents[Product.Greenfield] */\n      0x00\n        /* \"contracts/Store.sol\":2600:2618  Product.Greenfield */\n      dup1\n        /* \"contracts/Store.sol\":2584:2619  _order.contents[Product.Greenfield] */\n      0x02\n      dup2\n      gt\n      iszero\n      tag_241\n      jumpi\n      tag_242\n      tag_61\n      jump\t// in\n    tag_242:\n    tag_241:\n      0x02\n      dup2\n      gt\n      iszero\n      tag_243\n      jumpi\n      tag_244\n      tag_61\n      jump\t// in\n    tag_244:\n    tag_243:\n      dup2\n      mstore\n      0x20\n      add\n      swap1\n      dup2\n      mstore\n      0x20\n      add\n      0x00\n      keccak256\n      sload\n        /* \"contracts/Store.sol\":2551:2560  warehouse */\n      0x06\n        /* \"contracts/Store.sol\":2551:2580  warehouse[Product.Greenfield] */\n      0x00\n        /* \"contracts/Store.sol\":2561:2579  Product.Greenfield */\n      dup1\n        /* \"contracts/Store.sol\":2551:2580  warehouse[Product.Greenfield] */\n      0x02\n      dup2\n      gt\n      iszero\n      tag_245\n      jumpi\n      tag_246\n      tag_61\n      jump\t// in\n    tag_246:\n    tag_245:\n      0x02\n      dup2\n      gt\n      iszero\n      tag_247\n      jumpi\n      tag_248\n      tag_61\n      jump\t// in\n    tag_248:\n    tag_247:\n      dup2\n      mstore\n      0x20\n      add\n      swap1\n      dup2\n      mstore\n      0x20\n      add\n      0x00\n      keccak256\n      0x00\n        /* \"contracts/Store.sol\":2551:2619  warehouse[Product.Greenfield] -= _order.contents[Product.Greenfield] */\n      dup3\n      dup3\n      sload\n      tag_249\n      swap2\n      swap1\n      tag_142\n      jump\t// in\n    tag_249:\n      swap3\n      pop\n      pop\n      dup2\n      swap1\n      sstore\n      pop\n        /* \"contracts/Store.sol\":2658:2664  _order */\n      dup1\n        /* \"contracts/Store.sol\":2658:2673  _order.contents */\n      0x02\n      add\n        /* \"contracts/Store.sol\":2658:2693  _order.contents[Product.Greenfield] */\n      0x00\n        /* \"contracts/Store.sol\":2674:2692  Product.Greenfield */\n      dup1\n        /* \"contracts/Store.sol\":2658:2693  _order.contents[Product.Greenfield] */\n      0x02\n      dup2\n      gt\n      iszero\n      tag_250\n      jumpi\n      tag_251\n      tag_61\n      jump\t// in\n    tag_251:\n    tag_250:\n      0x02\n      dup2\n      gt\n      iszero\n      tag_252\n      jumpi\n      tag_253\n      tag_61\n      jump\t// in\n    tag_253:\n    tag_252:\n      dup2\n      mstore\n      0x20\n      add\n      swap1\n      dup2\n      mstore\n      0x20\n      add\n      0x00\n      keccak256\n      sload\n        /* \"contracts/Store.sol\":2629:2638  warehouse */\n      0x06\n        /* \"contracts/Store.sol\":2629:2654  warehouse[Product.Lipton] */\n      0x00\n        /* \"contracts/Store.sol\":2639:2653  Product.Lipton */\n      0x01\n        /* \"contracts/Store.sol\":2629:2654  warehouse[Product.Lipton] */\n      0x02\n      dup2\n      gt\n      iszero\n      tag_254\n      jumpi\n      tag_255\n      tag_61\n      jump\t// in\n    tag_255:\n    tag_254:\n      0x02\n      dup2\n      gt\n      iszero\n      tag_256\n      jumpi\n      tag_257\n      tag_61\n      jump\t// in\n    tag_257:\n    tag_256:\n      dup2\n      mstore\n      0x20\n      add\n      swap1\n      dup2\n      mstore\n      0x20\n      add\n      0x00\n      keccak256\n      0x00\n        /* \"contracts/Store.sol\":2629:2693  warehouse[Product.Lipton] -= _order.contents[Product.Greenfield] */\n      dup3\n      dup3\n      sload\n      tag_258\n      swap2\n      swap1\n      tag_142\n      jump\t// in\n    tag_258:\n      swap3\n      pop\n      pop\n      dup2\n      swap1\n      sstore\n      pop\n        /* \"contracts/Store.sol\":2730:2736  _order */\n      dup1\n        /* \"contracts/Store.sol\":2730:2745  _order.contents */\n      0x02\n      add\n        /* \"contracts/Store.sol\":2730:2765  _order.contents[Product.Greenfield] */\n      0x00\n        /* \"contracts/Store.sol\":2746:2764  Product.Greenfield */\n      dup1\n        /* \"contracts/Store.sol\":2730:2765  _order.contents[Product.Greenfield] */\n      0x02\n      dup2\n      gt\n      iszero\n      tag_259\n      jumpi\n      tag_260\n      tag_61\n      jump\t// in\n    tag_260:\n    tag_259:\n      0x02\n      dup2\n      gt\n      iszero\n      tag_261\n      jumpi\n      tag_262\n      tag_61\n      jump\t// in\n    tag_262:\n    tag_261:\n      dup2\n      mstore\n      0x20\n      add\n      swap1\n      dup2\n      mstore\n      0x20\n      add\n      0x00\n      keccak256\n      sload\n        /* \"contracts/Store.sol\":2703:2712  warehouse */\n      0x06\n        /* \"contracts/Store.sol\":2703:2726  warehouse[Product.Java] */\n      0x00\n        /* \"contracts/Store.sol\":2713:2725  Product.Java */\n      0x02\n        /* \"contracts/Store.sol\":2703:2726  warehouse[Product.Java] */\n      dup1\n      dup2\n      gt\n      iszero\n      tag_263\n      jumpi\n      tag_264\n      tag_61\n      jump\t// in\n    tag_264:\n    tag_263:\n      0x02\n      dup2\n      gt\n      iszero\n      tag_265\n      jumpi\n      tag_266\n      tag_61\n      jump\t// in\n    tag_266:\n    tag_265:\n      dup2\n      mstore\n      0x20\n      add\n      swap1\n      dup2\n      mstore\n      0x20\n      add\n      0x00\n      keccak256\n      0x00\n        /* \"contracts/Store.sol\":2703:2765  warehouse[Product.Java] -= _order.contents[Product.Greenfield] */\n      dup3\n      dup3\n      sload\n      tag_267\n      swap2\n      swap1\n      tag_142\n      jump\t// in\n    tag_267:\n      swap3\n      pop\n      pop\n      dup2\n      swap1\n      sstore\n      pop\n        /* \"contracts/Store.sol\":2485:2772  function reserveProducts(order storage _order) internal {... */\n      pop\n      jump\t// out\n        /* \"#utility.yul\":88:205   */\n    tag_269:\n        /* \"#utility.yul\":197:198   */\n      0x00\n        /* \"#utility.yul\":194:195   */\n      dup1\n        /* \"#utility.yul\":187:199   */\n      revert\n        /* \"#utility.yul\":334:443   */\n    tag_271:\n        /* \"#utility.yul\":417:418   */\n      0x03\n        /* \"#utility.yul\":410:415   */\n      dup2\n        /* \"#utility.yul\":407:419   */\n      lt\n        /* \"#utility.yul\":397:437   */\n      tag_300\n      jumpi\n        /* \"#utility.yul\":433:434   */\n      0x00\n        /* \"#utility.yul\":430:431   */\n      dup1\n        /* \"#utility.yul\":423:435   */\n      revert\n        /* \"#utility.yul\":397:437   */\n    tag_300:\n        /* \"#utility.yul\":334:443   */\n      pop\n      jump\t// out\n        /* \"#utility.yul\":449:608   */\n    tag_272:\n        /* \"#utility.yul\":505:510   */\n      0x00\n        /* \"#utility.yul\":543:549   */\n      dup2\n        /* \"#utility.yul\":530:550   */\n      calldataload\n        /* \"#utility.yul\":521:550   */\n      swap1\n      pop\n        /* \"#utility.yul\":559:602   */\n      tag_302\n        /* \"#utility.yul\":596:601   */\n      dup2\n        /* \"#utility.yul\":559:602   */\n      tag_271\n      jump\t// in\n    tag_302:\n        /* \"#utility.yul\":449:608   */\n      swap3\n      swap2\n      pop\n      pop\n      jump\t// out\n        /* \"#utility.yul\":614:691   */\n    tag_273:\n        /* \"#utility.yul\":651:658   */\n      0x00\n        /* \"#utility.yul\":680:685   */\n      dup2\n        /* \"#utility.yul\":669:685   */\n      swap1\n      pop\n        /* \"#utility.yul\":614:691   */\n      swap2\n      swap1\n      pop\n      jump\t// out\n        /* \"#utility.yul\":697:819   */\n    tag_274:\n        /* \"#utility.yul\":770:794   */\n      tag_305\n        /* \"#utility.yul\":788:793   */\n      dup2\n        /* \"#utility.yul\":770:794   */\n      tag_273\n      jump\t// in\n    tag_305:\n        /* \"#utility.yul\":763:768   */\n      dup2\n        /* \"#utility.yul\":760:795   */\n      eq\n        /* \"#utility.yul\":750:813   */\n      tag_306\n      jumpi\n        /* \"#utility.yul\":809:810   */\n      0x00\n        /* \"#utility.yul\":806:807   */\n      dup1\n        /* \"#utility.yul\":799:811   */\n      revert\n        /* \"#utility.yul\":750:813   */\n    tag_306:\n        /* \"#utility.yul\":697:819   */\n      pop\n      jump\t// out\n        /* \"#utility.yul\":825:964   */\n    tag_275:\n        /* \"#utility.yul\":871:876   */\n      0x00\n        /* \"#utility.yul\":909:915   */\n      dup2\n        /* \"#utility.yul\":896:916   */\n      calldataload\n        /* \"#utility.yul\":887:916   */\n      swap1\n      pop\n        /* \"#utility.yul\":925:958   */\n      tag_308\n        /* \"#utility.yul\":952:957   */\n      dup2\n        /* \"#utility.yul\":925:958   */\n      tag_274\n      jump\t// in\n    tag_308:\n        /* \"#utility.yul\":825:964   */\n      swap3\n      swap2\n      pop\n      pop\n      jump\t// out\n        /* \"#utility.yul\":970:1464   */\n    tag_15:\n        /* \"#utility.yul\":1048:1054   */\n      0x00\n        /* \"#utility.yul\":1056:1062   */\n      dup1\n        /* \"#utility.yul\":1105:1107   */\n      0x40\n        /* \"#utility.yul\":1093:1102   */\n      dup4\n        /* \"#utility.yul\":1084:1091   */\n      dup6\n        /* \"#utility.yul\":1080:1103   */\n      sub\n        /* \"#utility.yul\":1076:1108   */\n      slt\n        /* \"#utility.yul\":1073:1192   */\n      iszero\n      tag_310\n      jumpi\n        /* \"#utility.yul\":1111:1190   */\n      tag_311\n      tag_269\n      jump\t// in\n    tag_311:\n        /* \"#utility.yul\":1073:1192   */\n    tag_310:\n        /* \"#utility.yul\":1231:1232   */\n      0x00\n        /* \"#utility.yul\":1256:1319   */\n      tag_312\n        /* \"#utility.yul\":1311:1318   */\n      dup6\n        /* \"#utility.yul\":1302:1308   */\n      dup3\n        /* \"#utility.yul\":1291:1300   */\n      dup7\n        /* \"#utility.yul\":1287:1309   */\n      add\n        /* \"#utility.yul\":1256:1319   */\n      tag_272\n      jump\t// in\n    tag_312:\n        /* \"#utility.yul\":1246:1319   */\n      swap3\n      pop\n        /* \"#utility.yul\":1202:1329   */\n      pop\n        /* \"#utility.yul\":1368:1370   */\n      0x20\n        /* \"#utility.yul\":1394:1447   */\n      tag_313\n        /* \"#utility.yul\":1439:1446   */\n      dup6\n        /* \"#utility.yul\":1430:1436   */\n      dup3\n        /* \"#utility.yul\":1419:1428   */\n      dup7\n        /* \"#utility.yul\":1415:1437   */\n      add\n        /* \"#utility.yul\":1394:1447   */\n      tag_275\n      jump\t// in\n    tag_313:\n        /* \"#utility.yul\":1384:1447   */\n      swap2\n      pop\n        /* \"#utility.yul\":1339:1457   */\n      pop\n        /* \"#utility.yul\":970:1464   */\n      swap3\n      pop\n      swap3\n      swap1\n      pop\n      jump\t// out\n        /* \"#utility.yul\":1470:1799   */\n    tag_20:\n        /* \"#utility.yul\":1529:1535   */\n      0x00\n        /* \"#utility.yul\":1578:1580   */\n      0x20\n        /* \"#utility.yul\":1566:1575   */\n      dup3\n        /* \"#utility.yul\":1557:1564   */\n      dup5\n        /* \"#utility.yul\":1553:1576   */\n      sub\n        /* \"#utility.yul\":1549:1581   */\n      slt\n        /* \"#utility.yul\":1546:1665   */\n      iszero\n      tag_315\n      jumpi\n        /* \"#utility.yul\":1584:1663   */\n      tag_316\n      tag_269\n      jump\t// in\n    tag_316:\n        /* \"#utility.yul\":1546:1665   */\n    tag_315:\n        /* \"#utility.yul\":1704:1705   */\n      0x00\n        /* \"#utility.yul\":1729:1782   */\n      tag_317\n        /* \"#utility.yul\":1774:1781   */\n      dup5\n        /* \"#utility.yul\":1765:1771   */\n      dup3\n        /* \"#utility.yul\":1754:1763   */\n      dup6\n        /* \"#utility.yul\":1750:1772   */\n      add\n        /* \"#utility.yul\":1729:1782   */\n      tag_275\n      jump\t// in\n    tag_317:\n        /* \"#utility.yul\":1719:1782   */\n      swap2\n      pop\n        /* \"#utility.yul\":1675:1792   */\n      pop\n        /* \"#utility.yul\":1470:1799   */\n      swap3\n      swap2\n      pop\n      pop\n      jump\t// out\n        /* \"#utility.yul\":1805:2154   */\n    tag_25:\n        /* \"#utility.yul\":1874:1880   */\n      0x00\n        /* \"#utility.yul\":1923:1925   */\n      0x20\n        /* \"#utility.yul\":1911:1920   */\n      dup3\n        /* \"#utility.yul\":1902:1909   */\n      dup5\n        /* \"#utility.yul\":1898:1921   */\n      sub\n        /* \"#utility.yul\":1894:1926   */\n      slt\n        /* \"#utility.yul\":1891:2010   */\n      iszero\n      tag_319\n      jumpi\n        /* \"#utility.yul\":1929:2008   */\n      tag_320\n      tag_269\n      jump\t// in\n    tag_320:\n        /* \"#utility.yul\":1891:2010   */\n    tag_319:\n        /* \"#utility.yul\":2049:2050   */\n      0x00\n        /* \"#utility.yul\":2074:2137   */\n      tag_321\n        /* \"#utility.yul\":2129:2136   */\n      dup5\n        /* \"#utility.yul\":2120:2126   */\n      dup3\n        /* \"#utility.yul\":2109:2118   */\n      dup6\n        /* \"#utility.yul\":2105:2127   */\n      add\n        /* \"#utility.yul\":2074:2137   */\n      tag_272\n      jump\t// in\n    tag_321:\n        /* \"#utility.yul\":2064:2137   */\n      swap2\n      pop\n        /* \"#utility.yul\":2020:2147   */\n      pop\n        /* \"#utility.yul\":1805:2154   */\n      swap3\n      swap2\n      pop\n      pop\n      jump\t// out\n        /* \"#utility.yul\":2160:2278   */\n    tag_276:\n        /* \"#utility.yul\":2247:2271   */\n      tag_323\n        /* \"#utility.yul\":2265:2270   */\n      dup2\n        /* \"#utility.yul\":2247:2271   */\n      tag_273\n      jump\t// in\n    tag_323:\n        /* \"#utility.yul\":2242:2245   */\n      dup3\n        /* \"#utility.yul\":2235:2272   */\n      mstore\n        /* \"#utility.yul\":2160:2278   */\n      pop\n      pop\n      jump\t// out\n        /* \"#utility.yul\":2284:2506   */\n    tag_28:\n        /* \"#utility.yul\":2377:2381   */\n      0x00\n        /* \"#utility.yul\":2415:2417   */\n      0x20\n        /* \"#utility.yul\":2404:2413   */\n      dup3\n        /* \"#utility.yul\":2400:2418   */\n      add\n        /* \"#utility.yul\":2392:2418   */\n      swap1\n      pop\n        /* \"#utility.yul\":2428:2499   */\n      tag_325\n        /* \"#utility.yul\":2496:2497   */\n      0x00\n        /* \"#utility.yul\":2485:2494   */\n      dup4\n        /* \"#utility.yul\":2481:2498   */\n      add\n        /* \"#utility.yul\":2472:2478   */\n      dup5\n        /* \"#utility.yul\":2428:2499   */\n      tag_276\n      jump\t// in\n    tag_325:\n        /* \"#utility.yul\":2284:2506   */\n      swap3\n      swap2\n      pop\n      pop\n      jump\t// out\n        /* \"#utility.yul\":2512:2638   */\n    tag_277:\n        /* \"#utility.yul\":2549:2556   */\n      0x00\n        /* \"#utility.yul\":2589:2631   */\n      0xffffffffffffffffffffffffffffffffffffffff\n        /* \"#utility.yul\":2582:2587   */\n      dup3\n        /* \"#utility.yul\":2578:2632   */\n      and\n        /* \"#utility.yul\":2567:2632   */\n      swap1\n      pop\n        /* \"#utility.yul\":2512:2638   */\n      swap2\n      swap1\n      pop\n      jump\t// out\n        /* \"#utility.yul\":2644:2740   */\n    tag_278:\n        /* \"#utility.yul\":2681:2688   */\n      0x00\n        /* \"#utility.yul\":2710:2734   */\n      tag_328\n        /* \"#utility.yul\":2728:2733   */\n      dup3\n        /* \"#utility.yul\":2710:2734   */\n      tag_277\n      jump\t// in\n    tag_328:\n        /* \"#utility.yul\":2699:2734   */\n      swap1\n      pop\n        /* \"#utility.yul\":2644:2740   */\n      swap2\n      swap1\n      pop\n      jump\t// out\n        /* \"#utility.yul\":2746:2864   */\n    tag_279:\n        /* \"#utility.yul\":2833:2857   */\n      tag_330\n        /* \"#utility.yul\":2851:2856   */\n      dup2\n        /* \"#utility.yul\":2833:2857   */\n      tag_278\n      jump\t// in\n    tag_330:\n        /* \"#utility.yul\":2828:2831   */\n      dup3\n        /* \"#utility.yul\":2821:2858   */\n      mstore\n        /* \"#utility.yul\":2746:2864   */\n      pop\n      pop\n      jump\t// out\n        /* \"#utility.yul\":2870:3092   */\n    tag_41:\n        /* \"#utility.yul\":2963:2967   */\n      0x00\n        /* \"#utility.yul\":3001:3003   */\n      0x20\n        /* \"#utility.yul\":2990:2999   */\n      dup3\n        /* \"#utility.yul\":2986:3004   */\n      add\n        /* \"#utility.yul\":2978:3004   */\n      swap1\n      pop\n        /* \"#utility.yul\":3014:3085   */\n      tag_332\n        /* \"#utility.yul\":3082:3083   */\n      0x00\n        /* \"#utility.yul\":3071:3080   */\n      dup4\n        /* \"#utility.yul\":3067:3084   */\n      add\n        /* \"#utility.yul\":3058:3064   */\n      dup5\n        /* \"#utility.yul\":3014:3085   */\n      tag_279\n      jump\t// in\n    tag_332:\n        /* \"#utility.yul\":2870:3092   */\n      swap3\n      swap2\n      pop\n      pop\n      jump\t// out\n        /* \"#utility.yul\":3098:3220   */\n    tag_280:\n        /* \"#utility.yul\":3171:3195   */\n      tag_334\n        /* \"#utility.yul\":3189:3194   */\n      dup2\n        /* \"#utility.yul\":3171:3195   */\n      tag_278\n      jump\t// in\n    tag_334:\n        /* \"#utility.yul\":3164:3169   */\n      dup2\n        /* \"#utility.yul\":3161:3196   */\n      eq\n        /* \"#utility.yul\":3151:3214   */\n      tag_335\n      jumpi\n        /* \"#utility.yul\":3210:3211   */\n      0x00\n        /* \"#utility.yul\":3207:3208   */\n      dup1\n        /* \"#utility.yul\":3200:3212   */\n      revert\n        /* \"#utility.yul\":3151:3214   */\n    tag_335:\n        /* \"#utility.yul\":3098:3220   */\n      pop\n      jump\t// out\n        /* \"#utility.yul\":3226:3365   */\n    tag_281:\n        /* \"#utility.yul\":3272:3277   */\n      0x00\n        /* \"#utility.yul\":3310:3316   */\n      dup2\n        /* \"#utility.yul\":3297:3317   */\n      calldataload\n        /* \"#utility.yul\":3288:3317   */\n      swap1\n      pop\n        /* \"#utility.yul\":3326:3359   */\n      tag_337\n        /* \"#utility.yul\":3353:3358   */\n      dup2\n        /* \"#utility.yul\":3326:3359   */\n      tag_280\n      jump\t// in\n    tag_337:\n        /* \"#utility.yul\":3226:3365   */\n      swap3\n      swap2\n      pop\n      pop\n      jump\t// out\n        /* \"#utility.yul\":3371:3865   */\n    tag_45:\n        /* \"#utility.yul\":3449:3455   */\n      0x00\n        /* \"#utility.yul\":3457:3463   */\n      dup1\n        /* \"#utility.yul\":3506:3508   */\n      0x40\n        /* \"#utility.yul\":3494:3503   */\n      dup4\n        /* \"#utility.yul\":3485:3492   */\n      dup6\n        /* \"#utility.yul\":3481:3504   */\n      sub\n        /* \"#utility.yul\":3477:3509   */\n      slt\n        /* \"#utility.yul\":3474:3593   */\n      iszero\n      tag_339\n      jumpi\n        /* \"#utility.yul\":3512:3591   */\n      tag_340\n      tag_269\n      jump\t// in\n    tag_340:\n        /* \"#utility.yul\":3474:3593   */\n    tag_339:\n        /* \"#utility.yul\":3632:3633   */\n      0x00\n        /* \"#utility.yul\":3657:3710   */\n      tag_341\n        /* \"#utility.yul\":3702:3709   */\n      dup6\n        /* \"#utility.yul\":3693:3699   */\n      dup3\n        /* \"#utility.yul\":3682:3691   */\n      dup7\n        /* \"#utility.yul\":3678:3700   */\n      add\n        /* \"#utility.yul\":3657:3710   */\n      tag_281\n      jump\t// in\n    tag_341:\n        /* \"#utility.yul\":3647:3710   */\n      swap3\n      pop\n        /* \"#utility.yul\":3603:3720   */\n      pop\n        /* \"#utility.yul\":3759:3761   */\n      0x20\n        /* \"#utility.yul\":3785:3848   */\n      tag_342\n        /* \"#utility.yul\":3840:3847   */\n      dup6\n        /* \"#utility.yul\":3831:3837   */\n      dup3\n        /* \"#utility.yul\":3820:3829   */\n      dup7\n        /* \"#utility.yul\":3816:3838   */\n      add\n        /* \"#utility.yul\":3785:3848   */\n      tag_272\n      jump\t// in\n    tag_342:\n        /* \"#utility.yul\":3775:3848   */\n      swap2\n      pop\n        /* \"#utility.yul\":3730:3858   */\n      pop\n        /* \"#utility.yul\":3371:3865   */\n      swap3\n      pop\n      swap3\n      swap1\n      pop\n      jump\t// out\n        /* \"#utility.yul\":3871:3970   */\n    tag_282:\n        /* \"#utility.yul\":3923:3929   */\n      0x00\n        /* \"#utility.yul\":3957:3962   */\n      dup2\n        /* \"#utility.yul\":3951:3963   */\n      mload\n        /* \"#utility.yul\":3941:3963   */\n      swap1\n      pop\n        /* \"#utility.yul\":3871:3970   */\n      swap2\n      swap1\n      pop\n      jump\t// out\n        /* \"#utility.yul\":3976:4145   */\n    tag_283:\n        /* \"#utility.yul\":4060:4071   */\n      0x00\n        /* \"#utility.yul\":4094:4100   */\n      dup3\n        /* \"#utility.yul\":4089:4092   */\n      dup3\n        /* \"#utility.yul\":4082:4101   */\n      mstore\n        /* \"#utility.yul\":4134:4138   */\n      0x20\n        /* \"#utility.yul\":4129:4132   */\n      dup3\n        /* \"#utility.yul\":4125:4139   */\n      add\n        /* \"#utility.yul\":4110:4139   */\n      swap1\n      pop\n        /* \"#utility.yul\":3976:4145   */\n      swap3\n      swap2\n      pop\n      pop\n      jump\t// out\n        /* \"#utility.yul\":4151:4397   */\n    tag_284:\n        /* \"#utility.yul\":4232:4233   */\n      0x00\n        /* \"#utility.yul\":4242:4355   */\n    tag_346:\n        /* \"#utility.yul\":4256:4262   */\n      dup4\n        /* \"#utility.yul\":4253:4254   */\n      dup2\n        /* \"#utility.yul\":4250:4263   */\n      lt\n        /* \"#utility.yul\":4242:4355   */\n      iszero\n      tag_348\n      jumpi\n        /* \"#utility.yul\":4341:4342   */\n      dup1\n        /* \"#utility.yul\":4336:4339   */\n      dup3\n        /* \"#utility.yul\":4332:4343   */\n      add\n        /* \"#utility.yul\":4326:4344   */\n      mload\n        /* \"#utility.yul\":4322:4323   */\n      dup2\n        /* \"#utility.yul\":4317:4320   */\n      dup5\n        /* \"#utility.yul\":4313:4324   */\n      add\n        /* \"#utility.yul\":4306:4345   */\n      mstore\n        /* \"#utility.yul\":4278:4280   */\n      0x20\n        /* \"#utility.yul\":4275:4276   */\n      dup2\n        /* \"#utility.yul\":4271:4281   */\n      add\n        /* \"#utility.yul\":4266:4281   */\n      swap1\n      pop\n        /* \"#utility.yul\":4242:4355   */\n      jump(tag_346)\n    tag_348:\n        /* \"#utility.yul\":4389:4390   */\n      0x00\n        /* \"#utility.yul\":4380:4386   */\n      dup5\n        /* \"#utility.yul\":4375:4378   */\n      dup5\n        /* \"#utility.yul\":4371:4387   */\n      add\n        /* \"#utility.yul\":4364:4391   */\n      mstore\n        /* \"#utility.yul\":4213:4397   */\n      pop\n        /* \"#utility.yul\":4151:4397   */\n      pop\n      pop\n      pop\n      jump\t// out\n        /* \"#utility.yul\":4403:4505   */\n    tag_285:\n        /* \"#utility.yul\":4444:4450   */\n      0x00\n        /* \"#utility.yul\":4495:4497   */\n      0x1f\n        /* \"#utility.yul\":4491:4498   */\n      not\n        /* \"#utility.yul\":4486:4488   */\n      0x1f\n        /* \"#utility.yul\":4479:4484   */\n      dup4\n        /* \"#utility.yul\":4475:4489   */\n      add\n        /* \"#utility.yul\":4471:4499   */\n      and\n        /* \"#utility.yul\":4461:4499   */\n      swap1\n      pop\n        /* \"#utility.yul\":4403:4505   */\n      swap2\n      swap1\n      pop\n      jump\t// out\n        /* \"#utility.yul\":4511:4888   */\n    tag_286:\n        /* \"#utility.yul\":4599:4602   */\n      0x00\n        /* \"#utility.yul\":4627:4666   */\n      tag_351\n        /* \"#utility.yul\":4660:4665   */\n      dup3\n        /* \"#utility.yul\":4627:4666   */\n      tag_282\n      jump\t// in\n    tag_351:\n        /* \"#utility.yul\":4682:4753   */\n      tag_352\n        /* \"#utility.yul\":4746:4752   */\n      dup2\n        /* \"#utility.yul\":4741:4744   */\n      dup6\n        /* \"#utility.yul\":4682:4753   */\n      tag_283\n      jump\t// in\n    tag_352:\n        /* \"#utility.yul\":4675:4753   */\n      swap4\n      pop\n        /* \"#utility.yul\":4762:4827   */\n      tag_353\n        /* \"#utility.yul\":4820:4826   */\n      dup2\n        /* \"#utility.yul\":4815:4818   */\n      dup6\n        /* \"#utility.yul\":4808:4812   */\n      0x20\n        /* \"#utility.yul\":4801:4806   */\n      dup7\n        /* \"#utility.yul\":4797:4813   */\n      add\n        /* \"#utility.yul\":4762:4827   */\n      tag_284\n      jump\t// in\n    tag_353:\n        /* \"#utility.yul\":4852:4881   */\n      tag_354\n        /* \"#utility.yul\":4874:4880   */\n      dup2\n        /* \"#utility.yul\":4852:4881   */\n      tag_285\n      jump\t// in\n    tag_354:\n        /* \"#utility.yul\":4847:4850   */\n      dup5\n        /* \"#utility.yul\":4843:4882   */\n      add\n        /* \"#utility.yul\":4836:4882   */\n      swap2\n      pop\n        /* \"#utility.yul\":4603:4888   */\n      pop\n        /* \"#utility.yul\":4511:4888   */\n      swap3\n      swap2\n      pop\n      pop\n      jump\t// out\n        /* \"#utility.yul\":4894:5207   */\n    tag_53:\n        /* \"#utility.yul\":5007:5011   */\n      0x00\n        /* \"#utility.yul\":5045:5047   */\n      0x20\n        /* \"#utility.yul\":5034:5043   */\n      dup3\n        /* \"#utility.yul\":5030:5048   */\n      add\n        /* \"#utility.yul\":5022:5048   */\n      swap1\n      pop\n        /* \"#utility.yul\":5094:5103   */\n      dup2\n        /* \"#utility.yul\":5088:5092   */\n      dup2\n        /* \"#utility.yul\":5084:5104   */\n      sub\n        /* \"#utility.yul\":5080:5081   */\n      0x00\n        /* \"#utility.yul\":5069:5078   */\n      dup4\n        /* \"#utility.yul\":5065:5082   */\n      add\n        /* \"#utility.yul\":5058:5105   */\n      mstore\n        /* \"#utility.yul\":5122:5200   */\n      tag_356\n        /* \"#utility.yul\":5195:5199   */\n      dup2\n        /* \"#utility.yul\":5186:5192   */\n      dup5\n        /* \"#utility.yul\":5122:5200   */\n      tag_286\n      jump\t// in\n    tag_356:\n        /* \"#utility.yul\":5114:5200   */\n      swap1\n      pop\n        /* \"#utility.yul\":4894:5207   */\n      swap3\n      swap2\n      pop\n      pop\n      jump\t// out\n        /* \"#utility.yul\":5213:5393   */\n    tag_61:\n        /* \"#utility.yul\":5261:5338   */\n      0x4e487b7100000000000000000000000000000000000000000000000000000000\n        /* \"#utility.yul\":5258:5259   */\n      0x00\n        /* \"#utility.yul\":5251:5339   */\n      mstore\n        /* \"#utility.yul\":5358:5362   */\n      0x21\n        /* \"#utility.yul\":5355:5356   */\n      0x04\n        /* \"#utility.yul\":5348:5363   */\n      mstore\n        /* \"#utility.yul\":5382:5386   */\n      0x24\n        /* \"#utility.yul\":5379:5380   */\n      0x00\n        /* \"#utility.yul\":5372:5387   */\n      revert\n        /* \"#utility.yul\":5399:5579   */\n    tag_287:\n        /* \"#utility.yul\":5447:5524   */\n      0x4e487b7100000000000000000000000000000000000000000000000000000000\n        /* \"#utility.yul\":5444:5445   */\n      0x00\n        /* \"#utility.yul\":5437:5525   */\n      mstore\n        /* \"#utility.yul\":5544:5548   */\n      0x11\n        /* \"#utility.yul\":5541:5542   */\n      0x04\n        /* \"#utility.yul\":5534:5549   */\n      mstore\n        /* \"#utility.yul\":5568:5572   */\n      0x24\n        /* \"#utility.yul\":5565:5566   */\n      0x00\n        /* \"#utility.yul\":5558:5573   */\n      revert\n        /* \"#utility.yul\":5585:5776   */\n    tag_65:\n        /* \"#utility.yul\":5625:5628   */\n      0x00\n        /* \"#utility.yul\":5644:5664   */\n      tag_360\n        /* \"#utility.yul\":5662:5663   */\n      dup3\n        /* \"#utility.yul\":5644:5664   */\n      tag_273\n      jump\t// in\n    tag_360:\n        /* \"#utility.yul\":5639:5664   */\n      swap2\n      pop\n        /* \"#utility.yul\":5678:5698   */\n      tag_361\n        /* \"#utility.yul\":5696:5697   */\n      dup4\n        /* \"#utility.yul\":5678:5698   */\n      tag_273\n      jump\t// in\n    tag_361:\n        /* \"#utility.yul\":5673:5698   */\n      swap3\n      pop\n        /* \"#utility.yul\":5721:5722   */\n      dup3\n        /* \"#utility.yul\":5718:5719   */\n      dup3\n        /* \"#utility.yul\":5714:5723   */\n      add\n        /* \"#utility.yul\":5707:5723   */\n      swap1\n      pop\n        /* \"#utility.yul\":5742:5745   */\n      dup1\n        /* \"#utility.yul\":5739:5740   */\n      dup3\n        /* \"#utility.yul\":5736:5746   */\n      gt\n        /* \"#utility.yul\":5733:5769   */\n      iszero\n      tag_362\n      jumpi\n        /* \"#utility.yul\":5749:5767   */\n      tag_363\n      tag_287\n      jump\t// in\n    tag_363:\n        /* \"#utility.yul\":5733:5769   */\n    tag_362:\n        /* \"#utility.yul\":5585:5776   */\n      swap3\n      swap2\n      pop\n      pop\n      jump\t// out\n        /* \"#utility.yul\":5782:6114   */\n    tag_84:\n        /* \"#utility.yul\":5903:5907   */\n      0x00\n        /* \"#utility.yul\":5941:5943   */\n      0x40\n        /* \"#utility.yul\":5930:5939   */\n      dup3\n        /* \"#utility.yul\":5926:5944   */\n      add\n        /* \"#utility.yul\":5918:5944   */\n      swap1\n      pop\n        /* \"#utility.yul\":5954:6025   */\n      tag_365\n        /* \"#utility.yul\":6022:6023   */\n      0x00\n        /* \"#utility.yul\":6011:6020   */\n      dup4\n        /* \"#utility.yul\":6007:6024   */\n      add\n        /* \"#utility.yul\":5998:6004   */\n      dup6\n        /* \"#utility.yul\":5954:6025   */\n      tag_276\n      jump\t// in\n    tag_365:\n        /* \"#utility.yul\":6035:6107   */\n      tag_366\n        /* \"#utility.yul\":6103:6105   */\n      0x20\n        /* \"#utility.yul\":6092:6101   */\n      dup4\n        /* \"#utility.yul\":6088:6106   */\n      add\n        /* \"#utility.yul\":6079:6085   */\n      dup5\n        /* \"#utility.yul\":6035:6107   */\n      tag_276\n      jump\t// in\n    tag_366:\n        /* \"#utility.yul\":5782:6114   */\n      swap4\n      swap3\n      pop\n      pop\n      pop\n      jump\t// out\n        /* \"#utility.yul\":6120:6344   */\n    tag_288:\n        /* \"#utility.yul\":6260:6294   */\n      0x4f7264657220776974682074686973204944206973206e6f7420637265617465\n        /* \"#utility.yul\":6256:6257   */\n      0x00\n        /* \"#utility.yul\":6248:6254   */\n      dup3\n        /* \"#utility.yul\":6244:6258   */\n      add\n        /* \"#utility.yul\":6237:6295   */\n      mstore\n        /* \"#utility.yul\":6329:6336   */\n      0x6420796574000000000000000000000000000000000000000000000000000000\n        /* \"#utility.yul\":6324:6326   */\n      0x20\n        /* \"#utility.yul\":6316:6322   */\n      dup3\n        /* \"#utility.yul\":6312:6327   */\n      add\n        /* \"#utility.yul\":6305:6337   */\n      mstore\n        /* \"#utility.yul\":6120:6344   */\n      pop\n      jump\t// out\n        /* \"#utility.yul\":6350:6716   */\n    tag_289:\n        /* \"#utility.yul\":6492:6495   */\n      0x00\n        /* \"#utility.yul\":6513:6580   */\n      tag_369\n        /* \"#utility.yul\":6577:6579   */\n      0x25\n        /* \"#utility.yul\":6572:6575   */\n      dup4\n        /* \"#utility.yul\":6513:6580   */\n      tag_283\n      jump\t// in\n    tag_369:\n        /* \"#utility.yul\":6506:6580   */\n      swap2\n      pop\n        /* \"#utility.yul\":6589:6682   */\n      tag_370\n        /* \"#utility.yul\":6678:6681   */\n      dup3\n        /* \"#utility.yul\":6589:6682   */\n      tag_288\n      jump\t// in\n    tag_370:\n        /* \"#utility.yul\":6707:6709   */\n      0x40\n        /* \"#utility.yul\":6702:6705   */\n      dup3\n        /* \"#utility.yul\":6698:6710   */\n      add\n        /* \"#utility.yul\":6691:6710   */\n      swap1\n      pop\n        /* \"#utility.yul\":6350:6716   */\n      swap2\n      swap1\n      pop\n      jump\t// out\n        /* \"#utility.yul\":6722:7141   */\n    tag_88:\n        /* \"#utility.yul\":6888:6892   */\n      0x00\n        /* \"#utility.yul\":6926:6928   */\n      0x20\n        /* \"#utility.yul\":6915:6924   */\n      dup3\n        /* \"#utility.yul\":6911:6929   */\n      add\n        /* \"#utility.yul\":6903:6929   */\n      swap1\n      pop\n        /* \"#utility.yul\":6975:6984   */\n      dup2\n        /* \"#utility.yul\":6969:6973   */\n      dup2\n        /* \"#utility.yul\":6965:6985   */\n      sub\n        /* \"#utility.yul\":6961:6962   */\n      0x00\n        /* \"#utility.yul\":6950:6959   */\n      dup4\n        /* \"#utility.yul\":6946:6963   */\n      add\n        /* \"#utility.yul\":6939:6986   */\n      mstore\n        /* \"#utility.yul\":7003:7134   */\n      tag_372\n        /* \"#utility.yul\":7129:7133   */\n      dup2\n        /* \"#utility.yul\":7003:7134   */\n      tag_289\n      jump\t// in\n    tag_372:\n        /* \"#utility.yul\":6995:7134   */\n      swap1\n      pop\n        /* \"#utility.yul\":6722:7141   */\n      swap2\n      swap1\n      pop\n      jump\t// out\n        /* \"#utility.yul\":7147:7380   */\n    tag_290:\n        /* \"#utility.yul\":7287:7321   */\n      0x4f726465722069732065697468657220616c72656164792063616e63656c6c65\n        /* \"#utility.yul\":7283:7284   */\n      0x00\n        /* \"#utility.yul\":7275:7281   */\n      dup3\n        /* \"#utility.yul\":7271:7285   */\n      add\n        /* \"#utility.yul\":7264:7322   */\n      mstore\n        /* \"#utility.yul\":7356:7372   */\n      0x64206f722064656c697665726564000000000000000000000000000000000000\n        /* \"#utility.yul\":7351:7353   */\n      0x20\n        /* \"#utility.yul\":7343:7349   */\n      dup3\n        /* \"#utility.yul\":7339:7354   */\n      add\n        /* \"#utility.yul\":7332:7373   */\n      mstore\n        /* \"#utility.yul\":7147:7380   */\n      pop\n      jump\t// out\n        /* \"#utility.yul\":7386:7752   */\n    tag_291:\n        /* \"#utility.yul\":7528:7531   */\n      0x00\n        /* \"#utility.yul\":7549:7616   */\n      tag_375\n        /* \"#utility.yul\":7613:7615   */\n      0x2e\n        /* \"#utility.yul\":7608:7611   */\n      dup4\n        /* \"#utility.yul\":7549:7616   */\n      tag_283\n      jump\t// in\n    tag_375:\n        /* \"#utility.yul\":7542:7616   */\n      swap2\n      pop\n        /* \"#utility.yul\":7625:7718   */\n      tag_376\n        /* \"#utility.yul\":7714:7717   */\n      dup3\n        /* \"#utility.yul\":7625:7718   */\n      tag_290\n      jump\t// in\n    tag_376:\n        /* \"#utility.yul\":7743:7745   */\n      0x40\n        /* \"#utility.yul\":7738:7741   */\n      dup3\n        /* \"#utility.yul\":7734:7746   */\n      add\n        /* \"#utility.yul\":7727:7746   */\n      swap1\n      pop\n        /* \"#utility.yul\":7386:7752   */\n      swap2\n      swap1\n      pop\n      jump\t// out\n        /* \"#utility.yul\":7758:8177   */\n    tag_96:\n        /* \"#utility.yul\":7924:7928   */\n      0x00\n        /* \"#utility.yul\":7962:7964   */\n      0x20\n        /* \"#utility.yul\":7951:7960   */\n      dup3\n        /* \"#utility.yul\":7947:7965   */\n      add\n        /* \"#utility.yul\":7939:7965   */\n      swap1\n      pop\n        /* \"#utility.yul\":8011:8020   */\n      dup2\n        /* \"#utility.yul\":8005:8009   */\n      dup2\n        /* \"#utility.yul\":8001:8021   */\n      sub\n        /* \"#utility.yul\":7997:7998   */\n      0x00\n        /* \"#utility.yul\":7986:7995   */\n      dup4\n        /* \"#utility.yul\":7982:7999   */\n      add\n        /* \"#utility.yul\":7975:8022   */\n      mstore\n        /* \"#utility.yul\":8039:8170   */\n      tag_378\n        /* \"#utility.yul\":8165:8169   */\n      dup2\n        /* \"#utility.yul\":8039:8170   */\n      tag_291\n      jump\t// in\n    tag_378:\n        /* \"#utility.yul\":8031:8170   */\n      swap1\n      pop\n        /* \"#utility.yul\":7758:8177   */\n      swap2\n      swap1\n      pop\n      jump\t// out\n        /* \"#utility.yul\":8183:8416   */\n    tag_107:\n        /* \"#utility.yul\":8222:8225   */\n      0x00\n        /* \"#utility.yul\":8245:8269   */\n      tag_380\n        /* \"#utility.yul\":8263:8268   */\n      dup3\n        /* \"#utility.yul\":8245:8269   */\n      tag_273\n      jump\t// in\n    tag_380:\n        /* \"#utility.yul\":8236:8269   */\n      swap2\n      pop\n        /* \"#utility.yul\":8291:8357   */\n      0xffffffffffffffffffffffffffffffffffffffffffffffffffffffffffffffff\n        /* \"#utility.yul\":8284:8289   */\n      dup3\n        /* \"#utility.yul\":8281:8358   */\n      sub\n        /* \"#utility.yul\":8278:8381   */\n      tag_381\n      jumpi\n        /* \"#utility.yul\":8361:8379   */\n      tag_382\n      tag_287\n      jump\t// in\n    tag_382:\n        /* \"#utility.yul\":8278:8381   */\n    tag_381:\n        /* \"#utility.yul\":8408:8409   */\n      0x01\n        /* \"#utility.yul\":8401:8406   */\n      dup3\n        /* \"#utility.yul\":8397:8410   */\n      add\n        /* \"#utility.yul\":8390:8410   */\n      swap1\n      pop\n        /* \"#utility.yul\":8183:8416   */\n      swap2\n      swap1\n      pop\n      jump\t// out\n        /* \"#utility.yul\":8422:8593   */\n    tag_292:\n        /* \"#utility.yul\":8562:8585   */\n      0x4e6f7420656e6f756768206d6f6e65792073656e740000000000000000000000\n        /* \"#utility.yul\":8558:8559   */\n      0x00\n        /* \"#utility.yul\":8550:8556   */\n      dup3\n        /* \"#utility.yul\":8546:8560   */\n      add\n        /* \"#utility.yul\":8539:8586   */\n      mstore\n        /* \"#utility.yul\":8422:8593   */\n      pop\n      jump\t// out\n        /* \"#utility.yul\":8599:8965   */\n    tag_293:\n        /* \"#utility.yul\":8741:8744   */\n      0x00\n        /* \"#utility.yul\":8762:8829   */\n      tag_385\n        /* \"#utility.yul\":8826:8828   */\n      0x15\n        /* \"#utility.yul\":8821:8824   */\n      dup4\n        /* \"#utility.yul\":8762:8829   */\n      tag_283\n      jump\t// in\n    tag_385:\n        /* \"#utility.yul\":8755:8829   */\n      swap2\n      pop\n        /* \"#utility.yul\":8838:8931   */\n      tag_386\n        /* \"#utility.yul\":8927:8930   */\n      dup3\n        /* \"#utility.yul\":8838:8931   */\n      tag_292\n      jump\t// in\n    tag_386:\n        /* \"#utility.yul\":8956:8958   */\n      0x20\n        /* \"#utility.yul\":8951:8954   */\n      dup3\n        /* \"#utility.yul\":8947:8959   */\n      add\n        /* \"#utility.yul\":8940:8959   */\n      swap1\n      pop\n        /* \"#utility.yul\":8599:8965   */\n      swap2\n      swap1\n      pop\n      jump\t// out\n        /* \"#utility.yul\":8971:9390   */\n    tag_140:\n        /* \"#utility.yul\":9137:9141   */\n      0x00\n        /* \"#utility.yul\":9175:9177   */\n      0x20\n        /* \"#utility.yul\":9164:9173   */\n      dup3\n        /* \"#utility.yul\":9160:9178   */\n      add\n        /* \"#utility.yul\":9152:9178   */\n      swap1\n      pop\n        /* \"#utility.yul\":9224:9233   */\n      dup2\n        /* \"#utility.yul\":9218:9222   */\n      dup2\n        /* \"#utility.yul\":9214:9234   */\n      sub\n        /* \"#utility.yul\":9210:9211   */\n      0x00\n        /* \"#utility.yul\":9199:9208   */\n      dup4\n        /* \"#utility.yul\":9195:9212   */\n      add\n        /* \"#utility.yul\":9188:9235   */\n      mstore\n        /* \"#utility.yul\":9252:9383   */\n      tag_388\n        /* \"#utility.yul\":9378:9382   */\n      dup2\n        /* \"#utility.yul\":9252:9383   */\n      tag_293\n      jump\t// in\n    tag_388:\n        /* \"#utility.yul\":9244:9383   */\n      swap1\n      pop\n        /* \"#utility.yul\":8971:9390   */\n      swap2\n      swap1\n      pop\n      jump\t// out\n        /* \"#utility.yul\":9396:9590   */\n    tag_142:\n        /* \"#utility.yul\":9436:9440   */\n      0x00\n        /* \"#utility.yul\":9456:9476   */\n      tag_390\n        /* \"#utility.yul\":9474:9475   */\n      dup3\n        /* \"#utility.yul\":9456:9476   */\n      tag_273\n      jump\t// in\n    tag_390:\n        /* \"#utility.yul\":9451:9476   */\n      swap2\n      pop\n        /* \"#utility.yul\":9490:9510   */\n      tag_391\n        /* \"#utility.yul\":9508:9509   */\n      dup4\n        /* \"#utility.yul\":9490:9510   */\n      tag_273\n      jump\t// in\n    tag_391:\n        /* \"#utility.yul\":9485:9510   */\n      swap3\n      pop\n        /* \"#utility.yul\":9534:9535   */\n      dup3\n        /* \"#utility.yul\":9531:9532   */\n      dup3\n        /* \"#utility.yul\":9527:9536   */\n      sub\n        /* \"#utility.yul\":9519:9536   */\n      swap1\n      pop\n        /* \"#utility.yul\":9558:9559   */\n      dup2\n        /* \"#utility.yul\":9552:9556   */\n      dup2\n        /* \"#utility.yul\":9549:9560   */\n      gt\n        /* \"#utility.yul\":9546:9583   */\n      iszero\n      tag_392\n      jumpi\n        /* \"#utility.yul\":9563:9581   */\n      tag_393\n      tag_287\n      jump\t// in\n    tag_393:\n        /* \"#utility.yul\":9546:9583   */\n    tag_392:\n        /* \"#utility.yul\":9396:9590   */\n      swap3\n      swap2\n      pop\n      pop\n      jump\t// out\n        /* \"#utility.yul\":9596:9776   */\n    tag_294:\n        /* \"#utility.yul\":9644:9721   */\n      0x4e487b7100000000000000000000000000000000000000000000000000000000\n        /* \"#utility.yul\":9641:9642   */\n      0x00\n        /* \"#utility.yul\":9634:9722   */\n      mstore\n        /* \"#utility.yul\":9741:9745   */\n      0x22\n        /* \"#utility.yul\":9738:9739   */\n      0x04\n        /* \"#utility.yul\":9731:9746   */\n      mstore\n        /* \"#utility.yul\":9765:9769   */\n      0x24\n        /* \"#utility.yul\":9762:9763   */\n      0x00\n        /* \"#utility.yul\":9755:9770   */\n      revert\n        /* \"#utility.yul\":9782:10102   */\n    tag_148:\n        /* \"#utility.yul\":9826:9832   */\n      0x00\n        /* \"#utility.yul\":9863:9864   */\n      0x02\n        /* \"#utility.yul\":9857:9861   */\n      dup3\n        /* \"#utility.yul\":9853:9865   */\n      div\n        /* \"#utility.yul\":9843:9865   */\n      swap1\n      pop\n        /* \"#utility.yul\":9910:9911   */\n      0x01\n        /* \"#utility.yul\":9904:9908   */\n      dup3\n        /* \"#utility.yul\":9900:9912   */\n      and\n        /* \"#utility.yul\":9931:9949   */\n      dup1\n        /* \"#utility.yul\":9921:10002   */\n      tag_396\n      jumpi\n        /* \"#utility.yul\":9987:9991   */\n      0x7f\n        /* \"#utility.yul\":9979:9985   */\n      dup3\n        /* \"#utility.yul\":9975:9992   */\n      and\n        /* \"#utility.yul\":9965:9992   */\n      swap2\n      pop\n        /* \"#utility.yul\":9921:10002   */\n    tag_396:\n        /* \"#utility.yul\":10049:10051   */\n      0x20\n        /* \"#utility.yul\":10041:10047   */\n      dup3\n        /* \"#utility.yul\":10038:10052   */\n      lt\n        /* \"#utility.yul\":10018:10036   */\n      dup2\n        /* \"#utility.yul\":10015:10053   */\n      sub\n        /* \"#utility.yul\":10012:10096   */\n      tag_397\n      jumpi\n        /* \"#utility.yul\":10068:10086   */\n      tag_398\n      tag_294\n      jump\t// in\n    tag_398:\n        /* \"#utility.yul\":10012:10096   */\n    tag_397:\n        /* \"#utility.yul\":9833:10102   */\n      pop\n        /* \"#utility.yul\":9782:10102   */\n      swap2\n      swap1\n      pop\n      jump\t// out\n        /* \"#utility.yul\":10108:10518   */\n    tag_205:\n        /* \"#utility.yul\":10148:10155   */\n      0x00\n        /* \"#utility.yul\":10171:10191   */\n      tag_400\n        /* \"#utility.yul\":10189:10190   */\n      dup3\n        /* \"#utility.yul\":10171:10191   */\n      tag_273\n      jump\t// in\n    tag_400:\n        /* \"#utility.yul\":10166:10191   */\n      swap2\n      pop\n        /* \"#utility.yul\":10205:10225   */\n      tag_401\n        /* \"#utility.yul\":10223:10224   */\n      dup4\n        /* \"#utility.yul\":10205:10225   */\n      tag_273\n      jump\t// in\n    tag_401:\n        /* \"#utility.yul\":10200:10225   */\n      swap3\n      pop\n        /* \"#utility.yul\":10260:10261   */\n      dup3\n        /* \"#utility.yul\":10257:10258   */\n      dup3\n        /* \"#utility.yul\":10253:10262   */\n      mul\n        /* \"#utility.yul\":10282:10312   */\n      tag_402\n        /* \"#utility.yul\":10300:10311   */\n      dup2\n        /* \"#utility.yul\":10282:10312   */\n      tag_273\n      jump\t// in\n    tag_402:\n        /* \"#utility.yul\":10271:10312   */\n      swap2\n      pop\n        /* \"#utility.yul\":10461:10462   */\n      dup3\n        /* \"#utility.yul\":10452:10459   */\n      dup3\n        /* \"#utility.yul\":10448:10463   */\n      div\n        /* \"#utility.yul\":10445:10446   */\n      dup5\n        /* \"#utility.yul\":10442:10464   */\n      eq\n        /* \"#utility.yul\":10422:10423   */\n      dup4\n        /* \"#utility.yul\":10415:10424   */\n      iszero\n        /* \"#utility.yul\":10395:10478   */\n      or\n        /* \"#utility.yul\":10372:10511   */\n      tag_403\n      jumpi\n        /* \"#utility.yul\":10491:10509   */\n      tag_404\n      tag_287\n      jump\t// in\n    tag_404:\n        /* \"#utility.yul\":10372:10511   */\n    tag_403:\n        /* \"#utility.yul\":10156:10518   */\n      pop\n        /* \"#utility.yul\":10108:10518   */\n      swap3\n      swap2\n      pop\n      pop\n      jump\t// out\n\n    auxdata: 0xa26469706673582212202476273c71fb77a450b684eefb63b81aa486b613099705ba559de4cc8eed541164736f6c63430008160033\n}\n",
				"bytecode": {
					"linkReferences": {},
					"object": "60806040525f60015534801562000014575f80fd5b506040518060400160405280600a81526020017f477265656e6669656c640000000000000000000000000000000000000000000081525060025f60038110620000625762000061620002bc565b5b0190816200007191906200054d565b506040518060400160405280600681526020017f4c6970746f6e00000000000000000000000000000000000000000000000000008152506002600160038110620000c057620000bf620002bc565b5b019081620000cf91906200054d565b506040518060400160405280600481526020017f4a61766100000000000000000000000000000000000000000000000000000000815250600280600381106200011d576200011c620002bc565b5b0190816200012c91906200054d565b50606460055f80600281111562000148576200014762000631565b5b60028111156200015d576200015c62000631565b5b81526020019081526020015f2081905550604660055f600160028111156200018a576200018962000631565b5b60028111156200019f576200019e62000631565b5b81526020019081526020015f2081905550605a60055f600280811115620001cb57620001ca62000631565b5b6002811115620001e057620001df62000631565b5b81526020019081526020015f2081905550606460065f8060028111156200020c576200020b62000631565b5b600281111562000221576200022062000631565b5b81526020019081526020015f2081905550603260065f600160028111156200024e576200024d62000631565b5b600281111562000263576200026262000631565b5b81526020019081526020015f20819055506101f460065f60028081111562000290576200028f62000631565b5b6002811115620002a557620002a462000631565b5b81526020019081526020015f20819055506200065e565b7f4e487b71000000000000000000000000000000000000000000000000000000005f52603260045260245ffd5b5f81519050919050565b7f4e487b71000000000000000000000000000000000000000000000000000000005f52604160045260245ffd5b7f4e487b71000000000000000000000000000000000000000000000000000000005f52602260045260245ffd5b5f60028204905060018216806200036557607f821691505b6020821081036200037b576200037a62000320565b5b50919050565b5f819050815f5260205f209050919050565b5f6020601f8301049050919050565b5f82821b905092915050565b5f60088302620003df7fffffffffffffffffffffffffffffffffffffffffffffffffffffffffffffffff82620003a2565b620003eb8683620003a2565b95508019841693508086168417925050509392505050565b5f819050919050565b5f819050919050565b5f620004356200042f620004298462000403565b6200040c565b62000403565b9050919050565b5f819050919050565b620004508362000415565b620004686200045f826200043c565b848454620003ae565b825550505050565b5f90565b6200047e62000470565b6200048b81848462000445565b505050565b5b81811015620004b257620004a65f8262000474565b60018101905062000491565b5050565b601f8211156200050157620004cb8162000381565b620004d68462000393565b81016020851015620004e6578190505b620004fe620004f58562000393565b83018262000490565b50505b505050565b5f82821c905092915050565b5f620005235f198460080262000506565b1980831691505092915050565b5f6200053d838362000512565b9150826002028217905092915050565b6200055882620002e9565b67ffffffffffffffff811115620005745762000573620002f3565b5b6200058082546200034d565b6200058d828285620004b6565b5f60209050601f831160018114620005c3575f8415620005ae578287015190505b620005ba858262000530565b86555062000629565b601f198416620005d38662000381565b5f5b82811015620005fc57848901518255600182019150602085019450602081019050620005d5565b868310156200061c578489015162000618601f89168262000512565b8355505b6001600288020188555050505b505050505050565b7f4e487b71000000000000000000000000000000000000000000000000000000005f52602160045260245ffd5b61168f806200066c5f395ff3fe608060405260043610610085575f3560e01c806374ac04461161005857806374ac0446146101335780638da5cb5b1461016f578063de5355be14610199578063e4bcc7d4146101d5578063faf089061461021157610085565b806308162e9c14610089578063514fcac7146100b157806362f65000146100d957806364edfbf014610115575b5f80fd5b348015610094575f80fd5b506100af60048036038101906100aa91906110e3565b610239565b005b3480156100bc575f80fd5b506100d760048036038101906100d29190611121565b610454565b005b3480156100e4575f80fd5b506100ff60048036038101906100fa919061114c565b6105c8565b60405161010c9190611186565b60405180910390f35b61011d6105dd565b60405161012a9190611186565b60405180910390f35b34801561013e575f80fd5b506101596004803603810190610154919061114c565b6108d2565b6040516101669190611186565b60405180910390f35b34801561017a575f80fd5b506101836108e7565b60405161019091906111de565b60405180910390f35b3480156101a4575f80fd5b506101bf60048036038101906101ba9190611221565b61090a565b6040516101cc9190611186565b60405180910390f35b3480156101e0575f80fd5b506101fb60048036038101906101f69190611121565b61092a565b60405161020891906112e9565b60405180910390f35b34801561021c575f80fd5b5061023760048036038101906102329190611121565b6109c9565b005b8060085f3373ffffffffffffffffffffffffffffffffffffffff1673ffffffffffffffffffffffffffffffffffffffff1681526020019081526020015f205f84600281111561028b5761028a611309565b5b600281111561029d5761029c611309565b5b81526020019081526020015f205f8282546102b89190611363565b9250508190555060065f8360028111156102d5576102d4611309565b5b60028111156102e7576102e6611309565b5b81526020019081526020015f205460085f3373ffffffffffffffffffffffffffffffffffffffff1673ffffffffffffffffffffffffffffffffffffffff1681526020019081526020015f205f84600281111561034657610345611309565b5b600281111561035857610357611309565b5b81526020019081526020015f205411156104505760065f83600281111561038257610381611309565b5b600281111561039457610393611309565b5b81526020019081526020015f205460085f3373ffffffffffffffffffffffffffffffffffffffff1673ffffffffffffffffffffffffffffffffffffffff1681526020019081526020015f205f8460028111156103f3576103f2611309565b5b600281111561040557610404611309565b5b81526020019081526020015f20546040517f3d346c47000000000000000000000000000000000000000000000000000000008152600401610447929190611396565b60405180910390fd5b5050565b8060015481111561049a576040517f08c379a00000000000000000000000000000000000000000000000000000000081526004016104919061142d565b60405180910390fd5b5f60075f8481526020019081526020015f2090505f60028111156104c1576104c0611309565b5b816003015f9054906101000a900460ff1660028111156104e4576104e3611309565b5b14610524576040517f08c379a000000000000000000000000000000000000000000000000000000000815260040161051b906114bb565b60405180910390fd5b61052d81610b30565b806001015f9054906101000a900473ffffffffffffffffffffffffffffffffffffffff1673ffffffffffffffffffffffffffffffffffffffff166108fc825f015490811502906040515f60405180830381858888f19350505050158015610596573d5f803e3d5ffd5b506002816003015f6101000a81548160ff021916908360028111156105be576105bd611309565b5b0217905550505050565b6006602052805f5260405f205f915090505481565b5f803390505f60085f8373ffffffffffffffffffffffffffffffffffffffff1673ffffffffffffffffffffffffffffffffffffffff1681526020019081526020015f2090505f61062c82610cba565b905060015f815480929190610640906114d9565b91905055505f60075f60015481526020019081526020015f20905081815f018190555083816001015f6101000a81548173ffffffffffffffffffffffffffffffffffffffff021916908373ffffffffffffffffffffffffffffffffffffffff160217905550825f8060028111156106ba576106b9611309565b5b60028111156106cc576106cb611309565b5b81526020019081526020015f2054816002015f8060028111156106f2576106f1611309565b5b600281111561070457610703611309565b5b81526020019081526020015f2081905550825f6001600281111561072b5761072a611309565b5b600281111561073d5761073c611309565b5b81526020019081526020015f2054816002015f6001600281111561076457610763611309565b5b600281111561077657610775611309565b5b81526020019081526020015f2081905550825f60028081111561079c5761079b611309565b5b60028111156107ae576107ad611309565b5b81526020019081526020015f2054816002015f6002808111156107d4576107d3611309565b5b60028111156107e6576107e5611309565b5b81526020019081526020015f20819055505f816003015f6101000a81548160ff0219169083600281111561081d5761081c611309565b5b021790555061082b83610e50565b61083481610eff565b81341015610877576040517f08c379a000000000000000000000000000000000000000000000000000000000815260040161086e9061156a565b60405180910390fd5b3373ffffffffffffffffffffffffffffffffffffffff166108fc833461089d9190611588565b90811502906040515f60405180830381858888f193505050501580156108c5573d5f803e3d5ffd5b5060015494505050505090565b6005602052805f5260405f205f915090505481565b5f8054906101000a900473ffffffffffffffffffffffffffffffffffffffff1681565b6008602052815f5260405f20602052805f5260405f205f91509150505481565b60028160038110610939575f80fd5b015f91509050805461094a906115e8565b80601f0160208091040260200160405190810160405280929190818152602001828054610976906115e8565b80156109c15780601f10610998576101008083540402835291602001916109c1565b820191905f5260205f20905b8154815290600101906020018083116109a457829003601f168201915b505050505081565b80600154811115610a0f576040517f08c379a0000000000000000000000000000000000000000000000000000000008152600401610a069061142d565b60405180910390fd5b5f60075f8481526020019081526020015f2090505f6002811115610a3657610a35611309565b5b816003015f9054906101000a900460ff166002811115610a5957610a58611309565b5b14610a99576040517f08c379a0000000000000000000000000000000000000000000000000000000008152600401610a90906114bb565b60405180910390fd5b6001816003015f6101000a81548160ff02191690836002811115610ac057610abf611309565b5b02179055505f8054906101000a900473ffffffffffffffffffffffffffffffffffffffff1673ffffffffffffffffffffffffffffffffffffffff166108fc825f015490811502906040515f60405180830381858888f19350505050158015610b2a573d5f803e3d5ffd5b50505050565b806002015f806002811115610b4857610b47611309565b5b6002811115610b5a57610b59611309565b5b81526020019081526020015f205460065f806002811115610b7e57610b7d611309565b5b6002811115610b9057610b8f611309565b5b81526020019081526020015f205f828254610bab9190611363565b92505081905550806002015f806002811115610bca57610bc9611309565b5b6002811115610bdc57610bdb611309565b5b81526020019081526020015f205460065f60016002811115610c0157610c00611309565b5b6002811115610c1357610c12611309565b5b81526020019081526020015f205f828254610c2e9190611363565b92505081905550806002015f806002811115610c4d57610c4c611309565b5b6002811115610c5f57610c5e611309565b5b81526020019081526020015f205460065f600280811115610c8357610c82611309565b5b6002811115610c9557610c94611309565b5b81526020019081526020015f205f828254610cb09190611363565b9250508190555050565b5f805f9050825f806002811115610cd457610cd3611309565b5b6002811115610ce657610ce5611309565b5b81526020019081526020015f205460055f806002811115610d0a57610d09611309565b5b6002811115610d1c57610d1b611309565b5b81526020019081526020015f2054610d349190611618565b81610d3f9190611363565b9050825f60016002811115610d5757610d56611309565b5b6002811115610d6957610d68611309565b5b81526020019081526020015f205460055f60016002811115610d8e57610d8d611309565b5b6002811115610da057610d9f611309565b5b81526020019081526020015f2054610db89190611618565b81610dc39190611363565b9050825f600280811115610dda57610dd9611309565b5b6002811115610dec57610deb611309565b5b81526020019081526020015f205460055f600280811115610e1057610e0f611309565b5b6002811115610e2257610e21611309565b5b81526020019081526020015f2054610e3a9190611618565b81610e459190611363565b905080915050919050565b5f815f806002811115610e6657610e65611309565b5b6002811115610e7857610e77611309565b5b81526020019081526020015f20819055505f815f60016002811115610ea057610e9f611309565b5b6002811115610eb257610eb1611309565b5b81526020019081526020015f20819055505f815f600280811115610ed957610ed8611309565b5b6002811115610eeb57610eea611309565b5b81526020019081526020015f208190555050565b806002015f806002811115610f1757610f16611309565b5b6002811115610f2957610f28611309565b5b81526020019081526020015f205460065f806002811115610f4d57610f4c611309565b5b6002811115610f5f57610f5e611309565b5b81526020019081526020015f205f828254610f7a9190611588565b92505081905550806002015f806002811115610f9957610f98611309565b5b6002811115610fab57610faa611309565b5b81526020019081526020015f205460065f60016002811115610fd057610fcf611309565b5b6002811115610fe257610fe1611309565b5b81526020019081526020015f205f828254610ffd9190611588565b92505081905550806002015f80600281111561101c5761101b611309565b5b600281111561102e5761102d611309565b5b81526020019081526020015f205460065f60028081111561105257611051611309565b5b600281111561106457611063611309565b5b81526020019081526020015f205f82825461107f9190611588565b9250508190555050565b5f80fd5b60038110611099575f80fd5b50565b5f813590506110aa8161108d565b92915050565b5f819050919050565b6110c2816110b0565b81146110cc575f80fd5b50565b5f813590506110dd816110b9565b92915050565b5f80604083850312156110f9576110f8611089565b5b5f6111068582860161109c565b9250506020611117858286016110cf565b9150509250929050565b5f6020828403121561113657611135611089565b5b5f611143848285016110cf565b91505092915050565b5f6020828403121561116157611160611089565b5b5f61116e8482850161109c565b91505092915050565b611180816110b0565b82525050565b5f6020820190506111995f830184611177565b92915050565b5f73ffffffffffffffffffffffffffffffffffffffff82169050919050565b5f6111c88261119f565b9050919050565b6111d8816111be565b82525050565b5f6020820190506111f15f8301846111cf565b92915050565b611200816111be565b811461120a575f80fd5b50565b5f8135905061121b816111f7565b92915050565b5f806040838503121561123757611236611089565b5b5f6112448582860161120d565b92505060206112558582860161109c565b9150509250929050565b5f81519050919050565b5f82825260208201905092915050565b5f5b8381101561129657808201518184015260208101905061127b565b5f8484015250505050565b5f601f19601f8301169050919050565b5f6112bb8261125f565b6112c58185611269565b93506112d5818560208601611279565b6112de816112a1565b840191505092915050565b5f6020820190508181035f83015261130181846112b1565b905092915050565b7f4e487b71000000000000000000000000000000000000000000000000000000005f52602160045260245ffd5b7f4e487b71000000000000000000000000000000000000000000000000000000005f52601160045260245ffd5b5f61136d826110b0565b9150611378836110b0565b92508282019050808211156113905761138f611336565b5b92915050565b5f6040820190506113a95f830185611177565b6113b66020830184611177565b9392505050565b7f4f7264657220776974682074686973204944206973206e6f74206372656174655f8201527f6420796574000000000000000000000000000000000000000000000000000000602082015250565b5f611417602583611269565b9150611422826113bd565b604082019050919050565b5f6020820190508181035f8301526114448161140b565b9050919050565b7f4f726465722069732065697468657220616c72656164792063616e63656c6c655f8201527f64206f722064656c697665726564000000000000000000000000000000000000602082015250565b5f6114a5602e83611269565b91506114b08261144b565b604082019050919050565b5f6020820190508181035f8301526114d281611499565b9050919050565b5f6114e3826110b0565b91507fffffffffffffffffffffffffffffffffffffffffffffffffffffffffffffffff820361151557611514611336565b5b600182019050919050565b7f4e6f7420656e6f756768206d6f6e65792073656e7400000000000000000000005f82015250565b5f611554601583611269565b915061155f82611520565b602082019050919050565b5f6020820190508181035f83015261158181611548565b9050919050565b5f611592826110b0565b915061159d836110b0565b92508282039050818111156115b5576115b4611336565b5b92915050565b7f4e487b71000000000000000000000000000000000000000000000000000000005f52602260045260245ffd5b5f60028204905060018216806115ff57607f821691505b602082108103611612576116116115bb565b5b50919050565b5f611622826110b0565b915061162d836110b0565b925082820261163b816110b0565b9150828204841483151761165257611651611336565b5b509291505056fea26469706673582212202476273c71fb77a450b684eefb63b81aa486b613099705ba559de4cc8eed541164736f6c63430008160033",
					"opcodes": "PUSH1 0x80 PUSH1 0x40 MSTORE PUSH0 PUSH1 0x1 SSTORE CALLVALUE DUP1 ISZERO PUSH3 0x14 JUMPI PUSH0 DUP1 REVERT JUMPDEST POP PUSH1 0x40 MLOAD DUP1 PUSH1 0x40 ADD PUSH1 0x40 MSTORE DUP1 PUSH1 0xA DUP2 MSTORE PUSH1 0x20 ADD PUSH32 0x477265656E6669656C6400000000000000000000000000000000000000000000 DUP2 MSTORE POP PUSH1 0x2 PUSH0 PUSH1 0x3 DUP2 LT PUSH3 0x62 JUMPI PUSH3 0x61 PUSH3 0x2BC JUMP JUMPDEST JUMPDEST ADD SWAP1 DUP2 PUSH3 0x71 SWAP2 SWAP1 PUSH3 0x54D JUMP JUMPDEST POP PUSH1 0x40 MLOAD DUP1 PUSH1 0x40 ADD PUSH1 0x40 MSTORE DUP1 PUSH1 0x6 DUP2 MSTORE PUSH1 0x20 ADD PUSH32 0x4C6970746F6E0000000000000000000000000000000000000000000000000000 DUP2 MSTORE POP PUSH1 0x2 PUSH1 0x1 PUSH1 0x3 DUP2 LT PUSH3 0xC0 JUMPI PUSH3 0xBF PUSH3 0x2BC JUMP JUMPDEST JUMPDEST ADD SWAP1 DUP2 PUSH3 0xCF SWAP2 SWAP1 PUSH3 0x54D JUMP JUMPDEST POP PUSH1 0x40 MLOAD DUP1 PUSH1 0x40 ADD PUSH1 0x40 MSTORE DUP1 PUSH1 0x4 DUP2 MSTORE PUSH1 0x20 ADD PUSH32 0x4A61766100000000000000000000000000000000000000000000000000000000 DUP2 MSTORE POP PUSH1 0x2 DUP1 PUSH1 0x3 DUP2 LT PUSH3 0x11D JUMPI PUSH3 0x11C PUSH3 0x2BC JUMP JUMPDEST JUMPDEST ADD SWAP1 DUP2 PUSH3 0x12C SWAP2 SWAP1 PUSH3 0x54D JUMP JUMPDEST POP PUSH1 0x64 PUSH1 0x5 PUSH0 DUP1 PUSH1 0x2 DUP2 GT ISZERO PUSH3 0x148 JUMPI PUSH3 0x147 PUSH3 0x631 JUMP JUMPDEST JUMPDEST PUSH1 0x2 DUP2 GT ISZERO PUSH3 0x15D JUMPI PUSH3 0x15C PUSH3 0x631 JUMP JUMPDEST JUMPDEST DUP2 MSTORE PUSH1 0x20 ADD SWAP1 DUP2 MSTORE PUSH1 0x20 ADD PUSH0 KECCAK256 DUP2 SWAP1 SSTORE POP PUSH1 0x46 PUSH1 0x5 PUSH0 PUSH1 0x1 PUSH1 0x2 DUP2 GT ISZERO PUSH3 0x18A JUMPI PUSH3 0x189 PUSH3 0x631 JUMP JUMPDEST JUMPDEST PUSH1 0x2 DUP2 GT ISZERO PUSH3 0x19F JUMPI PUSH3 0x19E PUSH3 0x631 JUMP JUMPDEST JUMPDEST DUP2 MSTORE PUSH1 0x20 ADD SWAP1 DUP2 MSTORE PUSH1 0x20 ADD PUSH0 KECCAK256 DUP2 SWAP1 SSTORE POP PUSH1 0x5A PUSH1 0x5 PUSH0 PUSH1 0x2 DUP1 DUP2 GT ISZERO PUSH3 0x1CB JUMPI PUSH3 0x1CA PUSH3 0x631 JUMP JUMPDEST JUMPDEST PUSH1 0x2 DUP2 GT ISZERO PUSH3 0x1E0 JUMPI PUSH3 0x1DF PUSH3 0x631 JUMP JUMPDEST JUMPDEST DUP2 MSTORE PUSH1 0x20 ADD SWAP1 DUP2 MSTORE PUSH1 0x20 ADD PUSH0 KECCAK256 DUP2 SWAP1 SSTORE POP PUSH1 0x64 PUSH1 0x6 PUSH0 DUP1 PUSH1 0x2 DUP2 GT ISZERO PUSH3 0x20C JUMPI PUSH3 0x20B PUSH3 0x631 JUMP JUMPDEST JUMPDEST PUSH1 0x2 DUP2 GT ISZERO PUSH3 0x221 JUMPI PUSH3 0x220 PUSH3 0x631 JUMP JUMPDEST JUMPDEST DUP2 MSTORE PUSH1 0x20 ADD SWAP1 DUP2 MSTORE PUSH1 0x20 ADD PUSH0 KECCAK256 DUP2 SWAP1 SSTORE POP PUSH1 0x32 PUSH1 0x6 PUSH0 PUSH1 0x1 PUSH1 0x2 DUP2 GT ISZERO PUSH3 0x24E JUMPI PUSH3 0x24D PUSH3 0x631 JUMP JUMPDEST JUMPDEST PUSH1 0x2 DUP2 GT ISZERO PUSH3 0x263 JUMPI PUSH3 0x262 PUSH3 0x631 JUMP JUMPDEST JUMPDEST DUP2 MSTORE PUSH1 0x20 ADD SWAP1 DUP2 MSTORE PUSH1 0x20 ADD PUSH0 KECCAK256 DUP2 SWAP1 SSTORE POP PUSH2 0x1F4 PUSH1 0x6 PUSH0 PUSH1 0x2 DUP1 DUP2 GT ISZERO PUSH3 0x290 JUMPI PUSH3 0x28F PUSH3 0x631 JUMP JUMPDEST JUMPDEST PUSH1 0x2 DUP2 GT ISZERO PUSH3 0x2A5 JUMPI PUSH3 0x2A4 PUSH3 0x631 JUMP JUMPDEST JUMPDEST DUP2 MSTORE PUSH1 0x20 ADD SWAP1 DUP2 MSTORE PUSH1 0x20 ADD PUSH0 KECCAK256 DUP2 SWAP1 SSTORE POP PUSH3 0x65E JUMP JUMPDEST PUSH32 0x4E487B7100000000000000000000000000000000000000000000000000000000 PUSH0 MSTORE PUSH1 0x32 PUSH1 0x4 MSTORE PUSH1 0x24 PUSH0 REVERT JUMPDEST PUSH0 DUP2 MLOAD SWAP1 POP SWAP2 SWAP1 POP JUMP JUMPDEST PUSH32 0x4E487B7100000000000000000000000000000000000000000000000000000000 PUSH0 MSTORE PUSH1 0x41 PUSH1 0x4 MSTORE PUSH1 0x24 PUSH0 REVERT JUMPDEST PUSH32 0x4E487B7100000000000000000000000000000000000000000000000000000000 PUSH0 MSTORE PUSH1 0x22 PUSH1 0x4 MSTORE PUSH1 0x24 PUSH0 REVERT JUMPDEST PUSH0 PUSH1 0x2 DUP3 DIV SWAP1 POP PUSH1 0x1 DUP3 AND DUP1 PUSH3 0x365 JUMPI PUSH1 0x7F DUP3 AND SWAP2 POP JUMPDEST PUSH1 0x20 DUP3 LT DUP2 SUB PUSH3 0x37B JUMPI PUSH3 0x37A PUSH3 0x320 JUMP JUMPDEST JUMPDEST POP SWAP2 SWAP1 POP JUMP JUMPDEST PUSH0 DUP2 SWAP1 POP DUP2 PUSH0 MSTORE PUSH1 0x20 PUSH0 KECCAK256 SWAP1 POP SWAP2 SWAP1 POP JUMP JUMPDEST PUSH0 PUSH1 0x20 PUSH1 0x1F DUP4 ADD DIV SWAP1 POP SWAP2 SWAP1 POP JUMP JUMPDEST PUSH0 DUP3 DUP3 SHL SWAP1 POP SWAP3 SWAP2 POP POP JUMP JUMPDEST PUSH0 PUSH1 0x8 DUP4 MUL PUSH3 0x3DF PUSH32 0xFFFFFFFFFFFFFFFFFFFFFFFFFFFFFFFFFFFFFFFFFFFFFFFFFFFFFFFFFFFFFFFF DUP3 PUSH3 0x3A2 JUMP JUMPDEST PUSH3 0x3EB DUP7 DUP4 PUSH3 0x3A2 JUMP JUMPDEST SWAP6 POP DUP1 NOT DUP5 AND SWAP4 POP DUP1 DUP7 AND DUP5 OR SWAP3 POP POP POP SWAP4 SWAP3 POP POP POP JUMP JUMPDEST PUSH0 DUP2 SWAP1 POP SWAP2 SWAP1 POP JUMP JUMPDEST PUSH0 DUP2 SWAP1 POP SWAP2 SWAP1 POP JUMP JUMPDEST PUSH0 PUSH3 0x435 PUSH3 0x42F PUSH3 0x429 DUP5 PUSH3 0x403 JUMP JUMPDEST PUSH3 0x40C JUMP JUMPDEST PUSH3 0x403 JUMP JUMPDEST SWAP1 POP SWAP2 SWAP1 POP JUMP JUMPDEST PUSH0 DUP2 SWAP1 POP SWAP2 SWAP1 POP JUMP JUMPDEST PUSH3 0x450 DUP4 PUSH3 0x415 JUMP JUMPDEST PUSH3 0x468 PUSH3 0x45F DUP3 PUSH3 0x43C JUMP JUMPDEST DUP5 DUP5 SLOAD PUSH3 0x3AE JUMP JUMPDEST DUP3 SSTORE POP POP POP POP JUMP JUMPDEST PUSH0 SWAP1 JUMP JUMPDEST PUSH3 0x47E PUSH3 0x470 JUMP JUMPDEST PUSH3 0x48B DUP2 DUP5 DUP5 PUSH3 0x445 JUMP JUMPDEST POP POP POP JUMP JUMPDEST JUMPDEST DUP2 DUP2 LT ISZERO PUSH3 0x4B2 JUMPI PUSH3 0x4A6 PUSH0 DUP3 PUSH3 0x474 JUMP JUMPDEST PUSH1 0x1 DUP2 ADD SWAP1 POP PUSH3 0x491 JUMP JUMPDEST POP POP JUMP JUMPDEST PUSH1 0x1F DUP3 GT ISZERO PUSH3 0x501 JUMPI PUSH3 0x4CB DUP2 PUSH3 0x381 JUMP JUMPDEST PUSH3 0x4D6 DUP5 PUSH3 0x393 JUMP JUMPDEST DUP2 ADD PUSH1 0x20 DUP6 LT ISZERO PUSH3 0x4E6 JUMPI DUP2 SWAP1 POP JUMPDEST PUSH3 0x4FE PUSH3 0x4F5 DUP6 PUSH3 0x393 JUMP JUMPDEST DUP4 ADD DUP3 PUSH3 0x490 JUMP JUMPDEST POP POP JUMPDEST POP POP POP JUMP JUMPDEST PUSH0 DUP3 DUP3 SHR SWAP1 POP SWAP3 SWAP2 POP POP JUMP JUMPDEST PUSH0 PUSH3 0x523 PUSH0 NOT DUP5 PUSH1 0x8 MUL PUSH3 0x506 JUMP JUMPDEST NOT DUP1 DUP4 AND SWAP2 POP POP SWAP3 SWAP2 POP POP JUMP JUMPDEST PUSH0 PUSH3 0x53D DUP4 DUP4 PUSH3 0x512 JUMP JUMPDEST SWAP2 POP DUP3 PUSH1 0x2 MUL DUP3 OR SWAP1 POP SWAP3 SWAP2 POP POP JUMP JUMPDEST PUSH3 0x558 DUP3 PUSH3 0x2E9 JUMP JUMPDEST PUSH8 0xFFFFFFFFFFFFFFFF DUP2 GT ISZERO PUSH3 0x574 JUMPI PUSH3 0x573 PUSH3 0x2F3 JUMP JUMPDEST JUMPDEST PUSH3 0x580 DUP3 SLOAD PUSH3 0x34D JUMP JUMPDEST PUSH3 0x58D DUP3 DUP3 DUP6 PUSH3 0x4B6 JUMP JUMPDEST PUSH0 PUSH1 0x20 SWAP1 POP PUSH1 0x1F DUP4 GT PUSH1 0x1 DUP2 EQ PUSH3 0x5C3 JUMPI PUSH0 DUP5 ISZERO PUSH3 0x5AE JUMPI DUP3 DUP8 ADD MLOAD SWAP1 POP JUMPDEST PUSH3 0x5BA DUP6 DUP3 PUSH3 0x530 JUMP JUMPDEST DUP7 SSTORE POP PUSH3 0x629 JUMP JUMPDEST PUSH1 0x1F NOT DUP5 AND PUSH3 0x5D3 DUP7 PUSH3 0x381 JUMP JUMPDEST PUSH0 JUMPDEST DUP3 DUP2 LT ISZERO PUSH3 0x5FC JUMPI DUP5 DUP10 ADD MLOAD DUP3 SSTORE PUSH1 0x1 DUP3 ADD SWAP2 POP PUSH1 0x20 DUP6 ADD SWAP5 POP PUSH1 0x20 DUP2 ADD SWAP1 POP PUSH3 0x5D5 JUMP JUMPDEST DUP7 DUP4 LT ISZERO PUSH3 0x61C JUMPI DUP5 DUP10 ADD MLOAD PUSH3 0x618 PUSH1 0x1F DUP10 AND DUP3 PUSH3 0x512 JUMP JUMPDEST DUP4 SSTORE POP JUMPDEST PUSH1 0x1 PUSH1 0x2 DUP9 MUL ADD DUP9 SSTORE POP POP POP JUMPDEST POP POP POP POP POP POP JUMP JUMPDEST PUSH32 0x4E487B7100000000000000000000000000000000000000000000000000000000 PUSH0 MSTORE PUSH1 0x21 PUSH1 0x4 MSTORE PUSH1 0x24 PUSH0 REVERT JUMPDEST PUSH2 0x168F DUP1 PUSH3 0x66C PUSH0 CODECOPY PUSH0 RETURN INVALID PUSH1 0x80 PUSH1 0x40 MSTORE PUSH1 0x4 CALLDATASIZE LT PUSH2 0x85 JUMPI PUSH0 CALLDATALOAD PUSH1 0xE0 SHR DUP1 PUSH4 0x74AC0446 GT PUSH2 0x58 JUMPI DUP1 PUSH4 0x74AC0446 EQ PUSH2 0x133 JUMPI DUP1 PUSH4 0x8DA5CB5B EQ PUSH2 0x16F JUMPI DUP1 PUSH4 0xDE5355BE EQ PUSH2 0x199 JUMPI DUP1 PUSH4 0xE4BCC7D4 EQ PUSH2 0x1D5 JUMPI DUP1 PUSH4 0xFAF08906 EQ PUSH2 0x211 JUMPI PUSH2 0x85 JUMP JUMPDEST DUP1 PUSH4 0x8162E9C EQ PUSH2 0x89 JUMPI DUP1 PUSH4 0x514FCAC7 EQ PUSH2 0xB1 JUMPI DUP1 PUSH4 0x62F65000 EQ PUSH2 0xD9 JUMPI DUP1 PUSH4 0x64EDFBF0 EQ PUSH2 0x115 JUMPI JUMPDEST PUSH0 DUP1 REVERT JUMPDEST CALLVALUE DUP1 ISZERO PUSH2 0x94 JUMPI PUSH0 DUP1 REVERT JUMPDEST POP PUSH2 0xAF PUSH1 0x4 DUP1 CALLDATASIZE SUB DUP2 ADD SWAP1 PUSH2 0xAA SWAP2 SWAP1 PUSH2 0x10E3 JUMP JUMPDEST PUSH2 0x239 JUMP JUMPDEST STOP JUMPDEST CALLVALUE DUP1 ISZERO PUSH2 0xBC JUMPI PUSH0 DUP1 REVERT JUMPDEST POP PUSH2 0xD7 PUSH1 0x4 DUP1 CALLDATASIZE SUB DUP2 ADD SWAP1 PUSH2 0xD2 SWAP2 SWAP1 PUSH2 0x1121 JUMP JUMPDEST PUSH2 0x454 JUMP JUMPDEST STOP JUMPDEST CALLVALUE DUP1 ISZERO PUSH2 0xE4 JUMPI PUSH0 DUP1 REVERT JUMPDEST POP PUSH2 0xFF PUSH1 0x4 DUP1 CALLDATASIZE SUB DUP2 ADD SWAP1 PUSH2 0xFA SWAP2 SWAP1 PUSH2 0x114C JUMP JUMPDEST PUSH2 0x5C8 JUMP JUMPDEST PUSH1 0x40 MLOAD PUSH2 0x10C SWAP2 SWAP1 PUSH2 0x1186 JUMP JUMPDEST PUSH1 0x40 MLOAD DUP1 SWAP2 SUB SWAP1 RETURN JUMPDEST PUSH2 0x11D PUSH2 0x5DD JUMP JUMPDEST PUSH1 0x40 MLOAD PUSH2 0x12A SWAP2 SWAP1 PUSH2 0x1186 JUMP JUMPDEST PUSH1 0x40 MLOAD DUP1 SWAP2 SUB SWAP1 RETURN JUMPDEST CALLVALUE DUP1 ISZERO PUSH2 0x13E JUMPI PUSH0 DUP1 REVERT JUMPDEST POP PUSH2 0x159 PUSH1 0x4 DUP1 CALLDATASIZE SUB DUP2 ADD SWAP1 PUSH2 0x154 SWAP2 SWAP1 PUSH2 0x114C JUMP JUMPDEST PUSH2 0x8D2 JUMP JUMPDEST PUSH1 0x40 MLOAD PUSH2 0x166 SWAP2 SWAP1 PUSH2 0x1186 JUMP JUMPDEST PUSH1 0x40 MLOAD DUP1 SWAP2 SUB SWAP1 RETURN JUMPDEST CALLVALUE DUP1 ISZERO PUSH2 0x17A JUMPI PUSH0 DUP1 REVERT JUMPDEST POP PUSH2 0x183 PUSH2 0x8E7 JUMP JUMPDEST PUSH1 0x40 MLOAD PUSH2 0x190 SWAP2 SWAP1 PUSH2 0x11DE JUMP JUMPDEST PUSH1 0x40 MLOAD DUP1 SWAP2 SUB SWAP1 RETURN JUMPDEST CALLVALUE DUP1 ISZERO PUSH2 0x1A4 JUMPI PUSH0 DUP1 REVERT JUMPDEST POP PUSH2 0x1BF PUSH1 0x4 DUP1 CALLDATASIZE SUB DUP2 ADD SWAP1 PUSH2 0x1BA SWAP2 SWAP1 PUSH2 0x1221 JUMP JUMPDEST PUSH2 0x90A JUMP JUMPDEST PUSH1 0x40 MLOAD PUSH2 0x1CC SWAP2 SWAP1 PUSH2 0x1186 JUMP JUMPDEST PUSH1 0x40 MLOAD DUP1 SWAP2 SUB SWAP1 RETURN JUMPDEST CALLVALUE DUP1 ISZERO PUSH2 0x1E0 JUMPI PUSH0 DUP1 REVERT JUMPDEST POP PUSH2 0x1FB PUSH1 0x4 DUP1 CALLDATASIZE SUB DUP2 ADD SWAP1 PUSH2 0x1F6 SWAP2 SWAP1 PUSH2 0x1121 JUMP JUMPDEST PUSH2 0x92A JUMP JUMPDEST PUSH1 0x40 MLOAD PUSH2 0x208 SWAP2 SWAP1 PUSH2 0x12E9 JUMP JUMPDEST PUSH1 0x40 MLOAD DUP1 SWAP2 SUB SWAP1 RETURN JUMPDEST CALLVALUE DUP1 ISZERO PUSH2 0x21C JUMPI PUSH0 DUP1 REVERT JUMPDEST POP PUSH2 0x237 PUSH1 0x4 DUP1 CALLDATASIZE SUB DUP2 ADD SWAP1 PUSH2 0x232 SWAP2 SWAP1 PUSH2 0x1121 JUMP JUMPDEST PUSH2 0x9C9 JUMP JUMPDEST STOP JUMPDEST DUP1 PUSH1 0x8 PUSH0 CALLER PUSH20 0xFFFFFFFFFFFFFFFFFFFFFFFFFFFFFFFFFFFFFFFF AND PUSH20 0xFFFFFFFFFFFFFFFFFFFFFFFFFFFFFFFFFFFFFFFF AND DUP2 MSTORE PUSH1 0x20 ADD SWAP1 DUP2 MSTORE PUSH1 0x20 ADD PUSH0 KECCAK256 PUSH0 DUP5 PUSH1 0x2 DUP2 GT ISZERO PUSH2 0x28B JUMPI PUSH2 0x28A PUSH2 0x1309 JUMP JUMPDEST JUMPDEST PUSH1 0x2 DUP2 GT ISZERO PUSH2 0x29D JUMPI PUSH2 0x29C PUSH2 0x1309 JUMP JUMPDEST JUMPDEST DUP2 MSTORE PUSH1 0x20 ADD SWAP1 DUP2 MSTORE PUSH1 0x20 ADD PUSH0 KECCAK256 PUSH0 DUP3 DUP3 SLOAD PUSH2 0x2B8 SWAP2 SWAP1 PUSH2 0x1363 JUMP JUMPDEST SWAP3 POP POP DUP2 SWAP1 SSTORE POP PUSH1 0x6 PUSH0 DUP4 PUSH1 0x2 DUP2 GT ISZERO PUSH2 0x2D5 JUMPI PUSH2 0x2D4 PUSH2 0x1309 JUMP JUMPDEST JUMPDEST PUSH1 0x2 DUP2 GT ISZERO PUSH2 0x2E7 JUMPI PUSH2 0x2E6 PUSH2 0x1309 JUMP JUMPDEST JUMPDEST DUP2 MSTORE PUSH1 0x20 ADD SWAP1 DUP2 MSTORE PUSH1 0x20 ADD PUSH0 KECCAK256 SLOAD PUSH1 0x8 PUSH0 CALLER PUSH20 0xFFFFFFFFFFFFFFFFFFFFFFFFFFFFFFFFFFFFFFFF AND PUSH20 0xFFFFFFFFFFFFFFFFFFFFFFFFFFFFFFFFFFFFFFFF AND DUP2 MSTORE PUSH1 0x20 ADD SWAP1 DUP2 MSTORE PUSH1 0x20 ADD PUSH0 KECCAK256 PUSH0 DUP5 PUSH1 0x2 DUP2 GT ISZERO PUSH2 0x346 JUMPI PUSH2 0x345 PUSH2 0x1309 JUMP JUMPDEST JUMPDEST PUSH1 0x2 DUP2 GT ISZERO PUSH2 0x358 JUMPI PUSH2 0x357 PUSH2 0x1309 JUMP JUMPDEST JUMPDEST DUP2 MSTORE PUSH1 0x20 ADD SWAP1 DUP2 MSTORE PUSH1 0x20 ADD PUSH0 KECCAK256 SLOAD GT ISZERO PUSH2 0x450 JUMPI PUSH1 0x6 PUSH0 DUP4 PUSH1 0x2 DUP2 GT ISZERO PUSH2 0x382 JUMPI PUSH2 0x381 PUSH2 0x1309 JUMP JUMPDEST JUMPDEST PUSH1 0x2 DUP2 GT ISZERO PUSH2 0x394 JUMPI PUSH2 0x393 PUSH2 0x1309 JUMP JUMPDEST JUMPDEST DUP2 MSTORE PUSH1 0x20 ADD SWAP1 DUP2 MSTORE PUSH1 0x20 ADD PUSH0 KECCAK256 SLOAD PUSH1 0x8 PUSH0 CALLER PUSH20 0xFFFFFFFFFFFFFFFFFFFFFFFFFFFFFFFFFFFFFFFF AND PUSH20 0xFFFFFFFFFFFFFFFFFFFFFFFFFFFFFFFFFFFFFFFF AND DUP2 MSTORE PUSH1 0x20 ADD SWAP1 DUP2 MSTORE PUSH1 0x20 ADD PUSH0 KECCAK256 PUSH0 DUP5 PUSH1 0x2 DUP2 GT ISZERO PUSH2 0x3F3 JUMPI PUSH2 0x3F2 PUSH2 0x1309 JUMP JUMPDEST JUMPDEST PUSH1 0x2 DUP2 GT ISZERO PUSH2 0x405 JUMPI PUSH2 0x404 PUSH2 0x1309 JUMP JUMPDEST JUMPDEST DUP2 MSTORE PUSH1 0x20 ADD SWAP1 DUP2 MSTORE PUSH1 0x20 ADD PUSH0 KECCAK256 SLOAD PUSH1 0x40 MLOAD PUSH32 0x3D346C4700000000000000000000000000000000000000000000000000000000 DUP2 MSTORE PUSH1 0x4 ADD PUSH2 0x447 SWAP3 SWAP2 SWAP1 PUSH2 0x1396 JUMP JUMPDEST PUSH1 0x40 MLOAD DUP1 SWAP2 SUB SWAP1 REVERT JUMPDEST POP POP JUMP JUMPDEST DUP1 PUSH1 0x1 SLOAD DUP2 GT ISZERO PUSH2 0x49A JUMPI PUSH1 0x40 MLOAD PUSH32 0x8C379A000000000000000000000000000000000000000000000000000000000 DUP2 MSTORE PUSH1 0x4 ADD PUSH2 0x491 SWAP1 PUSH2 0x142D JUMP JUMPDEST PUSH1 0x40 MLOAD DUP1 SWAP2 SUB SWAP1 REVERT JUMPDEST PUSH0 PUSH1 0x7 PUSH0 DUP5 DUP2 MSTORE PUSH1 0x20 ADD SWAP1 DUP2 MSTORE PUSH1 0x20 ADD PUSH0 KECCAK256 SWAP1 POP PUSH0 PUSH1 0x2 DUP2 GT ISZERO PUSH2 0x4C1 JUMPI PUSH2 0x4C0 PUSH2 0x1309 JUMP JUMPDEST JUMPDEST DUP2 PUSH1 0x3 ADD PUSH0 SWAP1 SLOAD SWAP1 PUSH2 0x100 EXP SWAP1 DIV PUSH1 0xFF AND PUSH1 0x2 DUP2 GT ISZERO PUSH2 0x4E4 JUMPI PUSH2 0x4E3 PUSH2 0x1309 JUMP JUMPDEST JUMPDEST EQ PUSH2 0x524 JUMPI PUSH1 0x40 MLOAD PUSH32 0x8C379A000000000000000000000000000000000000000000000000000000000 DUP2 MSTORE PUSH1 0x4 ADD PUSH2 0x51B SWAP1 PUSH2 0x14BB JUMP JUMPDEST PUSH1 0x40 MLOAD DUP1 SWAP2 SUB SWAP1 REVERT JUMPDEST PUSH2 0x52D DUP2 PUSH2 0xB30 JUMP JUMPDEST DUP1 PUSH1 0x1 ADD PUSH0 SWAP1 SLOAD SWAP1 PUSH2 0x100 EXP SWAP1 DIV PUSH20 0xFFFFFFFFFFFFFFFFFFFFFFFFFFFFFFFFFFFFFFFF AND PUSH20 0xFFFFFFFFFFFFFFFFFFFFFFFFFFFFFFFFFFFFFFFF AND PUSH2 0x8FC DUP3 PUSH0 ADD SLOAD SWAP1 DUP2 ISZERO MUL SWAP1 PUSH1 0x40 MLOAD PUSH0 PUSH1 0x40 MLOAD DUP1 DUP4 SUB DUP2 DUP6 DUP9 DUP9 CALL SWAP4 POP POP POP POP ISZERO DUP1 ISZERO PUSH2 0x596 JUMPI RETURNDATASIZE PUSH0 DUP1 RETURNDATACOPY RETURNDATASIZE PUSH0 REVERT JUMPDEST POP PUSH1 0x2 DUP2 PUSH1 0x3 ADD PUSH0 PUSH2 0x100 EXP DUP2 SLOAD DUP2 PUSH1 0xFF MUL NOT AND SWAP1 DUP4 PUSH1 0x2 DUP2 GT ISZERO PUSH2 0x5BE JUMPI PUSH2 0x5BD PUSH2 0x1309 JUMP JUMPDEST JUMPDEST MUL OR SWAP1 SSTORE POP POP POP POP JUMP JUMPDEST PUSH1 0x6 PUSH1 0x20 MSTORE DUP1 PUSH0 MSTORE PUSH1 0x40 PUSH0 KECCAK256 PUSH0 SWAP2 POP SWAP1 POP SLOAD DUP2 JUMP JUMPDEST PUSH0 DUP1 CALLER SWAP1 POP PUSH0 PUSH1 0x8 PUSH0 DUP4 PUSH20 0xFFFFFFFFFFFFFFFFFFFFFFFFFFFFFFFFFFFFFFFF AND PUSH20 0xFFFFFFFFFFFFFFFFFFFFFFFFFFFFFFFFFFFFFFFF AND DUP2 MSTORE PUSH1 0x20 ADD SWAP1 DUP2 MSTORE PUSH1 0x20 ADD PUSH0 KECCAK256 SWAP1 POP PUSH0 PUSH2 0x62C DUP3 PUSH2 0xCBA JUMP JUMPDEST SWAP1 POP PUSH1 0x1 PUSH0 DUP2 SLOAD DUP1 SWAP3 SWAP2 SWAP1 PUSH2 0x640 SWAP1 PUSH2 0x14D9 JUMP JUMPDEST SWAP2 SWAP1 POP SSTORE POP PUSH0 PUSH1 0x7 PUSH0 PUSH1 0x1 SLOAD DUP2 MSTORE PUSH1 0x20 ADD SWAP1 DUP2 MSTORE PUSH1 0x20 ADD PUSH0 KECCAK256 SWAP1 POP DUP2 DUP2 PUSH0 ADD DUP2 SWAP1 SSTORE POP DUP4 DUP2 PUSH1 0x1 ADD PUSH0 PUSH2 0x100 EXP DUP2 SLOAD DUP2 PUSH20 0xFFFFFFFFFFFFFFFFFFFFFFFFFFFFFFFFFFFFFFFF MUL NOT AND SWAP1 DUP4 PUSH20 0xFFFFFFFFFFFFFFFFFFFFFFFFFFFFFFFFFFFFFFFF AND MUL OR SWAP1 SSTORE POP DUP3 PUSH0 DUP1 PUSH1 0x2 DUP2 GT ISZERO PUSH2 0x6BA JUMPI PUSH2 0x6B9 PUSH2 0x1309 JUMP JUMPDEST JUMPDEST PUSH1 0x2 DUP2 GT ISZERO PUSH2 0x6CC JUMPI PUSH2 0x6CB PUSH2 0x1309 JUMP JUMPDEST JUMPDEST DUP2 MSTORE PUSH1 0x20 ADD SWAP1 DUP2 MSTORE PUSH1 0x20 ADD PUSH0 KECCAK256 SLOAD DUP2 PUSH1 0x2 ADD PUSH0 DUP1 PUSH1 0x2 DUP2 GT ISZERO PUSH2 0x6F2 JUMPI PUSH2 0x6F1 PUSH2 0x1309 JUMP JUMPDEST JUMPDEST PUSH1 0x2 DUP2 GT ISZERO PUSH2 0x704 JUMPI PUSH2 0x703 PUSH2 0x1309 JUMP JUMPDEST JUMPDEST DUP2 MSTORE PUSH1 0x20 ADD SWAP1 DUP2 MSTORE PUSH1 0x20 ADD PUSH0 KECCAK256 DUP2 SWAP1 SSTORE POP DUP3 PUSH0 PUSH1 0x1 PUSH1 0x2 DUP2 GT ISZERO PUSH2 0x72B JUMPI PUSH2 0x72A PUSH2 0x1309 JUMP JUMPDEST JUMPDEST PUSH1 0x2 DUP2 GT ISZERO PUSH2 0x73D JUMPI PUSH2 0x73C PUSH2 0x1309 JUMP JUMPDEST JUMPDEST DUP2 MSTORE PUSH1 0x20 ADD SWAP1 DUP2 MSTORE PUSH1 0x20 ADD PUSH0 KECCAK256 SLOAD DUP2 PUSH1 0x2 ADD PUSH0 PUSH1 0x1 PUSH1 0x2 DUP2 GT ISZERO PUSH2 0x764 JUMPI PUSH2 0x763 PUSH2 0x1309 JUMP JUMPDEST JUMPDEST PUSH1 0x2 DUP2 GT ISZERO PUSH2 0x776 JUMPI PUSH2 0x775 PUSH2 0x1309 JUMP JUMPDEST JUMPDEST DUP2 MSTORE PUSH1 0x20 ADD SWAP1 DUP2 MSTORE PUSH1 0x20 ADD PUSH0 KECCAK256 DUP2 SWAP1 SSTORE POP DUP3 PUSH0 PUSH1 0x2 DUP1 DUP2 GT ISZERO PUSH2 0x79C JUMPI PUSH2 0x79B PUSH2 0x1309 JUMP JUMPDEST JUMPDEST PUSH1 0x2 DUP2 GT ISZERO PUSH2 0x7AE JUMPI PUSH2 0x7AD PUSH2 0x1309 JUMP JUMPDEST JUMPDEST DUP2 MSTORE PUSH1 0x20 ADD SWAP1 DUP2 MSTORE PUSH1 0x20 ADD PUSH0 KECCAK256 SLOAD DUP2 PUSH1 0x2 ADD PUSH0 PUSH1 0x2 DUP1 DUP2 GT ISZERO PUSH2 0x7D4 JUMPI PUSH2 0x7D3 PUSH2 0x1309 JUMP JUMPDEST JUMPDEST PUSH1 0x2 DUP2 GT ISZERO PUSH2 0x7E6 JUMPI PUSH2 0x7E5 PUSH2 0x1309 JUMP JUMPDEST JUMPDEST DUP2 MSTORE PUSH1 0x20 ADD SWAP1 DUP2 MSTORE PUSH1 0x20 ADD PUSH0 KECCAK256 DUP2 SWAP1 SSTORE POP PUSH0 DUP2 PUSH1 0x3 ADD PUSH0 PUSH2 0x100 EXP DUP2 SLOAD DUP2 PUSH1 0xFF MUL NOT AND SWAP1 DUP4 PUSH1 0x2 DUP2 GT ISZERO PUSH2 0x81D JUMPI PUSH2 0x81C PUSH2 0x1309 JUMP JUMPDEST JUMPDEST MUL OR SWAP1 SSTORE POP PUSH2 0x82B DUP4 PUSH2 0xE50 JUMP JUMPDEST PUSH2 0x834 DUP2 PUSH2 0xEFF JUMP JUMPDEST DUP2 CALLVALUE LT ISZERO PUSH2 0x877 JUMPI PUSH1 0x40 MLOAD PUSH32 0x8C379A000000000000000000000000000000000000000000000000000000000 DUP2 MSTORE PUSH1 0x4 ADD PUSH2 0x86E SWAP1 PUSH2 0x156A JUMP JUMPDEST PUSH1 0x40 MLOAD DUP1 SWAP2 SUB SWAP1 REVERT JUMPDEST CALLER PUSH20 0xFFFFFFFFFFFFFFFFFFFFFFFFFFFFFFFFFFFFFFFF AND PUSH2 0x8FC DUP4 CALLVALUE PUSH2 0x89D SWAP2 SWAP1 PUSH2 0x1588 JUMP JUMPDEST SWAP1 DUP2 ISZERO MUL SWAP1 PUSH1 0x40 MLOAD PUSH0 PUSH1 0x40 MLOAD DUP1 DUP4 SUB DUP2 DUP6 DUP9 DUP9 CALL SWAP4 POP POP POP POP ISZERO DUP1 ISZERO PUSH2 0x8C5 JUMPI RETURNDATASIZE PUSH0 DUP1 RETURNDATACOPY RETURNDATASIZE PUSH0 REVERT JUMPDEST POP PUSH1 0x1 SLOAD SWAP5 POP POP POP POP POP SWAP1 JUMP JUMPDEST PUSH1 0x5 PUSH1 0x20 MSTORE DUP1 PUSH0 MSTORE PUSH1 0x40 PUSH0 KECCAK256 PUSH0 SWAP2 POP SWAP1 POP SLOAD DUP2 JUMP JUMPDEST PUSH0 DUP1 SLOAD SWAP1 PUSH2 0x100 EXP SWAP1 DIV PUSH20 0xFFFFFFFFFFFFFFFFFFFFFFFFFFFFFFFFFFFFFFFF AND DUP2 JUMP JUMPDEST PUSH1 0x8 PUSH1 0x20 MSTORE DUP2 PUSH0 MSTORE PUSH1 0x40 PUSH0 KECCAK256 PUSH1 0x20 MSTORE DUP1 PUSH0 MSTORE PUSH1 0x40 PUSH0 KECCAK256 PUSH0 SWAP2 POP SWAP2 POP POP SLOAD DUP2 JUMP JUMPDEST PUSH1 0x2 DUP2 PUSH1 0x3 DUP2 LT PUSH2 0x939 JUMPI PUSH0 DUP1 REVERT JUMPDEST ADD PUSH0 SWAP2 POP SWAP1 POP DUP1 SLOAD PUSH2 0x94A SWAP1 PUSH2 0x15E8 JUMP JUMPDEST DUP1 PUSH1 0x1F ADD PUSH1 0x20 DUP1 SWAP2 DIV MUL PUSH1 0x20 ADD PUSH1 0x40 MLOAD SWAP1 DUP2 ADD PUSH1 0x40 MSTORE DUP1 SWAP3 SWAP2 SWAP1 DUP2 DUP2 MSTORE PUSH1 0x20 ADD DUP3 DUP1 SLOAD PUSH2 0x976 SWAP1 PUSH2 0x15E8 JUMP JUMPDEST DUP1 ISZERO PUSH2 0x9C1 JUMPI DUP1 PUSH1 0x1F LT PUSH2 0x998 JUMPI PUSH2 0x100 DUP1 DUP4 SLOAD DIV MUL DUP4 MSTORE SWAP2 PUSH1 0x20 ADD SWAP2 PUSH2 0x9C1 JUMP JUMPDEST DUP3 ADD SWAP2 SWAP1 PUSH0 MSTORE PUSH1 0x20 PUSH0 KECCAK256 SWAP1 JUMPDEST DUP2 SLOAD DUP2 MSTORE SWAP1 PUSH1 0x1 ADD SWAP1 PUSH1 0x20 ADD DUP1 DUP4 GT PUSH2 0x9A4 JUMPI DUP3 SWAP1 SUB PUSH1 0x1F AND DUP3 ADD SWAP2 JUMPDEST POP POP POP POP POP DUP2 JUMP JUMPDEST DUP1 PUSH1 0x1 SLOAD DUP2 GT ISZERO PUSH2 0xA0F JUMPI PUSH1 0x40 MLOAD PUSH32 0x8C379A000000000000000000000000000000000000000000000000000000000 DUP2 MSTORE PUSH1 0x4 ADD PUSH2 0xA06 SWAP1 PUSH2 0x142D JUMP JUMPDEST PUSH1 0x40 MLOAD DUP1 SWAP2 SUB SWAP1 REVERT JUMPDEST PUSH0 PUSH1 0x7 PUSH0 DUP5 DUP2 MSTORE PUSH1 0x20 ADD SWAP1 DUP2 MSTORE PUSH1 0x20 ADD PUSH0 KECCAK256 SWAP1 POP PUSH0 PUSH1 0x2 DUP2 GT ISZERO PUSH2 0xA36 JUMPI PUSH2 0xA35 PUSH2 0x1309 JUMP JUMPDEST JUMPDEST DUP2 PUSH1 0x3 ADD PUSH0 SWAP1 SLOAD SWAP1 PUSH2 0x100 EXP SWAP1 DIV PUSH1 0xFF AND PUSH1 0x2 DUP2 GT ISZERO PUSH2 0xA59 JUMPI PUSH2 0xA58 PUSH2 0x1309 JUMP JUMPDEST JUMPDEST EQ PUSH2 0xA99 JUMPI PUSH1 0x40 MLOAD PUSH32 0x8C379A000000000000000000000000000000000000000000000000000000000 DUP2 MSTORE PUSH1 0x4 ADD PUSH2 0xA90 SWAP1 PUSH2 0x14BB JUMP JUMPDEST PUSH1 0x40 MLOAD DUP1 SWAP2 SUB SWAP1 REVERT JUMPDEST PUSH1 0x1 DUP2 PUSH1 0x3 ADD PUSH0 PUSH2 0x100 EXP DUP2 SLOAD DUP2 PUSH1 0xFF MUL NOT AND SWAP1 DUP4 PUSH1 0x2 DUP2 GT ISZERO PUSH2 0xAC0 JUMPI PUSH2 0xABF PUSH2 0x1309 JUMP JUMPDEST JUMPDEST MUL OR SWAP1 SSTORE POP PUSH0 DUP1 SLOAD SWAP1 PUSH2 0x100 EXP SWAP1 DIV PUSH20 0xFFFFFFFFFFFFFFFFFFFFFFFFFFFFFFFFFFFFFFFF AND PUSH20 0xFFFFFFFFFFFFFFFFFFFFFFFFFFFFFFFFFFFFFFFF AND PUSH2 0x8FC DUP3 PUSH0 ADD SLOAD SWAP1 DUP2 ISZERO MUL SWAP1 PUSH1 0x40 MLOAD PUSH0 PUSH1 0x40 MLOAD DUP1 DUP4 SUB DUP2 DUP6 DUP9 DUP9 CALL SWAP4 POP POP POP POP ISZERO DUP1 ISZERO PUSH2 0xB2A JUMPI RETURNDATASIZE PUSH0 DUP1 RETURNDATACOPY RETURNDATASIZE PUSH0 REVERT JUMPDEST POP POP POP POP JUMP JUMPDEST DUP1 PUSH1 0x2 ADD PUSH0 DUP1 PUSH1 0x2 DUP2 GT ISZERO PUSH2 0xB48 JUMPI PUSH2 0xB47 PUSH2 0x1309 JUMP JUMPDEST JUMPDEST PUSH1 0x2 DUP2 GT ISZERO PUSH2 0xB5A JUMPI PUSH2 0xB59 PUSH2 0x1309 JUMP JUMPDEST JUMPDEST DUP2 MSTORE PUSH1 0x20 ADD SWAP1 DUP2 MSTORE PUSH1 0x20 ADD PUSH0 KECCAK256 SLOAD PUSH1 0x6 PUSH0 DUP1 PUSH1 0x2 DUP2 GT ISZERO PUSH2 0xB7E JUMPI PUSH2 0xB7D PUSH2 0x1309 JUMP JUMPDEST JUMPDEST PUSH1 0x2 DUP2 GT ISZERO PUSH2 0xB90 JUMPI PUSH2 0xB8F PUSH2 0x1309 JUMP JUMPDEST JUMPDEST DUP2 MSTORE PUSH1 0x20 ADD SWAP1 DUP2 MSTORE PUSH1 0x20 ADD PUSH0 KECCAK256 PUSH0 DUP3 DUP3 SLOAD PUSH2 0xBAB SWAP2 SWAP1 PUSH2 0x1363 JUMP JUMPDEST SWAP3 POP POP DUP2 SWAP1 SSTORE POP DUP1 PUSH1 0x2 ADD PUSH0 DUP1 PUSH1 0x2 DUP2 GT ISZERO PUSH2 0xBCA JUMPI PUSH2 0xBC9 PUSH2 0x1309 JUMP JUMPDEST JUMPDEST PUSH1 0x2 DUP2 GT ISZERO PUSH2 0xBDC JUMPI PUSH2 0xBDB PUSH2 0x1309 JUMP JUMPDEST JUMPDEST DUP2 MSTORE PUSH1 0x20 ADD SWAP1 DUP2 MSTORE PUSH1 0x20 ADD PUSH0 KECCAK256 SLOAD PUSH1 0x6 PUSH0 PUSH1 0x1 PUSH1 0x2 DUP2 GT ISZERO PUSH2 0xC01 JUMPI PUSH2 0xC00 PUSH2 0x1309 JUMP JUMPDEST JUMPDEST PUSH1 0x2 DUP2 GT ISZERO PUSH2 0xC13 JUMPI PUSH2 0xC12 PUSH2 0x1309 JUMP JUMPDEST JUMPDEST DUP2 MSTORE PUSH1 0x20 ADD SWAP1 DUP2 MSTORE PUSH1 0x20 ADD PUSH0 KECCAK256 PUSH0 DUP3 DUP3 SLOAD PUSH2 0xC2E SWAP2 SWAP1 PUSH2 0x1363 JUMP JUMPDEST SWAP3 POP POP DUP2 SWAP1 SSTORE POP DUP1 PUSH1 0x2 ADD PUSH0 DUP1 PUSH1 0x2 DUP2 GT ISZERO PUSH2 0xC4D JUMPI PUSH2 0xC4C PUSH2 0x1309 JUMP JUMPDEST JUMPDEST PUSH1 0x2 DUP2 GT ISZERO PUSH2 0xC5F JUMPI PUSH2 0xC5E PUSH2 0x1309 JUMP JUMPDEST JUMPDEST DUP2 MSTORE PUSH1 0x20 ADD SWAP1 DUP2 MSTORE PUSH1 0x20 ADD PUSH0 KECCAK256 SLOAD PUSH1 0x6 PUSH0 PUSH1 0x2 DUP1 DUP2 GT ISZERO PUSH2 0xC83 JUMPI PUSH2 0xC82 PUSH2 0x1309 JUMP JUMPDEST JUMPDEST PUSH1 0x2 DUP2 GT ISZERO PUSH2 0xC95 JUMPI PUSH2 0xC94 PUSH2 0x1309 JUMP JUMPDEST JUMPDEST DUP2 MSTORE PUSH1 0x20 ADD SWAP1 DUP2 MSTORE PUSH1 0x20 ADD PUSH0 KECCAK256 PUSH0 DUP3 DUP3 SLOAD PUSH2 0xCB0 SWAP2 SWAP1 PUSH2 0x1363 JUMP JUMPDEST SWAP3 POP POP DUP2 SWAP1 SSTORE POP POP JUMP JUMPDEST PUSH0 DUP1 PUSH0 SWAP1 POP DUP3 PUSH0 DUP1 PUSH1 0x2 DUP2 GT ISZERO PUSH2 0xCD4 JUMPI PUSH2 0xCD3 PUSH2 0x1309 JUMP JUMPDEST JUMPDEST PUSH1 0x2 DUP2 GT ISZERO PUSH2 0xCE6 JUMPI PUSH2 0xCE5 PUSH2 0x1309 JUMP JUMPDEST JUMPDEST DUP2 MSTORE PUSH1 0x20 ADD SWAP1 DUP2 MSTORE PUSH1 0x20 ADD PUSH0 KECCAK256 SLOAD PUSH1 0x5 PUSH0 DUP1 PUSH1 0x2 DUP2 GT ISZERO PUSH2 0xD0A JUMPI PUSH2 0xD09 PUSH2 0x1309 JUMP JUMPDEST JUMPDEST PUSH1 0x2 DUP2 GT ISZERO PUSH2 0xD1C JUMPI PUSH2 0xD1B PUSH2 0x1309 JUMP JUMPDEST JUMPDEST DUP2 MSTORE PUSH1 0x20 ADD SWAP1 DUP2 MSTORE PUSH1 0x20 ADD PUSH0 KECCAK256 SLOAD PUSH2 0xD34 SWAP2 SWAP1 PUSH2 0x1618 JUMP JUMPDEST DUP2 PUSH2 0xD3F SWAP2 SWAP1 PUSH2 0x1363 JUMP JUMPDEST SWAP1 POP DUP3 PUSH0 PUSH1 0x1 PUSH1 0x2 DUP2 GT ISZERO PUSH2 0xD57 JUMPI PUSH2 0xD56 PUSH2 0x1309 JUMP JUMPDEST JUMPDEST PUSH1 0x2 DUP2 GT ISZERO PUSH2 0xD69 JUMPI PUSH2 0xD68 PUSH2 0x1309 JUMP JUMPDEST JUMPDEST DUP2 MSTORE PUSH1 0x20 ADD SWAP1 DUP2 MSTORE PUSH1 0x20 ADD PUSH0 KECCAK256 SLOAD PUSH1 0x5 PUSH0 PUSH1 0x1 PUSH1 0x2 DUP2 GT ISZERO PUSH2 0xD8E JUMPI PUSH2 0xD8D PUSH2 0x1309 JUMP JUMPDEST JUMPDEST PUSH1 0x2 DUP2 GT ISZERO PUSH2 0xDA0 JUMPI PUSH2 0xD9F PUSH2 0x1309 JUMP JUMPDEST JUMPDEST DUP2 MSTORE PUSH1 0x20 ADD SWAP1 DUP2 MSTORE PUSH1 0x20 ADD PUSH0 KECCAK256 SLOAD PUSH2 0xDB8 SWAP2 SWAP1 PUSH2 0x1618 JUMP JUMPDEST DUP2 PUSH2 0xDC3 SWAP2 SWAP1 PUSH2 0x1363 JUMP JUMPDEST SWAP1 POP DUP3 PUSH0 PUSH1 0x2 DUP1 DUP2 GT ISZERO PUSH2 0xDDA JUMPI PUSH2 0xDD9 PUSH2 0x1309 JUMP JUMPDEST JUMPDEST PUSH1 0x2 DUP2 GT ISZERO PUSH2 0xDEC JUMPI PUSH2 0xDEB PUSH2 0x1309 JUMP JUMPDEST JUMPDEST DUP2 MSTORE PUSH1 0x20 ADD SWAP1 DUP2 MSTORE PUSH1 0x20 ADD PUSH0 KECCAK256 SLOAD PUSH1 0x5 PUSH0 PUSH1 0x2 DUP1 DUP2 GT ISZERO PUSH2 0xE10 JUMPI PUSH2 0xE0F PUSH2 0x1309 JUMP JUMPDEST JUMPDEST PUSH1 0x2 DUP2 GT ISZERO PUSH2 0xE22 JUMPI PUSH2 0xE21 PUSH2 0x1309 JUMP JUMPDEST JUMPDEST DUP2 MSTORE PUSH1 0x20 ADD SWAP1 DUP2 MSTORE PUSH1 0x20 ADD PUSH0 KECCAK256 SLOAD PUSH2 0xE3A SWAP2 SWAP1 PUSH2 0x1618 JUMP JUMPDEST DUP2 PUSH2 0xE45 SWAP2 SWAP1 PUSH2 0x1363 JUMP JUMPDEST SWAP1 POP DUP1 SWAP2 POP POP SWAP2 SWAP1 POP JUMP JUMPDEST PUSH0 DUP2 PUSH0 DUP1 PUSH1 0x2 DUP2 GT ISZERO PUSH2 0xE66 JUMPI PUSH2 0xE65 PUSH2 0x1309 JUMP JUMPDEST JUMPDEST PUSH1 0x2 DUP2 GT ISZERO PUSH2 0xE78 JUMPI PUSH2 0xE77 PUSH2 0x1309 JUMP JUMPDEST JUMPDEST DUP2 MSTORE PUSH1 0x20 ADD SWAP1 DUP2 MSTORE PUSH1 0x20 ADD PUSH0 KECCAK256 DUP2 SWAP1 SSTORE POP PUSH0 DUP2 PUSH0 PUSH1 0x1 PUSH1 0x2 DUP2 GT ISZERO PUSH2 0xEA0 JUMPI PUSH2 0xE9F PUSH2 0x1309 JUMP JUMPDEST JUMPDEST PUSH1 0x2 DUP2 GT ISZERO PUSH2 0xEB2 JUMPI PUSH2 0xEB1 PUSH2 0x1309 JUMP JUMPDEST JUMPDEST DUP2 MSTORE PUSH1 0x20 ADD SWAP1 DUP2 MSTORE PUSH1 0x20 ADD PUSH0 KECCAK256 DUP2 SWAP1 SSTORE POP PUSH0 DUP2 PUSH0 PUSH1 0x2 DUP1 DUP2 GT ISZERO PUSH2 0xED9 JUMPI PUSH2 0xED8 PUSH2 0x1309 JUMP JUMPDEST JUMPDEST PUSH1 0x2 DUP2 GT ISZERO PUSH2 0xEEB JUMPI PUSH2 0xEEA PUSH2 0x1309 JUMP JUMPDEST JUMPDEST DUP2 MSTORE PUSH1 0x20 ADD SWAP1 DUP2 MSTORE PUSH1 0x20 ADD PUSH0 KECCAK256 DUP2 SWAP1 SSTORE POP POP JUMP JUMPDEST DUP1 PUSH1 0x2 ADD PUSH0 DUP1 PUSH1 0x2 DUP2 GT ISZERO PUSH2 0xF17 JUMPI PUSH2 0xF16 PUSH2 0x1309 JUMP JUMPDEST JUMPDEST PUSH1 0x2 DUP2 GT ISZERO PUSH2 0xF29 JUMPI PUSH2 0xF28 PUSH2 0x1309 JUMP JUMPDEST JUMPDEST DUP2 MSTORE PUSH1 0x20 ADD SWAP1 DUP2 MSTORE PUSH1 0x20 ADD PUSH0 KECCAK256 SLOAD PUSH1 0x6 PUSH0 DUP1 PUSH1 0x2 DUP2 GT ISZERO PUSH2 0xF4D JUMPI PUSH2 0xF4C PUSH2 0x1309 JUMP JUMPDEST JUMPDEST PUSH1 0x2 DUP2 GT ISZERO PUSH2 0xF5F JUMPI PUSH2 0xF5E PUSH2 0x1309 JUMP JUMPDEST JUMPDEST DUP2 MSTORE PUSH1 0x20 ADD SWAP1 DUP2 MSTORE PUSH1 0x20 ADD PUSH0 KECCAK256 PUSH0 DUP3 DUP3 SLOAD PUSH2 0xF7A SWAP2 SWAP1 PUSH2 0x1588 JUMP JUMPDEST SWAP3 POP POP DUP2 SWAP1 SSTORE POP DUP1 PUSH1 0x2 ADD PUSH0 DUP1 PUSH1 0x2 DUP2 GT ISZERO PUSH2 0xF99 JUMPI PUSH2 0xF98 PUSH2 0x1309 JUMP JUMPDEST JUMPDEST PUSH1 0x2 DUP2 GT ISZERO PUSH2 0xFAB JUMPI PUSH2 0xFAA PUSH2 0x1309 JUMP JUMPDEST JUMPDEST DUP2 MSTORE PUSH1 0x20 ADD SWAP1 DUP2 MSTORE PUSH1 0x20 ADD PUSH0 KECCAK256 SLOAD PUSH1 0x6 PUSH0 PUSH1 0x1 PUSH1 0x2 DUP2 GT ISZERO PUSH2 0xFD0 JUMPI PUSH2 0xFCF PUSH2 0x1309 JUMP JUMPDEST JUMPDEST PUSH1 0x2 DUP2 GT ISZERO PUSH2 0xFE2 JUMPI PUSH2 0xFE1 PUSH2 0x1309 JUMP JUMPDEST JUMPDEST DUP2 MSTORE PUSH1 0x20 ADD SWAP1 DUP2 MSTORE PUSH1 0x20 ADD PUSH0 KECCAK256 PUSH0 DUP3 DUP3 SLOAD PUSH2 0xFFD SWAP2 SWAP1 PUSH2 0x1588 JUMP JUMPDEST SWAP3 POP POP DUP2 SWAP1 SSTORE POP DUP1 PUSH1 0x2 ADD PUSH0 DUP1 PUSH1 0x2 DUP2 GT ISZERO PUSH2 0x101C JUMPI PUSH2 0x101B PUSH2 0x1309 JUMP JUMPDEST JUMPDEST PUSH1 0x2 DUP2 GT ISZERO PUSH2 0x102E JUMPI PUSH2 0x102D PUSH2 0x1309 JUMP JUMPDEST JUMPDEST DUP2 MSTORE PUSH1 0x20 ADD SWAP1 DUP2 MSTORE PUSH1 0x20 ADD PUSH0 KECCAK256 SLOAD PUSH1 0x6 PUSH0 PUSH1 0x2 DUP1 DUP2 GT ISZERO PUSH2 0x1052 JUMPI PUSH2 0x1051 PUSH2 0x1309 JUMP JUMPDEST JUMPDEST PUSH1 0x2 DUP2 GT ISZERO PUSH2 0x1064 JUMPI PUSH2 0x1063 PUSH2 0x1309 JUMP JUMPDEST JUMPDEST DUP2 MSTORE PUSH1 0x20 ADD SWAP1 DUP2 MSTORE PUSH1 0x20 ADD PUSH0 KECCAK256 PUSH0 DUP3 DUP3 SLOAD PUSH2 0x107F SWAP2 SWAP1 PUSH2 0x1588 JUMP JUMPDEST SWAP3 POP POP DUP2 SWAP1 SSTORE POP POP JUMP JUMPDEST PUSH0 DUP1 REVERT JUMPDEST PUSH1 0x3 DUP2 LT PUSH2 0x1099 JUMPI PUSH0 DUP1 REVERT JUMPDEST POP JUMP JUMPDEST PUSH0 DUP2 CALLDATALOAD SWAP1 POP PUSH2 0x10AA DUP2 PUSH2 0x108D JUMP JUMPDEST SWAP3 SWAP2 POP POP JUMP JUMPDEST PUSH0 DUP2 SWAP1 POP SWAP2 SWAP1 POP JUMP JUMPDEST PUSH2 0x10C2 DUP2 PUSH2 0x10B0 JUMP JUMPDEST DUP2 EQ PUSH2 0x10CC JUMPI PUSH0 DUP1 REVERT JUMPDEST POP JUMP JUMPDEST PUSH0 DUP2 CALLDATALOAD SWAP1 POP PUSH2 0x10DD DUP2 PUSH2 0x10B9 JUMP JUMPDEST SWAP3 SWAP2 POP POP JUMP JUMPDEST PUSH0 DUP1 PUSH1 0x40 DUP4 DUP6 SUB SLT ISZERO PUSH2 0x10F9 JUMPI PUSH2 0x10F8 PUSH2 0x1089 JUMP JUMPDEST JUMPDEST PUSH0 PUSH2 0x1106 DUP6 DUP3 DUP7 ADD PUSH2 0x109C JUMP JUMPDEST SWAP3 POP POP PUSH1 0x20 PUSH2 0x1117 DUP6 DUP3 DUP7 ADD PUSH2 0x10CF JUMP JUMPDEST SWAP2 POP POP SWAP3 POP SWAP3 SWAP1 POP JUMP JUMPDEST PUSH0 PUSH1 0x20 DUP3 DUP5 SUB SLT ISZERO PUSH2 0x1136 JUMPI PUSH2 0x1135 PUSH2 0x1089 JUMP JUMPDEST JUMPDEST PUSH0 PUSH2 0x1143 DUP5 DUP3 DUP6 ADD PUSH2 0x10CF JUMP JUMPDEST SWAP2 POP POP SWAP3 SWAP2 POP POP JUMP JUMPDEST PUSH0 PUSH1 0x20 DUP3 DUP5 SUB SLT ISZERO PUSH2 0x1161 JUMPI PUSH2 0x1160 PUSH2 0x1089 JUMP JUMPDEST JUMPDEST PUSH0 PUSH2 0x116E DUP5 DUP3 DUP6 ADD PUSH2 0x109C JUMP JUMPDEST SWAP2 POP POP SWAP3 SWAP2 POP POP JUMP JUMPDEST PUSH2 0x1180 DUP2 PUSH2 0x10B0 JUMP JUMPDEST DUP3 MSTORE POP POP JUMP JUMPDEST PUSH0 PUSH1 0x20 DUP3 ADD SWAP1 POP PUSH2 0x1199 PUSH0 DUP4 ADD DUP5 PUSH2 0x1177 JUMP JUMPDEST SWAP3 SWAP2 POP POP JUMP JUMPDEST PUSH0 PUSH20 0xFFFFFFFFFFFFFFFFFFFFFFFFFFFFFFFFFFFFFFFF DUP3 AND SWAP1 POP SWAP2 SWAP1 POP JUMP JUMPDEST PUSH0 PUSH2 0x11C8 DUP3 PUSH2 0x119F JUMP JUMPDEST SWAP1 POP SWAP2 SWAP1 POP JUMP JUMPDEST PUSH2 0x11D8 DUP2 PUSH2 0x11BE JUMP JUMPDEST DUP3 MSTORE POP POP JUMP JUMPDEST PUSH0 PUSH1 0x20 DUP3 ADD SWAP1 POP PUSH2 0x11F1 PUSH0 DUP4 ADD DUP5 PUSH2 0x11CF JUMP JUMPDEST SWAP3 SWAP2 POP POP JUMP JUMPDEST PUSH2 0x1200 DUP2 PUSH2 0x11BE JUMP JUMPDEST DUP2 EQ PUSH2 0x120A JUMPI PUSH0 DUP1 REVERT JUMPDEST POP JUMP JUMPDEST PUSH0 DUP2 CALLDATALOAD SWAP1 POP PUSH2 0x121B DUP2 PUSH2 0x11F7 JUMP JUMPDEST SWAP3 SWAP2 POP POP JUMP JUMPDEST PUSH0 DUP1 PUSH1 0x40 DUP4 DUP6 SUB SLT ISZERO PUSH2 0x1237 JUMPI PUSH2 0x1236 PUSH2 0x1089 JUMP JUMPDEST JUMPDEST PUSH0 PUSH2 0x1244 DUP6 DUP3 DUP7 ADD PUSH2 0x120D JUMP JUMPDEST SWAP3 POP POP PUSH1 0x20 PUSH2 0x1255 DUP6 DUP3 DUP7 ADD PUSH2 0x109C JUMP JUMPDEST SWAP2 POP POP SWAP3 POP SWAP3 SWAP1 POP JUMP JUMPDEST PUSH0 DUP2 MLOAD SWAP1 POP SWAP2 SWAP1 POP JUMP JUMPDEST PUSH0 DUP3 DUP3 MSTORE PUSH1 0x20 DUP3 ADD SWAP1 POP SWAP3 SWAP2 POP POP JUMP JUMPDEST PUSH0 JUMPDEST DUP4 DUP2 LT ISZERO PUSH2 0x1296 JUMPI DUP1 DUP3 ADD MLOAD DUP2 DUP5 ADD MSTORE PUSH1 0x20 DUP2 ADD SWAP1 POP PUSH2 0x127B JUMP JUMPDEST PUSH0 DUP5 DUP5 ADD MSTORE POP POP POP POP JUMP JUMPDEST PUSH0 PUSH1 0x1F NOT PUSH1 0x1F DUP4 ADD AND SWAP1 POP SWAP2 SWAP1 POP JUMP JUMPDEST PUSH0 PUSH2 0x12BB DUP3 PUSH2 0x125F JUMP JUMPDEST PUSH2 0x12C5 DUP2 DUP6 PUSH2 0x1269 JUMP JUMPDEST SWAP4 POP PUSH2 0x12D5 DUP2 DUP6 PUSH1 0x20 DUP7 ADD PUSH2 0x1279 JUMP JUMPDEST PUSH2 0x12DE DUP2 PUSH2 0x12A1 JUMP JUMPDEST DUP5 ADD SWAP2 POP POP SWAP3 SWAP2 POP POP JUMP JUMPDEST PUSH0 PUSH1 0x20 DUP3 ADD SWAP1 POP DUP2 DUP2 SUB PUSH0 DUP4 ADD MSTORE PUSH2 0x1301 DUP2 DUP5 PUSH2 0x12B1 JUMP JUMPDEST SWAP1 POP SWAP3 SWAP2 POP POP JUMP JUMPDEST PUSH32 0x4E487B7100000000000000000000000000000000000000000000000000000000 PUSH0 MSTORE PUSH1 0x21 PUSH1 0x4 MSTORE PUSH1 0x24 PUSH0 REVERT JUMPDEST PUSH32 0x4E487B7100000000000000000000000000000000000000000000000000000000 PUSH0 MSTORE PUSH1 0x11 PUSH1 0x4 MSTORE PUSH1 0x24 PUSH0 REVERT JUMPDEST PUSH0 PUSH2 0x136D DUP3 PUSH2 0x10B0 JUMP JUMPDEST SWAP2 POP PUSH2 0x1378 DUP4 PUSH2 0x10B0 JUMP JUMPDEST SWAP3 POP DUP3 DUP3 ADD SWAP1 POP DUP1 DUP3 GT ISZERO PUSH2 0x1390 JUMPI PUSH2 0x138F PUSH2 0x1336 JUMP JUMPDEST JUMPDEST SWAP3 SWAP2 POP POP JUMP JUMPDEST PUSH0 PUSH1 0x40 DUP3 ADD SWAP1 POP PUSH2 0x13A9 PUSH0 DUP4 ADD DUP6 PUSH2 0x1177 JUMP JUMPDEST PUSH2 0x13B6 PUSH1 0x20 DUP4 ADD DUP5 PUSH2 0x1177 JUMP JUMPDEST SWAP4 SWAP3 POP POP POP JUMP JUMPDEST PUSH32 0x4F7264657220776974682074686973204944206973206E6F7420637265617465 PUSH0 DUP3 ADD MSTORE PUSH32 0x6420796574000000000000000000000000000000000000000000000000000000 PUSH1 0x20 DUP3 ADD MSTORE POP JUMP JUMPDEST PUSH0 PUSH2 0x1417 PUSH1 0x25 DUP4 PUSH2 0x1269 JUMP JUMPDEST SWAP2 POP PUSH2 0x1422 DUP3 PUSH2 0x13BD JUMP JUMPDEST PUSH1 0x40 DUP3 ADD SWAP1 POP SWAP2 SWAP1 POP JUMP JUMPDEST PUSH0 PUSH1 0x20 DUP3 ADD SWAP1 POP DUP2 DUP2 SUB PUSH0 DUP4 ADD MSTORE PUSH2 0x1444 DUP2 PUSH2 0x140B JUMP JUMPDEST SWAP1 POP SWAP2 SWAP1 POP JUMP JUMPDEST PUSH32 0x4F726465722069732065697468657220616C72656164792063616E63656C6C65 PUSH0 DUP3 ADD MSTORE PUSH32 0x64206F722064656C697665726564000000000000000000000000000000000000 PUSH1 0x20 DUP3 ADD MSTORE POP JUMP JUMPDEST PUSH0 PUSH2 0x14A5 PUSH1 0x2E DUP4 PUSH2 0x1269 JUMP JUMPDEST SWAP2 POP PUSH2 0x14B0 DUP3 PUSH2 0x144B JUMP JUMPDEST PUSH1 0x40 DUP3 ADD SWAP1 POP SWAP2 SWAP1 POP JUMP JUMPDEST PUSH0 PUSH1 0x20 DUP3 ADD SWAP1 POP DUP2 DUP2 SUB PUSH0 DUP4 ADD MSTORE PUSH2 0x14D2 DUP2 PUSH2 0x1499 JUMP JUMPDEST SWAP1 POP SWAP2 SWAP1 POP JUMP JUMPDEST PUSH0 PUSH2 0x14E3 DUP3 PUSH2 0x10B0 JUMP JUMPDEST SWAP2 POP PUSH32 0xFFFFFFFFFFFFFFFFFFFFFFFFFFFFFFFFFFFFFFFFFFFFFFFFFFFFFFFFFFFFFFFF DUP3 SUB PUSH2 0x1515 JUMPI PUSH2 0x1514 PUSH2 0x1336 JUMP JUMPDEST JUMPDEST PUSH1 0x1 DUP3 ADD SWAP1 POP SWAP2 SWAP1 POP JUMP JUMPDEST PUSH32 0x4E6F7420656E6F756768206D6F6E65792073656E740000000000000000000000 PUSH0 DUP3 ADD MSTORE POP JUMP JUMPDEST PUSH0 PUSH2 0x1554 PUSH1 0x15 DUP4 PUSH2 0x1269 JUMP JUMPDEST SWAP2 POP PUSH2 0x155F DUP3 PUSH2 0x1520 JUMP JUMPDEST PUSH1 0x20 DUP3 ADD SWAP1 POP SWAP2 SWAP1 POP JUMP JUMPDEST PUSH0 PUSH1 0x20 DUP3 ADD SWAP1 POP DUP2 DUP2 SUB PUSH0 DUP4 ADD MSTORE PUSH2 0x1581 DUP2 PUSH2 0x1548 JUMP JUMPDEST SWAP1 POP SWAP2 SWAP1 POP JUMP JUMPDEST PUSH0 PUSH2 0x1592 DUP3 PUSH2 0x10B0 JUMP JUMPDEST SWAP2 POP PUSH2 0x159D DUP4 PUSH2 0x10B0 JUMP JUMPDEST SWAP3 POP DUP3 DUP3 SUB SWAP1 POP DUP2 DUP2 GT ISZERO PUSH2 0x15B5 JUMPI PUSH2 0x15B4 PUSH2 0x1336 JUMP JUMPDEST JUMPDEST SWAP3 SWAP2 POP POP JUMP JUMPDEST PUSH32 0x4E487B7100000000000000000000000000000000000000000000000000000000 PUSH0 MSTORE PUSH1 0x22 PUSH1 0x4 MSTORE PUSH1 0x24 PUSH0 REVERT JUMPDEST PUSH0 PUSH1 0x2 DUP3 DIV SWAP1 POP PUSH1 0x1 DUP3 AND DUP1 PUSH2 0x15FF JUMPI PUSH1 0x7F DUP3 AND SWAP2 POP JUMPDEST PUSH1 0x20 DUP3 LT DUP2 SUB PUSH2 0x1612 JUMPI PUSH2 0x1611 PUSH2 0x15BB JUMP JUMPDEST JUMPDEST POP SWAP2 SWAP1 POP JUMP JUMPDEST PUSH0 PUSH2 0x1622 DUP3 PUSH2 0x10B0 JUMP JUMPDEST SWAP2 POP PUSH2 0x162D DUP4 PUSH2 0x10B0 JUMP JUMPDEST SWAP3 POP DUP3 DUP3 MUL PUSH2 0x163B DUP2 PUSH2 0x10B0 JUMP JUMPDEST SWAP2 POP DUP3 DUP3 DIV DUP5 EQ DUP4 ISZERO OR PUSH2 0x1652 JUMPI PUSH2 0x1651 PUSH2 0x1336 JUMP JUMPDEST JUMPDEST POP SWAP3 SWAP2 POP POP JUMP INVALID LOG2 PUSH5 0x6970667358 0x22 SLT KECCAK256 0x24 PUSH23 0x273C71FB77A450B684EEFB63B81AA486B613099705BA55 SWAP14 0xE4 0xCC DUP15 0xED SLOAD GT PUSH5 0x736F6C6343 STOP ADDMOD AND STOP CALLER "
				},
				"gasEstimates": {
					"creation": {
						"codeDepositCost": "1155000",
						"executionCost": "infinite",
						"totalCost": "infinite"
					},
					"external": {
						"availableProducts(uint256)": "infinite",
						"cancelOrder(uint256)": "infinite",
						"carts(address,uint8)": "3036",
						"confirmDelivered(uint256)": "infinite",
						"owner()": "2527",
						"priceList(uint8)": "2712",
						"purchase()": "infinite",
						"putProductIntoCart(uint8,uint256)": "infinite",
						"warehouse(uint8)": "2757"
					},
					"internal": {
						"calculateCartPrice(mapping(enum Store.Product => uint256))": "infinite",
						"clearCart(mapping(enum Store.Product => uint256))": "15440",
						"reserveProducts(struct Store.order storage pointer)": "infinite",
						"returnProducts(struct Store.order storage pointer)": "infinite"
					}
				},
				"methodIdentifiers": {
					"availableProducts(uint256)": "e4bcc7d4",
					"cancelOrder(uint256)": "514fcac7",
					"carts(address,uint8)": "de5355be",
					"confirmDelivered(uint256)": "faf08906",
					"owner()": "8da5cb5b",
					"priceList(uint8)": "74ac0446",
					"purchase()": "64edfbf0",
					"putProductIntoCart(uint8,uint256)": "08162e9c",
					"warehouse(uint8)": "62f65000"
				}
			},
			"storageLayout": {
				"storage": [
					{
						"astId": 9,
						"contract": "contracts/Store.sol:Store",
						"label": "owner",
						"offset": 0,
						"slot": "0",
						"type": "t_address"
					},
					{
						"astId": 33,
						"contract": "contracts/Store.sol:Store",
						"label": "latestOrderId",
						"offset": 0,
						"slot": "1",
						"type": "t_uint256"
					},
					{
						"astId": 37,
						"contract": "contracts/Store.sol:Store",
						"label": "availableProducts",
						"offset": 0,
						"slot": "2",
						"type": "t_array(t_string_storage)3_storage"
					},
					{
						"astId": 42,
						"contract": "contracts/Store.sol:Store",
						"label": "priceList",
						"offset": 0,
						"slot": "5",
						"type": "t_mapping(t_enum(Product)13,t_uint256)"
					},
					{
						"astId": 47,
						"contract": "contracts/Store.sol:Store",
						"label": "warehouse",
						"offset": 0,
						"slot": "6",
						"type": "t_mapping(t_enum(Product)13,t_uint256)"
					},
					{
						"astId": 52,
						"contract": "contracts/Store.sol:Store",
						"label": "orders",
						"offset": 0,
						"slot": "7",
						"type": "t_mapping(t_uint256,t_struct(order)30_storage)"
					},
					{
						"astId": 59,
						"contract": "contracts/Store.sol:Store",
						"label": "carts",
						"offset": 0,
						"slot": "8",
						"type": "t_mapping(t_address,t_mapping(t_enum(Product)13,t_uint256))"
					}
				],
				"types": {
					"t_address": {
						"encoding": "inplace",
						"label": "address",
						"numberOfBytes": "20"
					},
					"t_array(t_string_storage)3_storage": {
						"base": "t_string_storage",
						"encoding": "inplace",
						"label": "string[3]",
						"numberOfBytes": "96"
					},
					"t_enum(OrderStatus)17": {
						"encoding": "inplace",
						"label": "enum Store.OrderStatus",
						"numberOfBytes": "1"
					},
					"t_enum(Product)13": {
						"encoding": "inplace",
						"label": "enum Store.Product",
						"numberOfBytes": "1"
					},
					"t_mapping(t_address,t_mapping(t_enum(Product)13,t_uint256))": {
						"encoding": "mapping",
						"key": "t_address",
						"label": "mapping(address => mapping(enum Store.Product => uint256))",
						"numberOfBytes": "32",
						"value": "t_mapping(t_enum(Product)13,t_uint256)"
					},
					"t_mapping(t_enum(Product)13,t_uint256)": {
						"encoding": "mapping",
						"key": "t_enum(Product)13",
						"label": "mapping(enum Store.Product => uint256)",
						"numberOfBytes": "32",
						"value": "t_uint256"
					},
					"t_mapping(t_uint256,t_struct(order)30_storage)": {
						"encoding": "mapping",
						"key": "t_uint256",
						"label": "mapping(uint256 => struct Store.order)",
						"numberOfBytes": "32",
						"value": "t_struct(order)30_storage"
					},
					"t_string_storage": {
						"encoding": "bytes",
						"label": "string",
						"numberOfBytes": "32"
					},
					"t_struct(order)30_storage": {
						"encoding": "inplace",
						"label": "struct Store.order",
						"members": [
							{
								"astId": 19,
								"contract": "contracts/Store.sol:Store",
								"label": "price",
								"offset": 0,
								"slot": "0",
								"type": "t_uint256"
							},
							{
								"astId": 21,
								"contract": "contracts/Store.sol:Store",
								"label": "customer",
								"offset": 0,
								"slot": "1",
								"type": "t_address"
							},
							{
								"astId": 26,
								"contract": "contracts/Store.sol:Store",
								"label": "contents",
								"offset": 0,
								"slot": "2",
								"type": "t_mapping(t_enum(Product)13,t_uint256)"
							},
							{
								"astId": 29,
								"contract": "contracts/Store.sol:Store",
								"label": "status",
								"offset": 0,
								"slot": "3",
								"type": "t_enum(OrderStatus)17"
							}
						],
						"numberOfBytes": "128"
					},
					"t_uint256": {
						"encoding": "inplace",
						"label": "uint256",
						"numberOfBytes": "32"
					}
				}
			},
			"userdoc": {
				"kind": "user",
				"methods": {},
				"version": 1
			}
		}
	}
}