{
    "contractName": "MyShop",
    "abi": [
        {
            "inputs": [],
            "stateMutability": "nonpayable",
            "type": "constructor"
        },
        {
            "inputs": [],
            "name": "owner",
            "outputs": [
                {
                    "internalType": "address",
                    "name": "",
                    "type": "address"
                }
            ],
            "stateMutability": "view",
            "type": "function"
        },
        {
            "inputs": [],
            "name": "payForItem",
            "outputs": [],
            "stateMutability": "payable",
            "type": "function"
        },
        {
            "inputs": [
                {
                    "internalType": "address",
                    "name": "",
                    "type": "address"
                }
            ],
            "name": "payments",
            "outputs": [
                {
                    "internalType": "uint256",
                    "name": "",
                    "type": "uint256"
                }
            ],
            "stateMutability": "view",
            "type": "function"
        },
        {
            "inputs": [],
            "name": "withdrawAll",
            "outputs": [],
            "stateMutability": "nonpayable",
            "type": "function"
        }
    ],
    "bytecode": "608060405234801561001057600080fd5b50600080546001600160a01b03191633179055610194806100326000396000f3fe60806040526004361061003f5760003560e01c806313bea46014610044578063853828b61461005d5780638da5cb5b14610072578063e2982c21146100af575b600080fd5b61005b336000908152600160205260409020349055565b005b34801561006957600080fd5b5061005b6100ea565b34801561007e57600080fd5b50600054610092906001600160a01b031681565b6040516001600160a01b0390911681526020015b60405180910390f35b3480156100bb57600080fd5b506100dc6100ca36600461012e565b60016020526000908152604090205481565b6040519081526020016100a6565b600080546040516001600160a01b039091169130918391833180156108fc02929091818181858888f19350505050158015610129573d6000803e3d6000fd5b505050565b60006020828403121561014057600080fd5b81356001600160a01b038116811461015757600080fd5b939250505056fea2646970667358221220eaec34bffcd3211e7399ea34f14e4d4247c4199129e4b5afeeb4094d11eb75f064736f6c63430008130033",
    "sourcePath": "d:/NSU_programming/cyberBesopasnost/smart_contracts/learn.sol",
    "compiler": {
        "name": "solc",
        "version": "0.8.19+commit.7dd6d404"
    },
    "functionHashes": {
        "owner()": "8da5cb5b",
        "payForItem()": "13bea460",
        "payments(address)": "e2982c21",
        "withdrawAll()": "853828b6"
    },
    "gasEstimates": {
        "creation": {
            "codeDepositCost": "80800",
            "executionCost": "24364",
            "totalCost": "105164"
        },
        "external": {
            "owner()": "2348",
            "payForItem()": "22262",
            "payments(address)": "2528",
            "withdrawAll()": "infinite"
        }
    }
}