{
  "_format": "hh-sol-artifact-1",
  "contractName": "Payments",
  "sourceName": "contracts/Payments.sol",
  "abi": [
    {
      "inputs": [
        {
          "internalType": "address",
          "name": "",
          "type": "address"
        }
      ],
      "name": "balances",
      "outputs": [
        {
          "internalType": "uint256",
          "name": "totalPayments",
          "type": "uint256"
        }
      ],
      "stateMutability": "view",
      "type": "function"
    },
    {
      "inputs": [],
      "name": "currentBalance",
      "outputs": [
        {
          "internalType": "uint256",
          "name": "",
          "type": "uint256"
        }
      ],
      "stateMutability": "view",
      "type": "function"
    },
    {
      "inputs": [
        {
          "internalType": "address",
          "name": "_addr",
          "type": "address"
        },
        {
          "internalType": "uint256",
          "name": "_index",
          "type": "uint256"
        }
      ],
      "name": "getPayment",
      "outputs": [
        {
          "components": [
            {
              "internalType": "uint256",
              "name": "amount",
              "type": "uint256"
            },
            {
              "internalType": "uint256",
              "name": "timestamp",
              "type": "uint256"
            },
            {
              "internalType": "address",
              "name": "from",
              "type": "address"
            },
            {
              "internalType": "string",
              "name": "message",
              "type": "string"
            }
          ],
          "internalType": "struct Payments.Payment",
          "name": "",
          "type": "tuple"
        }
      ],
      "stateMutability": "view",
      "type": "function"
    },
    {
      "inputs": [
        {
          "internalType": "string",
          "name": "message",
          "type": "string"
        }
      ],
      "name": "pay",
      "outputs": [],
      "stateMutability": "payable",
      "type": "function"
    }
  ],
  "bytecode": "0x608060405234801561001057600080fd5b50610bf1806100206000396000f3fe60806040526004361061003f5760003560e01c806327e235e3146100445780632b66d72e14610081578063977a767c1461009d578063ce845d1d146100da575b600080fd5b34801561005057600080fd5b5061006b600480360381019061006691906104e8565b610105565b604051610078919061052e565b60405180910390f35b61009b6004803603810190610096919061068f565b610123565b005b3480156100a957600080fd5b506100c460048036038101906100bf9190610704565b6102c7565b6040516100d19190610844565b60405180910390f35b3480156100e657600080fd5b506100ef610430565b6040516100fc919061052e565b60405180910390f35b60006020528060005260406000206000915090508060000154905081565b60008060003373ffffffffffffffffffffffffffffffffffffffff1673ffffffffffffffffffffffffffffffffffffffff1681526020019081526020016000206000015490506000803373ffffffffffffffffffffffffffffffffffffffff1673ffffffffffffffffffffffffffffffffffffffff16815260200190815260200160002060000160008154809291906101bb90610895565b9190505550600060405180608001604052803481526020014281526020013373ffffffffffffffffffffffffffffffffffffffff168152602001848152509050806000803373ffffffffffffffffffffffffffffffffffffffff1673ffffffffffffffffffffffffffffffffffffffff1681526020019081526020016000206001016000848152602001908152602001600020600082015181600001556020820151816001015560408201518160020160006101000a81548173ffffffffffffffffffffffffffffffffffffffff021916908373ffffffffffffffffffffffffffffffffffffffff16021790555060608201518160030190816102be9190610ae9565b50905050505050565b6102cf610438565b6000808473ffffffffffffffffffffffffffffffffffffffff1673ffffffffffffffffffffffffffffffffffffffff168152602001908152602001600020600101600083815260200190815260200160002060405180608001604052908160008201548152602001600182015481526020016002820160009054906101000a900473ffffffffffffffffffffffffffffffffffffffff1673ffffffffffffffffffffffffffffffffffffffff1673ffffffffffffffffffffffffffffffffffffffff1681526020016003820180546103a69061090c565b80601f01602080910402602001604051908101604052809291908181526020018280546103d29061090c565b801561041f5780601f106103f45761010080835404028352916020019161041f565b820191906000526020600020905b81548152906001019060200180831161040257829003601f168201915b505050505081525050905092915050565b600047905090565b60405180608001604052806000815260200160008152602001600073ffffffffffffffffffffffffffffffffffffffff168152602001606081525090565b6000604051905090565b600080fd5b600080fd5b600073ffffffffffffffffffffffffffffffffffffffff82169050919050565b60006104b58261048a565b9050919050565b6104c5816104aa565b81146104d057600080fd5b50565b6000813590506104e2816104bc565b92915050565b6000602082840312156104fe576104fd610480565b5b600061050c848285016104d3565b91505092915050565b6000819050919050565b61052881610515565b82525050565b6000602082019050610543600083018461051f565b92915050565b600080fd5b600080fd5b6000601f19601f8301169050919050565b7f4e487b7100000000000000000000000000000000000000000000000000000000600052604160045260246000fd5b61059c82610553565b810181811067ffffffffffffffff821117156105bb576105ba610564565b5b80604052505050565b60006105ce610476565b90506105da8282610593565b919050565b600067ffffffffffffffff8211156105fa576105f9610564565b5b61060382610553565b9050602081019050919050565b82818337600083830152505050565b600061063261062d846105df565b6105c4565b90508281526020810184848401111561064e5761064d61054e565b5b610659848285610610565b509392505050565b600082601f83011261067657610675610549565b5b813561068684826020860161061f565b91505092915050565b6000602082840312156106a5576106a4610480565b5b600082013567ffffffffffffffff8111156106c3576106c2610485565b5b6106cf84828501610661565b91505092915050565b6106e181610515565b81146106ec57600080fd5b50565b6000813590506106fe816106d8565b92915050565b6000806040838503121561071b5761071a610480565b5b6000610729858286016104d3565b925050602061073a858286016106ef565b9150509250929050565b61074d81610515565b82525050565b61075c816104aa565b82525050565b600081519050919050565b600082825260208201905092915050565b60005b8381101561079c578082015181840152602081019050610781565b60008484015250505050565b60006107b382610762565b6107bd818561076d565b93506107cd81856020860161077e565b6107d681610553565b840191505092915050565b60006080830160008301516107f96000860182610744565b50602083015161080c6020860182610744565b50604083015161081f6040860182610753565b506060830151848203606086015261083782826107a8565b9150508091505092915050565b6000602082019050818103600083015261085e81846107e1565b905092915050565b7f4e487b7100000000000000000000000000000000000000000000000000000000600052601160045260246000fd5b60006108a082610515565b91507fffffffffffffffffffffffffffffffffffffffffffffffffffffffffffffffff82036108d2576108d1610866565b5b600182019050919050565b7f4e487b7100000000000000000000000000000000000000000000000000000000600052602260045260246000fd5b6000600282049050600182168061092457607f821691505b602082108103610937576109366108dd565b5b50919050565b60008190508160005260206000209050919050565b60006020601f8301049050919050565b600082821b905092915050565b60006008830261099f7fffffffffffffffffffffffffffffffffffffffffffffffffffffffffffffffff82610962565b6109a98683610962565b95508019841693508086168417925050509392505050565b6000819050919050565b60006109e66109e16109dc84610515565b6109c1565b610515565b9050919050565b6000819050919050565b610a00836109cb565b610a14610a0c826109ed565b84845461096f565b825550505050565b600090565b610a29610a1c565b610a348184846109f7565b505050565b5b81811015610a5857610a4d600082610a21565b600181019050610a3a565b5050565b601f821115610a9d57610a6e8161093d565b610a7784610952565b81016020851015610a86578190505b610a9a610a9285610952565b830182610a39565b50505b505050565b600082821c905092915050565b6000610ac060001984600802610aa2565b1980831691505092915050565b6000610ad98383610aaf565b9150826002028217905092915050565b610af282610762565b67ffffffffffffffff811115610b0b57610b0a610564565b5b610b15825461090c565b610b20828285610a5c565b600060209050601f831160018114610b535760008415610b41578287015190505b610b4b8582610acd565b865550610bb3565b601f198416610b618661093d565b60005b82811015610b8957848901518255600182019150602085019450602081019050610b64565b86831015610ba65784890151610ba2601f891682610aaf565b8355505b6001600288020188555050505b50505050505056fea264697066735822122068d6a86c13076756e5f4bdb64deb97f69fea204b33d8ca583d85923274a0cb2c64736f6c63430008130033",
  "linkReferences": {},
  "deployedLinkReferences": {}
}